{
	"contracts/Production.sol": {
		"Production": {
			"abi": [
				{
					"constant": false,
					"inputs": [
						{
							"name": "Num",
							"type": "uint256"
						},
						{
							"name": "regSer",
							"type": "bytes32"
						}
					],
					"name": "regWarranty",
					"outputs": [],
					"payable": false,
					"stateMutability": "nonpayable",
					"type": "function"
				},
				{
					"constant": true,
					"inputs": [
						{
							"name": "n",
							"type": "uint256"
						},
						{
							"name": "sn",
							"type": "bytes32"
						}
					],
					"name": "checkSerial",
					"outputs": [
						{
							"name": "",
							"type": "bool"
						}
					],
					"payable": false,
					"stateMutability": "view",
					"type": "function"
				}
			],
			"devdoc": {
				"methods": {}
			},
			"evm": {
				"assembly": "    /* \"contracts/Production.sol\":28:1320  contract Production {\r... */\n  mstore(0x40, 0x80)\n  callvalue\n    /* \"--CODEGEN--\":8:17   */\n  dup1\n    /* \"--CODEGEN--\":5:7   */\n  iszero\n  tag_1\n  jumpi\n    /* \"--CODEGEN--\":30:31   */\n  0x0\n    /* \"--CODEGEN--\":27:28   */\n  dup1\n    /* \"--CODEGEN--\":20:32   */\n  revert\n    /* \"--CODEGEN--\":5:7   */\ntag_1:\n    /* \"contracts/Production.sol\":28:1320  contract Production {\r... */\n  pop\n  dataSize(sub_0)\n  dup1\n  dataOffset(sub_0)\n  0x0\n  codecopy\n  0x0\n  return\nstop\n\nsub_0: assembly {\n        /* \"contracts/Production.sol\":28:1320  contract Production {\r... */\n      mstore(0x40, 0x80)\n      jumpi(tag_1, lt(calldatasize, 0x4))\n      calldataload(0x0)\n      0x100000000000000000000000000000000000000000000000000000000\n      swap1\n      div\n      0xffffffff\n      and\n      dup1\n      0x4716d27a\n      eq\n      tag_2\n      jumpi\n      dup1\n      0x60eaf1df\n      eq\n      tag_3\n      jumpi\n    tag_1:\n      0x0\n      dup1\n      revert\n        /* \"contracts/Production.sol\":1120:1317  function regWarranty(uint Num, bytes32 regSer) public {\r... */\n    tag_2:\n      callvalue\n        /* \"--CODEGEN--\":8:17   */\n      dup1\n        /* \"--CODEGEN--\":5:7   */\n      iszero\n      tag_4\n      jumpi\n        /* \"--CODEGEN--\":30:31   */\n      0x0\n        /* \"--CODEGEN--\":27:28   */\n      dup1\n        /* \"--CODEGEN--\":20:32   */\n      revert\n        /* \"--CODEGEN--\":5:7   */\n    tag_4:\n        /* \"contracts/Production.sol\":1120:1317  function regWarranty(uint Num, bytes32 regSer) public {\r... */\n      pop\n      tag_5\n      0x4\n      dup1\n      calldatasize\n      sub\n      dup2\n      add\n      swap1\n      dup1\n      dup1\n      calldataload\n      swap1\n      0x20\n      add\n      swap1\n      swap3\n      swap2\n      swap1\n      dup1\n      calldataload\n      not(0x0)\n      and\n      swap1\n      0x20\n      add\n      swap1\n      swap3\n      swap2\n      swap1\n      pop\n      pop\n      pop\n      jump(tag_6)\n    tag_5:\n      stop\n        /* \"contracts/Production.sol\":527:726  function checkSerial(uint n, bytes32 sn) public view returns(bool) {\r... */\n    tag_3:\n      callvalue\n        /* \"--CODEGEN--\":8:17   */\n      dup1\n        /* \"--CODEGEN--\":5:7   */\n      iszero\n      tag_7\n      jumpi\n        /* \"--CODEGEN--\":30:31   */\n      0x0\n        /* \"--CODEGEN--\":27:28   */\n      dup1\n        /* \"--CODEGEN--\":20:32   */\n      revert\n        /* \"--CODEGEN--\":5:7   */\n    tag_7:\n        /* \"contracts/Production.sol\":527:726  function checkSerial(uint n, bytes32 sn) public view returns(bool) {\r... */\n      pop\n      tag_8\n      0x4\n      dup1\n      calldatasize\n      sub\n      dup2\n      add\n      swap1\n      dup1\n      dup1\n      calldataload\n      swap1\n      0x20\n      add\n      swap1\n      swap3\n      swap2\n      swap1\n      dup1\n      calldataload\n      not(0x0)\n      and\n      swap1\n      0x20\n      add\n      swap1\n      swap3\n      swap2\n      swap1\n      pop\n      pop\n      pop\n      jump(tag_9)\n    tag_8:\n      mload(0x40)\n      dup1\n      dup3\n      iszero\n      iszero\n      iszero\n      iszero\n      dup2\n      mstore\n      0x20\n      add\n      swap2\n      pop\n      pop\n      mload(0x40)\n      dup1\n      swap2\n      sub\n      swap1\n      return\n        /* \"contracts/Production.sol\":1120:1317  function regWarranty(uint Num, bytes32 regSer) public {\r... */\n    tag_6:\n        /* \"contracts/Production.sol\":1214:1220  regSer */\n      dup1\n        /* \"contracts/Production.sol\":1189:1220  product.serialNo[Num] == regSer */\n      not(0x0)\n      and\n        /* \"contracts/Production.sol\":1189:1196  product */\n      0x0\n        /* \"contracts/Production.sol\":1189:1205  product.serialNo */\n      dup1\n      add\n        /* \"contracts/Production.sol\":1206:1209  Num */\n      dup4\n        /* \"contracts/Production.sol\":1189:1210  product.serialNo[Num] */\n      dup2\n      sload\n      dup2\n      lt\n      iszero\n      iszero\n      tag_11\n      jumpi\n      invalid\n    tag_11:\n      swap1\n      0x0\n      mstore\n      keccak256(0x0, 0x20)\n      add\n      sload\n        /* \"contracts/Production.sol\":1189:1220  product.serialNo[Num] == regSer */\n      not(0x0)\n      and\n      eq\n        /* \"contracts/Production.sol\":1185:1310  if (product.serialNo[Num] == regSer) {\r... */\n      iszero\n      tag_13\n      jumpi\n        /* \"contracts/Production.sol\":1237:1244  product */\n      0x0\n        /* \"contracts/Production.sol\":1237:1255  product.registered */\n      0x1\n      add\n        /* \"contracts/Production.sol\":1261:1267  regSer */\n      dup2\n        /* \"contracts/Production.sol\":1237:1268  product.registered.push(regSer) */\n      swap1\n      dup1\n        /* \"--CODEGEN--\":39:40   */\n      0x1\n        /* \"--CODEGEN--\":33:36   */\n      dup2\n        /* \"--CODEGEN--\":27:37   */\n      sload\n        /* \"--CODEGEN--\":23:41   */\n      add\n        /* \"--CODEGEN--\":57:67   */\n      dup1\n        /* \"--CODEGEN--\":52:55   */\n      dup3\n        /* \"--CODEGEN--\":45:68   */\n      sstore\n        /* \"--CODEGEN--\":79:89   */\n      dup1\n        /* \"--CODEGEN--\":72:89   */\n      swap2\n      pop\n        /* \"--CODEGEN--\":0:93   */\n      pop\n        /* \"contracts/Production.sol\":1237:1268  product.registered.push(regSer) */\n      swap1\n      0x1\n      dup3\n      sub\n      swap1\n      0x0\n      mstore\n      keccak256(0x0, 0x20)\n      add\n      0x0\n      swap1\n      swap2\n      swap3\n      swap1\n      swap2\n      swap1\n      swap2\n      pop\n      swap1\n      not(0x0)\n      and\n      swap1\n      sstore\n      pop\n        /* \"contracts/Production.sol\":1283:1290  product */\n      0x0\n        /* \"contracts/Production.sol\":1283:1296  product.regNo */\n      0x2\n      add\n      0x0\n        /* \"contracts/Production.sol\":1283:1298  product.regNo++ */\n      dup2\n      sload\n      dup1\n      swap3\n      swap2\n      swap1\n      0x1\n      add\n      swap2\n      swap1\n      pop\n      sstore\n      pop\n        /* \"contracts/Production.sol\":1185:1310  if (product.serialNo[Num] == regSer) {\r... */\n    tag_13:\n        /* \"contracts/Production.sol\":1120:1317  function regWarranty(uint Num, bytes32 regSer) public {\r... */\n      pop\n      pop\n      jump\t// out\n        /* \"contracts/Production.sol\":527:726  function checkSerial(uint n, bytes32 sn) public view returns(bool) {\r... */\n    tag_9:\n        /* \"contracts/Production.sol\":588:592  bool */\n      0x0\n        /* \"contracts/Production.sol\":615:622  product */\n      dup1\n        /* \"contracts/Production.sol\":615:631  product.serialNo */\n      0x0\n      add\n        /* \"contracts/Production.sol\":632:633  n */\n      dup4\n        /* \"contracts/Production.sol\":615:634  product.serialNo[n] */\n      dup2\n      sload\n      dup2\n      lt\n      iszero\n      iszero\n      tag_16\n      jumpi\n      invalid\n    tag_16:\n      swap1\n      0x0\n      mstore\n      keccak256(0x0, 0x20)\n      add\n      sload\n        /* \"contracts/Production.sol\":609:634  sn == product.serialNo[n] */\n      not(0x0)\n      and\n        /* \"contracts/Production.sol\":609:611  sn */\n      dup3\n        /* \"contracts/Production.sol\":609:634  sn == product.serialNo[n] */\n      not(0x0)\n      and\n      eq\n        /* \"contracts/Production.sol\":605:719  if (sn == product.serialNo[n]) {\r... */\n      iszero\n      tag_18\n      jumpi\n        /* \"contracts/Production.sol\":658:662  true */\n      0x1\n        /* \"contracts/Production.sol\":651:662  return true */\n      swap1\n      pop\n      jump(tag_15)\n        /* \"contracts/Production.sol\":605:719  if (sn == product.serialNo[n]) {\r... */\n    tag_18:\n        /* \"contracts/Production.sol\":702:707  false */\n      0x0\n        /* \"contracts/Production.sol\":695:707  return false */\n      swap1\n      pop\n        /* \"contracts/Production.sol\":527:726  function checkSerial(uint n, bytes32 sn) public view returns(bool) {\r... */\n    tag_15:\n      swap3\n      swap2\n      pop\n      pop\n      jump\t// out\n\n    auxdata: 0xa165627a7a723058206bfe57a3d1d7f34874eeb194d5c4aa4c4e6e8d5c289743a9b681f3e1860e59e40029\n}\n",
				"bytecode": {
					"linkReferences": {},
					"object": "608060405234801561001057600080fd5b506101c6806100206000396000f30060806040526004361061004c576000357c0100000000000000000000000000000000000000000000000000000000900463ffffffff1680634716d27a1461005157806360eaf1df1461008c575b600080fd5b34801561005d57600080fd5b5061008a6004803603810190808035906020019092919080356000191690602001909291905050506100df565b005b34801561009857600080fd5b506100c5600480360381019080803590602001909291908035600019169060200190929190505050610159565b604051808215151515815260200191505060405180910390f35b806000191660008001838154811015156100f557fe5b90600052602060002001546000191614156101555760006001018190806001815401808255809150509060018203906000526020600020016000909192909190915090600019169055506000600201600081548092919060010191905055505b5050565b6000806000018381548110151561016c57fe5b9060005260206000200154600019168260001916141561018f5760019050610194565b600090505b929150505600a165627a7a723058206bfe57a3d1d7f34874eeb194d5c4aa4c4e6e8d5c289743a9b681f3e1860e59e40029",
					"opcodes": "PUSH1 0x80 PUSH1 0x40 MSTORE CALLVALUE DUP1 ISZERO PUSH2 0x10 JUMPI PUSH1 0x0 DUP1 REVERT JUMPDEST POP PUSH2 0x1C6 DUP1 PUSH2 0x20 PUSH1 0x0 CODECOPY PUSH1 0x0 RETURN STOP PUSH1 0x80 PUSH1 0x40 MSTORE PUSH1 0x4 CALLDATASIZE LT PUSH2 0x4C JUMPI PUSH1 0x0 CALLDATALOAD PUSH29 0x100000000000000000000000000000000000000000000000000000000 SWAP1 DIV PUSH4 0xFFFFFFFF AND DUP1 PUSH4 0x4716D27A EQ PUSH2 0x51 JUMPI DUP1 PUSH4 0x60EAF1DF EQ PUSH2 0x8C JUMPI JUMPDEST PUSH1 0x0 DUP1 REVERT JUMPDEST CALLVALUE DUP1 ISZERO PUSH2 0x5D JUMPI PUSH1 0x0 DUP1 REVERT JUMPDEST POP PUSH2 0x8A PUSH1 0x4 DUP1 CALLDATASIZE SUB DUP2 ADD SWAP1 DUP1 DUP1 CALLDATALOAD SWAP1 PUSH1 0x20 ADD SWAP1 SWAP3 SWAP2 SWAP1 DUP1 CALLDATALOAD PUSH1 0x0 NOT AND SWAP1 PUSH1 0x20 ADD SWAP1 SWAP3 SWAP2 SWAP1 POP POP POP PUSH2 0xDF JUMP JUMPDEST STOP JUMPDEST CALLVALUE DUP1 ISZERO PUSH2 0x98 JUMPI PUSH1 0x0 DUP1 REVERT JUMPDEST POP PUSH2 0xC5 PUSH1 0x4 DUP1 CALLDATASIZE SUB DUP2 ADD SWAP1 DUP1 DUP1 CALLDATALOAD SWAP1 PUSH1 0x20 ADD SWAP1 SWAP3 SWAP2 SWAP1 DUP1 CALLDATALOAD PUSH1 0x0 NOT AND SWAP1 PUSH1 0x20 ADD SWAP1 SWAP3 SWAP2 SWAP1 POP POP POP PUSH2 0x159 JUMP JUMPDEST PUSH1 0x40 MLOAD DUP1 DUP3 ISZERO ISZERO ISZERO ISZERO DUP2 MSTORE PUSH1 0x20 ADD SWAP2 POP POP PUSH1 0x40 MLOAD DUP1 SWAP2 SUB SWAP1 RETURN JUMPDEST DUP1 PUSH1 0x0 NOT AND PUSH1 0x0 DUP1 ADD DUP4 DUP2 SLOAD DUP2 LT ISZERO ISZERO PUSH2 0xF5 JUMPI INVALID JUMPDEST SWAP1 PUSH1 0x0 MSTORE PUSH1 0x20 PUSH1 0x0 KECCAK256 ADD SLOAD PUSH1 0x0 NOT AND EQ ISZERO PUSH2 0x155 JUMPI PUSH1 0x0 PUSH1 0x1 ADD DUP2 SWAP1 DUP1 PUSH1 0x1 DUP2 SLOAD ADD DUP1 DUP3 SSTORE DUP1 SWAP2 POP POP SWAP1 PUSH1 0x1 DUP3 SUB SWAP1 PUSH1 0x0 MSTORE PUSH1 0x20 PUSH1 0x0 KECCAK256 ADD PUSH1 0x0 SWAP1 SWAP2 SWAP3 SWAP1 SWAP2 SWAP1 SWAP2 POP SWAP1 PUSH1 0x0 NOT AND SWAP1 SSTORE POP PUSH1 0x0 PUSH1 0x2 ADD PUSH1 0x0 DUP2 SLOAD DUP1 SWAP3 SWAP2 SWAP1 PUSH1 0x1 ADD SWAP2 SWAP1 POP SSTORE POP JUMPDEST POP POP JUMP JUMPDEST PUSH1 0x0 DUP1 PUSH1 0x0 ADD DUP4 DUP2 SLOAD DUP2 LT ISZERO ISZERO PUSH2 0x16C JUMPI INVALID JUMPDEST SWAP1 PUSH1 0x0 MSTORE PUSH1 0x20 PUSH1 0x0 KECCAK256 ADD SLOAD PUSH1 0x0 NOT AND DUP3 PUSH1 0x0 NOT AND EQ ISZERO PUSH2 0x18F JUMPI PUSH1 0x1 SWAP1 POP PUSH2 0x194 JUMP JUMPDEST PUSH1 0x0 SWAP1 POP JUMPDEST SWAP3 SWAP2 POP POP JUMP STOP LOG1 PUSH6 0x627A7A723058 KECCAK256 PUSH12 0xFE57A3D1D7F34874EEB194D5 0xc4 0xaa 0x4c 0x4e PUSH15 0x8D5C289743A9B681F3E1860E59E400 0x29 "
				},
				"gasEstimates": {
					"creation": {
						"codeDepositCost": "90800",
						"executionCost": "141",
						"totalCost": "90941"
					},
					"external": {
						"checkSerial(uint256,bytes32)": "882",
						"regWarranty(uint256,bytes32)": "61360"
					},
					"internal": {
						"bytes32ToString(bytes32)": "infinite",
						"setProduct(string memory)": "infinite"
					}
				},
				"methodIdentifiers": {
					"checkSerial(uint256,bytes32)": "60eaf1df",
					"regWarranty(uint256,bytes32)": "4716d27a"
				}
			},
			"userdoc": {
				"methods": {}
			}
		}
	}
}