{
	"contracts/Production.sol": {
		"Production": {
			"abi": [
				{
					"inputs": [
						{
							"internalType": "uint256",
							"name": "n",
							"type": "uint256"
						},
						{
							"internalType": "bytes32",
							"name": "sn",
							"type": "bytes32"
						}
					],
					"name": "checkSerial",
					"outputs": [
						{
							"internalType": "bool",
							"name": "",
							"type": "bool"
						}
					],
					"stateMutability": "view",
					"type": "function"
				},
				{
					"inputs": [
						{
							"internalType": "uint256",
							"name": "Num",
							"type": "uint256"
						},
						{
							"internalType": "bytes32",
							"name": "regSer",
							"type": "bytes32"
						}
					],
					"name": "regWarranty",
					"outputs": [],
					"stateMutability": "nonpayable",
					"type": "function"
				}
			],
			"devdoc": {
				"kind": "dev",
				"methods": {},
				"version": 1
			},
			"evm": {
				"assembly": "    /* \"contracts/Production.sol\":64:1462  contract Production {\r... */\n  mstore(0x40, 0x80)\n  callvalue\n  dup1\n  iszero\n  tag_1\n  jumpi\n  0x00\n  dup1\n  revert\ntag_1:\n  pop\n  dataSize(sub_0)\n  dup1\n  dataOffset(sub_0)\n  0x00\n  codecopy\n  0x00\n  return\nstop\n\nsub_0: assembly {\n        /* \"contracts/Production.sol\":64:1462  contract Production {\r... */\n      mstore(0x40, 0x80)\n      callvalue\n      dup1\n      iszero\n      tag_1\n      jumpi\n      0x00\n      dup1\n      revert\n    tag_1:\n      pop\n      jumpi(tag_2, lt(calldatasize, 0x04))\n      shr(0xe0, calldataload(0x00))\n      dup1\n      0x4716d27a\n      eq\n      tag_3\n      jumpi\n      dup1\n      0x60eaf1df\n      eq\n      tag_4\n      jumpi\n    tag_2:\n      0x00\n      dup1\n      revert\n        /* \"contracts/Production.sol\":1262:1459  function regWarranty(uint Num, bytes32 regSer) public {\r... */\n    tag_3:\n      tag_5\n      0x04\n      dup1\n      calldatasize\n      sub\n      dup2\n      add\n      swap1\n      tag_6\n      swap2\n      swap1\n      tag_7\n      jump\t// in\n    tag_6:\n      tag_8\n      jump\t// in\n    tag_5:\n      stop\n        /* \"contracts/Production.sol\":669:868  function checkSerial(uint n, bytes32 sn) public view returns(bool) {\r... */\n    tag_4:\n      tag_9\n      0x04\n      dup1\n      calldatasize\n      sub\n      dup2\n      add\n      swap1\n      tag_10\n      swap2\n      swap1\n      tag_7\n      jump\t// in\n    tag_10:\n      tag_11\n      jump\t// in\n    tag_9:\n      mload(0x40)\n      tag_12\n      swap2\n      swap1\n      tag_13\n      jump\t// in\n    tag_12:\n      mload(0x40)\n      dup1\n      swap2\n      sub\n      swap1\n      return\n        /* \"contracts/Production.sol\":1262:1459  function regWarranty(uint Num, bytes32 regSer) public {\r... */\n    tag_8:\n        /* \"contracts/Production.sol\":1356:1362  regSer */\n      dup1\n        /* \"contracts/Production.sol\":1331:1338  product */\n      0x00\n        /* \"contracts/Production.sol\":1331:1347  product.serialNo */\n      dup1\n      add\n        /* \"contracts/Production.sol\":1348:1351  Num */\n      dup4\n        /* \"contracts/Production.sol\":1331:1352  product.serialNo[Num] */\n      dup2\n      sload\n      dup2\n      lt\n      tag_15\n      jumpi\n      mstore(0x00, 0x4e487b7100000000000000000000000000000000000000000000000000000000)\n      mstore(0x04, 0x32)\n      revert(0x00, 0x24)\n    tag_15:\n      swap1\n      0x00\n      mstore\n      keccak256(0x00, 0x20)\n      add\n      sload\n        /* \"contracts/Production.sol\":1331:1362  product.serialNo[Num] == regSer */\n      eq\n        /* \"contracts/Production.sol\":1327:1452  if (product.serialNo[Num] == regSer) {\r... */\n      iszero\n      tag_17\n      jumpi\n        /* \"contracts/Production.sol\":1379:1386  product */\n      0x00\n        /* \"contracts/Production.sol\":1379:1397  product.registered */\n      0x01\n      add\n        /* \"contracts/Production.sol\":1403:1409  regSer */\n      dup2\n        /* \"contracts/Production.sol\":1379:1410  product.registered.push(regSer) */\n      swap1\n      dup1\n      0x01\n      dup2\n      sload\n      add\n      dup1\n      dup3\n      sstore\n      dup1\n      swap2\n      pop\n      pop\n      0x01\n      swap1\n      sub\n      swap1\n      0x00\n      mstore\n      keccak256(0x00, 0x20)\n      add\n      0x00\n      swap1\n      swap2\n      swap1\n      swap2\n      swap1\n      swap2\n      pop\n      sstore\n        /* \"contracts/Production.sol\":1425:1432  product */\n      0x00\n        /* \"contracts/Production.sol\":1425:1438  product.regNo */\n      0x02\n      add\n      0x00\n        /* \"contracts/Production.sol\":1425:1440  product.regNo++ */\n      dup2\n      sload\n      dup1\n      swap3\n      swap2\n      swap1\n      tag_19\n      swap1\n      tag_20\n      jump\t// in\n    tag_19:\n      swap2\n      swap1\n      pop\n      sstore\n      pop\n        /* \"contracts/Production.sol\":1327:1452  if (product.serialNo[Num] == regSer) {\r... */\n    tag_17:\n        /* \"contracts/Production.sol\":1262:1459  function regWarranty(uint Num, bytes32 regSer) public {\r... */\n      pop\n      pop\n      jump\t// out\n        /* \"contracts/Production.sol\":669:868  function checkSerial(uint n, bytes32 sn) public view returns(bool) {\r... */\n    tag_11:\n        /* \"contracts/Production.sol\":730:734  bool */\n      0x00\n        /* \"contracts/Production.sol\":757:764  product */\n      dup1\n        /* \"contracts/Production.sol\":757:773  product.serialNo */\n      0x00\n      add\n        /* \"contracts/Production.sol\":774:775  n */\n      dup4\n        /* \"contracts/Production.sol\":757:776  product.serialNo[n] */\n      dup2\n      sload\n      dup2\n      lt\n      tag_22\n      jumpi\n      mstore(0x00, 0x4e487b7100000000000000000000000000000000000000000000000000000000)\n      mstore(0x04, 0x32)\n      revert(0x00, 0x24)\n    tag_22:\n      swap1\n      0x00\n      mstore\n      keccak256(0x00, 0x20)\n      add\n      sload\n        /* \"contracts/Production.sol\":751:753  sn */\n      dup3\n        /* \"contracts/Production.sol\":751:776  sn == product.serialNo[n] */\n      eq\n        /* \"contracts/Production.sol\":747:861  if (sn == product.serialNo[n]) {\r... */\n      iszero\n      tag_24\n      jumpi\n        /* \"contracts/Production.sol\":800:804  true */\n      0x01\n        /* \"contracts/Production.sol\":793:804  return true */\n      swap1\n      pop\n      jump(tag_21)\n        /* \"contracts/Production.sol\":747:861  if (sn == product.serialNo[n]) {\r... */\n    tag_24:\n        /* \"contracts/Production.sol\":844:849  false */\n      0x00\n        /* \"contracts/Production.sol\":837:849  return false */\n      swap1\n      pop\n        /* \"contracts/Production.sol\":669:868  function checkSerial(uint n, bytes32 sn) public view returns(bool) {\r... */\n    tag_21:\n      swap3\n      swap2\n      pop\n      pop\n      jump\t// out\n        /* \"#utility.yul\":7:146   */\n    tag_27:\n      0x00\n        /* \"#utility.yul\":91:97   */\n      dup2\n        /* \"#utility.yul\":78:98   */\n      calldataload\n        /* \"#utility.yul\":69:98   */\n      swap1\n      pop\n        /* \"#utility.yul\":107:140   */\n      tag_29\n        /* \"#utility.yul\":134:139   */\n      dup2\n        /* \"#utility.yul\":107:140   */\n      tag_30\n      jump\t// in\n    tag_29:\n        /* \"#utility.yul\":59:146   */\n      swap3\n      swap2\n      pop\n      pop\n      jump\t// out\n        /* \"#utility.yul\":152:291   */\n    tag_31:\n      0x00\n        /* \"#utility.yul\":236:242   */\n      dup2\n        /* \"#utility.yul\":223:243   */\n      calldataload\n        /* \"#utility.yul\":214:243   */\n      swap1\n      pop\n        /* \"#utility.yul\":252:285   */\n      tag_33\n        /* \"#utility.yul\":279:284   */\n      dup2\n        /* \"#utility.yul\":252:285   */\n      tag_34\n      jump\t// in\n    tag_33:\n        /* \"#utility.yul\":204:291   */\n      swap3\n      swap2\n      pop\n      pop\n      jump\t// out\n        /* \"#utility.yul\":297:704   */\n    tag_7:\n      0x00\n      dup1\n        /* \"#utility.yul\":422:424   */\n      0x40\n        /* \"#utility.yul\":410:419   */\n      dup4\n        /* \"#utility.yul\":401:408   */\n      dup6\n        /* \"#utility.yul\":397:420   */\n      sub\n        /* \"#utility.yul\":393:425   */\n      slt\n        /* \"#utility.yul\":390:392   */\n      iszero\n      tag_36\n      jumpi\n        /* \"#utility.yul\":438:439   */\n      0x00\n        /* \"#utility.yul\":435:436   */\n      dup1\n        /* \"#utility.yul\":428:440   */\n      revert\n        /* \"#utility.yul\":390:392   */\n    tag_36:\n        /* \"#utility.yul\":481:482   */\n      0x00\n        /* \"#utility.yul\":506:559   */\n      tag_37\n        /* \"#utility.yul\":551:558   */\n      dup6\n        /* \"#utility.yul\":542:548   */\n      dup3\n        /* \"#utility.yul\":531:540   */\n      dup7\n        /* \"#utility.yul\":527:549   */\n      add\n        /* \"#utility.yul\":506:559   */\n      tag_31\n      jump\t// in\n    tag_37:\n        /* \"#utility.yul\":496:559   */\n      swap3\n      pop\n        /* \"#utility.yul\":452:569   */\n      pop\n        /* \"#utility.yul\":608:610   */\n      0x20\n        /* \"#utility.yul\":634:687   */\n      tag_38\n        /* \"#utility.yul\":679:686   */\n      dup6\n        /* \"#utility.yul\":670:676   */\n      dup3\n        /* \"#utility.yul\":659:668   */\n      dup7\n        /* \"#utility.yul\":655:677   */\n      add\n        /* \"#utility.yul\":634:687   */\n      tag_27\n      jump\t// in\n    tag_38:\n        /* \"#utility.yul\":624:687   */\n      swap2\n      pop\n        /* \"#utility.yul\":579:697   */\n      pop\n        /* \"#utility.yul\":380:704   */\n      swap3\n      pop\n      swap3\n      swap1\n      pop\n      jump\t// out\n        /* \"#utility.yul\":710:819   */\n    tag_39:\n        /* \"#utility.yul\":791:812   */\n      tag_41\n        /* \"#utility.yul\":806:811   */\n      dup2\n        /* \"#utility.yul\":791:812   */\n      tag_42\n      jump\t// in\n    tag_41:\n        /* \"#utility.yul\":786:789   */\n      dup3\n        /* \"#utility.yul\":779:813   */\n      mstore\n        /* \"#utility.yul\":769:819   */\n      pop\n      pop\n      jump\t// out\n        /* \"#utility.yul\":825:1035   */\n    tag_13:\n      0x00\n        /* \"#utility.yul\":950:952   */\n      0x20\n        /* \"#utility.yul\":939:948   */\n      dup3\n        /* \"#utility.yul\":935:953   */\n      add\n        /* \"#utility.yul\":927:953   */\n      swap1\n      pop\n        /* \"#utility.yul\":963:1028   */\n      tag_44\n        /* \"#utility.yul\":1025:1026   */\n      0x00\n        /* \"#utility.yul\":1014:1023   */\n      dup4\n        /* \"#utility.yul\":1010:1027   */\n      add\n        /* \"#utility.yul\":1001:1007   */\n      dup5\n        /* \"#utility.yul\":963:1028   */\n      tag_39\n      jump\t// in\n    tag_44:\n        /* \"#utility.yul\":917:1035   */\n      swap3\n      swap2\n      pop\n      pop\n      jump\t// out\n        /* \"#utility.yul\":1041:1131   */\n    tag_42:\n      0x00\n        /* \"#utility.yul\":1118:1123   */\n      dup2\n        /* \"#utility.yul\":1111:1124   */\n      iszero\n        /* \"#utility.yul\":1104:1125   */\n      iszero\n        /* \"#utility.yul\":1093:1125   */\n      swap1\n      pop\n        /* \"#utility.yul\":1083:1131   */\n      swap2\n      swap1\n      pop\n      jump\t// out\n        /* \"#utility.yul\":1137:1214   */\n    tag_46:\n      0x00\n        /* \"#utility.yul\":1203:1208   */\n      dup2\n        /* \"#utility.yul\":1192:1208   */\n      swap1\n      pop\n        /* \"#utility.yul\":1182:1214   */\n      swap2\n      swap1\n      pop\n      jump\t// out\n        /* \"#utility.yul\":1220:1297   */\n    tag_48:\n      0x00\n        /* \"#utility.yul\":1286:1291   */\n      dup2\n        /* \"#utility.yul\":1275:1291   */\n      swap1\n      pop\n        /* \"#utility.yul\":1265:1297   */\n      swap2\n      swap1\n      pop\n      jump\t// out\n        /* \"#utility.yul\":1303:1536   */\n    tag_20:\n      0x00\n        /* \"#utility.yul\":1365:1389   */\n      tag_51\n        /* \"#utility.yul\":1383:1388   */\n      dup3\n        /* \"#utility.yul\":1365:1389   */\n      tag_48\n      jump\t// in\n    tag_51:\n        /* \"#utility.yul\":1356:1389   */\n      swap2\n      pop\n        /* \"#utility.yul\":1411:1477   */\n      0xffffffffffffffffffffffffffffffffffffffffffffffffffffffffffffffff\n        /* \"#utility.yul\":1404:1409   */\n      dup3\n        /* \"#utility.yul\":1401:1478   */\n      eq\n        /* \"#utility.yul\":1398:1400   */\n      iszero\n      tag_52\n      jumpi\n        /* \"#utility.yul\":1481:1499   */\n      tag_53\n      tag_54\n      jump\t// in\n    tag_53:\n        /* \"#utility.yul\":1398:1400   */\n    tag_52:\n        /* \"#utility.yul\":1528:1529   */\n      0x01\n        /* \"#utility.yul\":1521:1526   */\n      dup3\n        /* \"#utility.yul\":1517:1530   */\n      add\n        /* \"#utility.yul\":1510:1530   */\n      swap1\n      pop\n        /* \"#utility.yul\":1346:1536   */\n      swap2\n      swap1\n      pop\n      jump\t// out\n        /* \"#utility.yul\":1542:1722   */\n    tag_54:\n        /* \"#utility.yul\":1590:1667   */\n      0x4e487b7100000000000000000000000000000000000000000000000000000000\n        /* \"#utility.yul\":1587:1588   */\n      0x00\n        /* \"#utility.yul\":1580:1668   */\n      mstore\n        /* \"#utility.yul\":1687:1691   */\n      0x11\n        /* \"#utility.yul\":1684:1685   */\n      0x04\n        /* \"#utility.yul\":1677:1692   */\n      mstore\n        /* \"#utility.yul\":1711:1715   */\n      0x24\n        /* \"#utility.yul\":1708:1709   */\n      0x00\n        /* \"#utility.yul\":1701:1716   */\n      revert\n        /* \"#utility.yul\":1728:1850   */\n    tag_30:\n        /* \"#utility.yul\":1801:1825   */\n      tag_57\n        /* \"#utility.yul\":1819:1824   */\n      dup2\n        /* \"#utility.yul\":1801:1825   */\n      tag_46\n      jump\t// in\n    tag_57:\n        /* \"#utility.yul\":1794:1799   */\n      dup2\n        /* \"#utility.yul\":1791:1826   */\n      eq\n        /* \"#utility.yul\":1781:1783   */\n      tag_58\n      jumpi\n        /* \"#utility.yul\":1840:1841   */\n      0x00\n        /* \"#utility.yul\":1837:1838   */\n      dup1\n        /* \"#utility.yul\":1830:1842   */\n      revert\n        /* \"#utility.yul\":1781:1783   */\n    tag_58:\n        /* \"#utility.yul\":1771:1850   */\n      pop\n      jump\t// out\n        /* \"#utility.yul\":1856:1978   */\n    tag_34:\n        /* \"#utility.yul\":1929:1953   */\n      tag_60\n        /* \"#utility.yul\":1947:1952   */\n      dup2\n        /* \"#utility.yul\":1929:1953   */\n      tag_48\n      jump\t// in\n    tag_60:\n        /* \"#utility.yul\":1922:1927   */\n      dup2\n        /* \"#utility.yul\":1919:1954   */\n      eq\n        /* \"#utility.yul\":1909:1911   */\n      tag_61\n      jumpi\n        /* \"#utility.yul\":1968:1969   */\n      0x00\n        /* \"#utility.yul\":1965:1966   */\n      dup1\n        /* \"#utility.yul\":1958:1970   */\n      revert\n        /* \"#utility.yul\":1909:1911   */\n    tag_61:\n        /* \"#utility.yul\":1899:1978   */\n      pop\n      jump\t// out\n\n    auxdata: 0xa264697066735822122062a9d81f7205aed04bb43c5c60bd3be9740039e62ebd905b4255fa518404c95864736f6c63430008000033\n}\n",
				"bytecode": {
					"linkReferences": {},
					"object": "608060405234801561001057600080fd5b50610311806100206000396000f3fe608060405234801561001057600080fd5b50600436106100365760003560e01c80634716d27a1461003b57806360eaf1df14610057575b600080fd5b610055600480360381019061005091906101af565b610087565b005b610071600480360381019061006c91906101af565b610121565b60405161007e91906101fa565b60405180910390f35b806000800183815481106100c4577f4e487b7100000000000000000000000000000000000000000000000000000000600052603260045260246000fd5b9060005260206000200154141561011d5760006001018190806001815401808255809150506001900390600052602060002001600090919091909150556000600201600081548092919061011790610235565b91905055505b5050565b600080600001838154811061015f577f4e487b7100000000000000000000000000000000000000000000000000000000600052603260045260246000fd5b906000526020600020015482141561017a576001905061017f565b600090505b92915050565b600081359050610194816102ad565b92915050565b6000813590506101a9816102c4565b92915050565b600080604083850312156101c257600080fd5b60006101d08582860161019a565b92505060206101e185828601610185565b9150509250929050565b6101f481610215565b82525050565b600060208201905061020f60008301846101eb565b92915050565b60008115159050919050565b6000819050919050565b6000819050919050565b60006102408261022b565b91507fffffffffffffffffffffffffffffffffffffffffffffffffffffffffffffffff8214156102735761027261027e565b5b600182019050919050565b7f4e487b7100000000000000000000000000000000000000000000000000000000600052601160045260246000fd5b6102b681610221565b81146102c157600080fd5b50565b6102cd8161022b565b81146102d857600080fd5b5056fea264697066735822122062a9d81f7205aed04bb43c5c60bd3be9740039e62ebd905b4255fa518404c95864736f6c63430008000033",
					"opcodes": "PUSH1 0x80 PUSH1 0x40 MSTORE CALLVALUE DUP1 ISZERO PUSH2 0x10 JUMPI PUSH1 0x0 DUP1 REVERT JUMPDEST POP PUSH2 0x311 DUP1 PUSH2 0x20 PUSH1 0x0 CODECOPY PUSH1 0x0 RETURN INVALID PUSH1 0x80 PUSH1 0x40 MSTORE CALLVALUE DUP1 ISZERO PUSH2 0x10 JUMPI PUSH1 0x0 DUP1 REVERT JUMPDEST POP PUSH1 0x4 CALLDATASIZE LT PUSH2 0x36 JUMPI PUSH1 0x0 CALLDATALOAD PUSH1 0xE0 SHR DUP1 PUSH4 0x4716D27A EQ PUSH2 0x3B JUMPI DUP1 PUSH4 0x60EAF1DF EQ PUSH2 0x57 JUMPI JUMPDEST PUSH1 0x0 DUP1 REVERT JUMPDEST PUSH2 0x55 PUSH1 0x4 DUP1 CALLDATASIZE SUB DUP2 ADD SWAP1 PUSH2 0x50 SWAP2 SWAP1 PUSH2 0x1AF JUMP JUMPDEST PUSH2 0x87 JUMP JUMPDEST STOP JUMPDEST PUSH2 0x71 PUSH1 0x4 DUP1 CALLDATASIZE SUB DUP2 ADD SWAP1 PUSH2 0x6C SWAP2 SWAP1 PUSH2 0x1AF JUMP JUMPDEST PUSH2 0x121 JUMP JUMPDEST PUSH1 0x40 MLOAD PUSH2 0x7E SWAP2 SWAP1 PUSH2 0x1FA JUMP JUMPDEST PUSH1 0x40 MLOAD DUP1 SWAP2 SUB SWAP1 RETURN JUMPDEST DUP1 PUSH1 0x0 DUP1 ADD DUP4 DUP2 SLOAD DUP2 LT PUSH2 0xC4 JUMPI PUSH32 0x4E487B7100000000000000000000000000000000000000000000000000000000 PUSH1 0x0 MSTORE PUSH1 0x32 PUSH1 0x4 MSTORE PUSH1 0x24 PUSH1 0x0 REVERT JUMPDEST SWAP1 PUSH1 0x0 MSTORE PUSH1 0x20 PUSH1 0x0 KECCAK256 ADD SLOAD EQ ISZERO PUSH2 0x11D JUMPI PUSH1 0x0 PUSH1 0x1 ADD DUP2 SWAP1 DUP1 PUSH1 0x1 DUP2 SLOAD ADD DUP1 DUP3 SSTORE DUP1 SWAP2 POP POP PUSH1 0x1 SWAP1 SUB SWAP1 PUSH1 0x0 MSTORE PUSH1 0x20 PUSH1 0x0 KECCAK256 ADD PUSH1 0x0 SWAP1 SWAP2 SWAP1 SWAP2 SWAP1 SWAP2 POP SSTORE PUSH1 0x0 PUSH1 0x2 ADD PUSH1 0x0 DUP2 SLOAD DUP1 SWAP3 SWAP2 SWAP1 PUSH2 0x117 SWAP1 PUSH2 0x235 JUMP JUMPDEST SWAP2 SWAP1 POP SSTORE POP JUMPDEST POP POP JUMP JUMPDEST PUSH1 0x0 DUP1 PUSH1 0x0 ADD DUP4 DUP2 SLOAD DUP2 LT PUSH2 0x15F JUMPI PUSH32 0x4E487B7100000000000000000000000000000000000000000000000000000000 PUSH1 0x0 MSTORE PUSH1 0x32 PUSH1 0x4 MSTORE PUSH1 0x24 PUSH1 0x0 REVERT JUMPDEST SWAP1 PUSH1 0x0 MSTORE PUSH1 0x20 PUSH1 0x0 KECCAK256 ADD SLOAD DUP3 EQ ISZERO PUSH2 0x17A JUMPI PUSH1 0x1 SWAP1 POP PUSH2 0x17F JUMP JUMPDEST PUSH1 0x0 SWAP1 POP JUMPDEST SWAP3 SWAP2 POP POP JUMP JUMPDEST PUSH1 0x0 DUP2 CALLDATALOAD SWAP1 POP PUSH2 0x194 DUP2 PUSH2 0x2AD JUMP JUMPDEST SWAP3 SWAP2 POP POP JUMP JUMPDEST PUSH1 0x0 DUP2 CALLDATALOAD SWAP1 POP PUSH2 0x1A9 DUP2 PUSH2 0x2C4 JUMP JUMPDEST SWAP3 SWAP2 POP POP JUMP JUMPDEST PUSH1 0x0 DUP1 PUSH1 0x40 DUP4 DUP6 SUB SLT ISZERO PUSH2 0x1C2 JUMPI PUSH1 0x0 DUP1 REVERT JUMPDEST PUSH1 0x0 PUSH2 0x1D0 DUP6 DUP3 DUP7 ADD PUSH2 0x19A JUMP JUMPDEST SWAP3 POP POP PUSH1 0x20 PUSH2 0x1E1 DUP6 DUP3 DUP7 ADD PUSH2 0x185 JUMP JUMPDEST SWAP2 POP POP SWAP3 POP SWAP3 SWAP1 POP JUMP JUMPDEST PUSH2 0x1F4 DUP2 PUSH2 0x215 JUMP JUMPDEST DUP3 MSTORE POP POP JUMP JUMPDEST PUSH1 0x0 PUSH1 0x20 DUP3 ADD SWAP1 POP PUSH2 0x20F PUSH1 0x0 DUP4 ADD DUP5 PUSH2 0x1EB JUMP JUMPDEST SWAP3 SWAP2 POP POP JUMP JUMPDEST PUSH1 0x0 DUP2 ISZERO ISZERO SWAP1 POP SWAP2 SWAP1 POP JUMP JUMPDEST PUSH1 0x0 DUP2 SWAP1 POP SWAP2 SWAP1 POP JUMP JUMPDEST PUSH1 0x0 DUP2 SWAP1 POP SWAP2 SWAP1 POP JUMP JUMPDEST PUSH1 0x0 PUSH2 0x240 DUP3 PUSH2 0x22B JUMP JUMPDEST SWAP2 POP PUSH32 0xFFFFFFFFFFFFFFFFFFFFFFFFFFFFFFFFFFFFFFFFFFFFFFFFFFFFFFFFFFFFFFFF DUP3 EQ ISZERO PUSH2 0x273 JUMPI PUSH2 0x272 PUSH2 0x27E JUMP JUMPDEST JUMPDEST PUSH1 0x1 DUP3 ADD SWAP1 POP SWAP2 SWAP1 POP JUMP JUMPDEST PUSH32 0x4E487B7100000000000000000000000000000000000000000000000000000000 PUSH1 0x0 MSTORE PUSH1 0x11 PUSH1 0x4 MSTORE PUSH1 0x24 PUSH1 0x0 REVERT JUMPDEST PUSH2 0x2B6 DUP2 PUSH2 0x221 JUMP JUMPDEST DUP2 EQ PUSH2 0x2C1 JUMPI PUSH1 0x0 DUP1 REVERT JUMPDEST POP JUMP JUMPDEST PUSH2 0x2CD DUP2 PUSH2 0x22B JUMP JUMPDEST DUP2 EQ PUSH2 0x2D8 JUMPI PUSH1 0x0 DUP1 REVERT JUMPDEST POP JUMP INVALID LOG2 PUSH5 0x6970667358 0x22 SLT KECCAK256 PUSH3 0xA9D81F PUSH19 0x5AED04BB43C5C60BD3BE9740039E62EBD905B TIMESTAMP SSTORE STATICCALL MLOAD DUP5 DIV 0xC9 PC PUSH5 0x736F6C6343 STOP ADDMOD STOP STOP CALLER "
				},
				"gasEstimates": {
					"creation": {
						"codeDepositCost": "157000",
						"executionCost": "202",
						"totalCost": "157202"
					},
					"external": {
						"checkSerial(uint256,bytes32)": "2504",
						"regWarranty(uint256,bytes32)": "infinite"
					},
					"internal": {
						"bytes32ToString(bytes32)": "infinite",
						"setProduct(string memory)": "infinite"
					}
				},
				"methodIdentifiers": {
					"checkSerial(uint256,bytes32)": "60eaf1df",
					"regWarranty(uint256,bytes32)": "4716d27a"
				}
			},
			"storageLayout": {
				"storage": [
					{
						"astId": 13,
						"contract": "contracts/Production.sol:Production",
						"label": "product",
						"offset": 0,
						"slot": "0",
						"type": "t_struct(Product)10_storage"
					}
				],
				"types": {
					"t_array(t_bytes32)dyn_storage": {
						"base": "t_bytes32",
						"encoding": "dynamic_array",
						"label": "bytes32[]",
						"numberOfBytes": "32"
					},
					"t_bytes32": {
						"encoding": "inplace",
						"label": "bytes32",
						"numberOfBytes": "32"
					},
					"t_struct(Product)10_storage": {
						"encoding": "inplace",
						"label": "struct Production.Product",
						"members": [
							{
								"astId": 4,
								"contract": "contracts/Production.sol:Production",
								"label": "serialNo",
								"offset": 0,
								"slot": "0",
								"type": "t_array(t_bytes32)dyn_storage"
							},
							{
								"astId": 7,
								"contract": "contracts/Production.sol:Production",
								"label": "registered",
								"offset": 0,
								"slot": "1",
								"type": "t_array(t_bytes32)dyn_storage"
							},
							{
								"astId": 9,
								"contract": "contracts/Production.sol:Production",
								"label": "regNo",
								"offset": 0,
								"slot": "2",
								"type": "t_uint256"
							}
						],
						"numberOfBytes": "96"
					},
					"t_uint256": {
						"encoding": "inplace",
						"label": "uint256",
						"numberOfBytes": "32"
					}
				}
			},
			"userdoc": {
				"kind": "user",
				"methods": {},
				"version": 1
			}
		}
	}
}