{
	"contracts/Production.sol": {
		"Production": {
			"abi": [
				{
					"inputs": [
						{
							"internalType": "uint256",
							"name": "n",
							"type": "uint256"
						}
					],
					"name": "checkSerial",
					"outputs": [
						{
							"internalType": "bool",
							"name": "",
							"type": "bool"
						}
					],
					"stateMutability": "view",
					"type": "function"
				},
				{
					"inputs": [],
					"name": "launch",
					"outputs": [],
					"stateMutability": "nonpayable",
					"type": "function"
				},
				{
					"inputs": [
						{
							"internalType": "uint256",
							"name": "Num",
							"type": "uint256"
						},
						{
							"internalType": "bytes32",
							"name": "regSer",
							"type": "bytes32"
						}
					],
					"name": "regWarranty",
					"outputs": [],
					"stateMutability": "nonpayable",
					"type": "function"
				}
			],
			"devdoc": {
				"kind": "dev",
				"methods": {},
				"version": 1
			},
			"evm": {
				"assembly": "    /* \"contracts/Production.sol\":67:1544  contract Production {\r... */\n  mstore(0x40, 0x80)\n  callvalue\n  dup1\n  iszero\n  tag_1\n  jumpi\n  0x00\n  dup1\n  revert\ntag_1:\n  pop\n  dataSize(sub_0)\n  dup1\n  dataOffset(sub_0)\n  0x00\n  codecopy\n  0x00\n  return\nstop\n\nsub_0: assembly {\n        /* \"contracts/Production.sol\":67:1544  contract Production {\r... */\n      mstore(0x40, 0x80)\n      callvalue\n      dup1\n      iszero\n      tag_1\n      jumpi\n      0x00\n      dup1\n      revert\n    tag_1:\n      pop\n      jumpi(tag_2, lt(calldatasize, 0x04))\n      shr(0xe0, calldataload(0x00))\n      dup1\n      0x01339c21\n      eq\n      tag_3\n      jumpi\n      dup1\n      0x4716d27a\n      eq\n      tag_4\n      jumpi\n      dup1\n      0x55f0252a\n      eq\n      tag_5\n      jumpi\n    tag_2:\n      0x00\n      dup1\n      revert\n        /* \"contracts/Production.sol\":566:714  function launch() public {\r... */\n    tag_3:\n      tag_6\n      tag_7\n      jump\t// in\n    tag_6:\n      stop\n        /* \"contracts/Production.sol\":1344:1541  function regWarranty(uint Num, bytes32 regSer) public {\r... */\n    tag_4:\n      tag_8\n      0x04\n      dup1\n      calldatasize\n      sub\n      dup2\n      add\n      swap1\n      tag_9\n      swap2\n      swap1\n      tag_10\n      jump\t// in\n    tag_9:\n      tag_11\n      jump\t// in\n    tag_8:\n      stop\n        /* \"contracts/Production.sol\":726:950  function checkSerial(uint n) public view returns(bool) {\r... */\n    tag_5:\n      tag_12\n      0x04\n      dup1\n      calldatasize\n      sub\n      dup2\n      add\n      swap1\n      tag_13\n      swap2\n      swap1\n      tag_14\n      jump\t// in\n    tag_13:\n      tag_15\n      jump\t// in\n    tag_12:\n      mload(0x40)\n      tag_16\n      swap2\n      swap1\n      tag_17\n      jump\t// in\n    tag_16:\n      mload(0x40)\n      dup1\n      swap2\n      sub\n      swap1\n      return\n        /* \"contracts/Production.sol\":566:714  function launch() public {\r... */\n    tag_7:\n        /* \"contracts/Production.sol\":602:621  string memory first */\n      0x00\n        /* \"contracts/Production.sol\":602:676  string memory first = \"generate serial numbers for first product of brand\" */\n      mload(0x40)\n      dup1\n      0x60\n      add\n      0x40\n      mstore\n      dup1\n      0x32\n      dup2\n      mstore\n      0x20\n      add\n      data_5a19d642633a91c31f85d0822c26e95135627dc5a097ba962429fa73088e57ec\n      0x32\n      swap2\n      codecopy\n      swap1\n      pop\n        /* \"contracts/Production.sol\":687:704  setProduct(first) */\n      tag_19\n        /* \"contracts/Production.sol\":698:703  first */\n      dup2\n        /* \"contracts/Production.sol\":687:697  setProduct */\n      tag_20\n        /* \"contracts/Production.sol\":687:704  setProduct(first) */\n      jump\t// in\n    tag_19:\n        /* \"contracts/Production.sol\":566:714  function launch() public {\r... */\n      pop\n      jump\t// out\n        /* \"contracts/Production.sol\":1344:1541  function regWarranty(uint Num, bytes32 regSer) public {\r... */\n    tag_11:\n        /* \"contracts/Production.sol\":1438:1444  regSer */\n      dup1\n        /* \"contracts/Production.sol\":1413:1420  product */\n      0x00\n        /* \"contracts/Production.sol\":1413:1429  product.serialNo */\n      dup1\n      add\n        /* \"contracts/Production.sol\":1430:1433  Num */\n      dup4\n        /* \"contracts/Production.sol\":1413:1434  product.serialNo[Num] */\n      dup2\n      sload\n      dup2\n      lt\n      tag_22\n      jumpi\n      mstore(0x00, 0x4e487b7100000000000000000000000000000000000000000000000000000000)\n      mstore(0x04, 0x32)\n      revert(0x00, 0x24)\n    tag_22:\n      swap1\n      0x00\n      mstore\n      keccak256(0x00, 0x20)\n      add\n      sload\n        /* \"contracts/Production.sol\":1413:1444  product.serialNo[Num] == regSer */\n      eq\n        /* \"contracts/Production.sol\":1409:1534  if (product.serialNo[Num] == regSer) {\r... */\n      iszero\n      tag_24\n      jumpi\n        /* \"contracts/Production.sol\":1461:1468  product */\n      0x00\n        /* \"contracts/Production.sol\":1461:1479  product.registered */\n      0x01\n      add\n        /* \"contracts/Production.sol\":1485:1491  regSer */\n      dup2\n        /* \"contracts/Production.sol\":1461:1492  product.registered.push(regSer) */\n      swap1\n      dup1\n      0x01\n      dup2\n      sload\n      add\n      dup1\n      dup3\n      sstore\n      dup1\n      swap2\n      pop\n      pop\n      0x01\n      swap1\n      sub\n      swap1\n      0x00\n      mstore\n      keccak256(0x00, 0x20)\n      add\n      0x00\n      swap1\n      swap2\n      swap1\n      swap2\n      swap1\n      swap2\n      pop\n      sstore\n        /* \"contracts/Production.sol\":1507:1514  product */\n      0x00\n        /* \"contracts/Production.sol\":1507:1520  product.regNo */\n      0x02\n      add\n      0x00\n        /* \"contracts/Production.sol\":1507:1522  product.regNo++ */\n      dup2\n      sload\n      dup1\n      swap3\n      swap2\n      swap1\n      tag_26\n      swap1\n      tag_27\n      jump\t// in\n    tag_26:\n      swap2\n      swap1\n      pop\n      sstore\n      pop\n        /* \"contracts/Production.sol\":1409:1534  if (product.serialNo[Num] == regSer) {\r... */\n    tag_24:\n        /* \"contracts/Production.sol\":1344:1541  function regWarranty(uint Num, bytes32 regSer) public {\r... */\n      pop\n      pop\n      jump\t// out\n        /* \"contracts/Production.sol\":726:950  function checkSerial(uint n) public view returns(bool) {\r... */\n    tag_15:\n        /* \"contracts/Production.sol\":775:779  bool */\n      0x00\n        /* \"contracts/Production.sol\":938:942  true */\n      0x01\n        /* \"contracts/Production.sol\":931:942  return true */\n      swap1\n      pop\n        /* \"contracts/Production.sol\":726:950  function checkSerial(uint n) public view returns(bool) {\r... */\n      swap2\n      swap1\n      pop\n      jump\t// out\n        /* \"contracts/Production.sol\":233:558  function setProduct(string memory a) private {\r... */\n    tag_20:\n        /* \"contracts/Production.sol\":289:301  bytes32 hash */\n      0x00\n        /* \"contracts/Production.sol\":331:332  a */\n      dup2\n        /* \"contracts/Production.sol\":314:333  abi.encodePacked(a) */\n      add(0x20, mload(0x40))\n      tag_30\n      swap2\n      swap1\n      tag_31\n      jump\t// in\n    tag_30:\n      mload(0x40)\n      0x20\n      dup2\n      dup4\n      sub\n      sub\n      dup2\n      mstore\n      swap1\n      0x40\n      mstore\n        /* \"contracts/Production.sol\":304:334  keccak256(abi.encodePacked(a)) */\n      dup1\n      mload\n      swap1\n      0x20\n      add\n      keccak256\n        /* \"contracts/Production.sol\":289:334  bytes32 hash = keccak256(abi.encodePacked(a)) */\n      swap1\n      pop\n        /* \"contracts/Production.sol\":345:352  product */\n      0x00\n        /* \"contracts/Production.sol\":345:361  product.serialNo */\n      dup1\n      add\n        /* \"contracts/Production.sol\":367:371  hash */\n      dup2\n        /* \"contracts/Production.sol\":345:372  product.serialNo.push(hash) */\n      swap1\n      dup1\n      0x01\n      dup2\n      sload\n      add\n      dup1\n      dup3\n      sstore\n      dup1\n      swap2\n      pop\n      pop\n      0x01\n      swap1\n      sub\n      swap1\n      0x00\n      mstore\n      keccak256(0x00, 0x20)\n      add\n      0x00\n      swap1\n      swap2\n      swap1\n      swap2\n      swap1\n      swap2\n      pop\n      sstore\n        /* \"contracts/Production.sol\":390:396  uint i */\n      0x00\n        /* \"contracts/Production.sol\":399:400  1 */\n      0x01\n        /* \"contracts/Production.sol\":390:400  uint i = 1 */\n      swap1\n      pop\n        /* \"contracts/Production.sol\":385:551  for (uint i = 1; i<10; i++) {\r... */\n    tag_33:\n        /* \"contracts/Production.sol\":404:406  10 */\n      0x0a\n        /* \"contracts/Production.sol\":402:403  i */\n      dup2\n        /* \"contracts/Production.sol\":402:406  i<10 */\n      lt\n        /* \"contracts/Production.sol\":385:551  for (uint i = 1; i<10; i++) {\r... */\n      iszero\n      tag_34\n      jumpi\n        /* \"contracts/Production.sol\":428:442  bytes32 serial */\n      0x00\n        /* \"contracts/Production.sol\":472:479  product */\n      dup1\n        /* \"contracts/Production.sol\":472:488  product.serialNo */\n      0x00\n      add\n        /* \"contracts/Production.sol\":491:492  1 */\n      0x01\n        /* \"contracts/Production.sol\":489:490  i */\n      dup4\n        /* \"contracts/Production.sol\":489:492  i-1 */\n      tag_36\n      swap2\n      swap1\n      tag_37\n      jump\t// in\n    tag_36:\n        /* \"contracts/Production.sol\":472:493  product.serialNo[i-1] */\n      dup2\n      sload\n      dup2\n      lt\n      tag_38\n      jumpi\n      mstore(0x00, 0x4e487b7100000000000000000000000000000000000000000000000000000000)\n      mstore(0x04, 0x32)\n      revert(0x00, 0x24)\n    tag_38:\n      swap1\n      0x00\n      mstore\n      keccak256(0x00, 0x20)\n      add\n      sload\n        /* \"contracts/Production.sol\":455:494  abi.encodePacked(product.serialNo[i-1]) */\n      add(0x20, mload(0x40))\n      tag_40\n      swap2\n      swap1\n      tag_41\n      jump\t// in\n    tag_40:\n      mload(0x40)\n      0x20\n      dup2\n      dup4\n      sub\n      sub\n      dup2\n      mstore\n      swap1\n      0x40\n      mstore\n        /* \"contracts/Production.sol\":445:495  keccak256(abi.encodePacked(product.serialNo[i-1])) */\n      dup1\n      mload\n      swap1\n      0x20\n      add\n      keccak256\n        /* \"contracts/Production.sol\":428:495  bytes32 serial = keccak256(abi.encodePacked(product.serialNo[i-1])) */\n      swap1\n      pop\n        /* \"contracts/Production.sol\":510:517  product */\n      0x00\n        /* \"contracts/Production.sol\":510:526  product.serialNo */\n      dup1\n      add\n        /* \"contracts/Production.sol\":532:538  serial */\n      dup2\n        /* \"contracts/Production.sol\":510:539  product.serialNo.push(serial) */\n      swap1\n      dup1\n      0x01\n      dup2\n      sload\n      add\n      dup1\n      dup3\n      sstore\n      dup1\n      swap2\n      pop\n      pop\n      0x01\n      swap1\n      sub\n      swap1\n      0x00\n      mstore\n      keccak256(0x00, 0x20)\n      add\n      0x00\n      swap1\n      swap2\n      swap1\n      swap2\n      swap1\n      swap2\n      pop\n      sstore\n        /* \"contracts/Production.sol\":385:551  for (uint i = 1; i<10; i++) {\r... */\n      pop\n        /* \"contracts/Production.sol\":408:411  i++ */\n      dup1\n      dup1\n      tag_43\n      swap1\n      tag_27\n      jump\t// in\n    tag_43:\n      swap2\n      pop\n      pop\n        /* \"contracts/Production.sol\":385:551  for (uint i = 1; i<10; i++) {\r... */\n      jump(tag_33)\n    tag_34:\n      pop\n        /* \"contracts/Production.sol\":233:558  function setProduct(string memory a) private {\r... */\n      pop\n      pop\n      jump\t// out\n        /* \"#utility.yul\":7:146   */\n    tag_45:\n      0x00\n        /* \"#utility.yul\":91:97   */\n      dup2\n        /* \"#utility.yul\":78:98   */\n      calldataload\n        /* \"#utility.yul\":69:98   */\n      swap1\n      pop\n        /* \"#utility.yul\":107:140   */\n      tag_47\n        /* \"#utility.yul\":134:139   */\n      dup2\n        /* \"#utility.yul\":107:140   */\n      tag_48\n      jump\t// in\n    tag_47:\n        /* \"#utility.yul\":59:146   */\n      swap3\n      swap2\n      pop\n      pop\n      jump\t// out\n        /* \"#utility.yul\":152:291   */\n    tag_49:\n      0x00\n        /* \"#utility.yul\":236:242   */\n      dup2\n        /* \"#utility.yul\":223:243   */\n      calldataload\n        /* \"#utility.yul\":214:243   */\n      swap1\n      pop\n        /* \"#utility.yul\":252:285   */\n      tag_51\n        /* \"#utility.yul\":279:284   */\n      dup2\n        /* \"#utility.yul\":252:285   */\n      tag_52\n      jump\t// in\n    tag_51:\n        /* \"#utility.yul\":204:291   */\n      swap3\n      swap2\n      pop\n      pop\n      jump\t// out\n        /* \"#utility.yul\":297:559   */\n    tag_14:\n      0x00\n        /* \"#utility.yul\":405:407   */\n      0x20\n        /* \"#utility.yul\":393:402   */\n      dup3\n        /* \"#utility.yul\":384:391   */\n      dup5\n        /* \"#utility.yul\":380:403   */\n      sub\n        /* \"#utility.yul\":376:408   */\n      slt\n        /* \"#utility.yul\":373:375   */\n      iszero\n      tag_54\n      jumpi\n        /* \"#utility.yul\":421:422   */\n      0x00\n        /* \"#utility.yul\":418:419   */\n      dup1\n        /* \"#utility.yul\":411:423   */\n      revert\n        /* \"#utility.yul\":373:375   */\n    tag_54:\n        /* \"#utility.yul\":464:465   */\n      0x00\n        /* \"#utility.yul\":489:542   */\n      tag_55\n        /* \"#utility.yul\":534:541   */\n      dup5\n        /* \"#utility.yul\":525:531   */\n      dup3\n        /* \"#utility.yul\":514:523   */\n      dup6\n        /* \"#utility.yul\":510:532   */\n      add\n        /* \"#utility.yul\":489:542   */\n      tag_49\n      jump\t// in\n    tag_55:\n        /* \"#utility.yul\":479:542   */\n      swap2\n      pop\n        /* \"#utility.yul\":435:552   */\n      pop\n        /* \"#utility.yul\":363:559   */\n      swap3\n      swap2\n      pop\n      pop\n      jump\t// out\n        /* \"#utility.yul\":565:972   */\n    tag_10:\n      0x00\n      dup1\n        /* \"#utility.yul\":690:692   */\n      0x40\n        /* \"#utility.yul\":678:687   */\n      dup4\n        /* \"#utility.yul\":669:676   */\n      dup6\n        /* \"#utility.yul\":665:688   */\n      sub\n        /* \"#utility.yul\":661:693   */\n      slt\n        /* \"#utility.yul\":658:660   */\n      iszero\n      tag_57\n      jumpi\n        /* \"#utility.yul\":706:707   */\n      0x00\n        /* \"#utility.yul\":703:704   */\n      dup1\n        /* \"#utility.yul\":696:708   */\n      revert\n        /* \"#utility.yul\":658:660   */\n    tag_57:\n        /* \"#utility.yul\":749:750   */\n      0x00\n        /* \"#utility.yul\":774:827   */\n      tag_58\n        /* \"#utility.yul\":819:826   */\n      dup6\n        /* \"#utility.yul\":810:816   */\n      dup3\n        /* \"#utility.yul\":799:808   */\n      dup7\n        /* \"#utility.yul\":795:817   */\n      add\n        /* \"#utility.yul\":774:827   */\n      tag_49\n      jump\t// in\n    tag_58:\n        /* \"#utility.yul\":764:827   */\n      swap3\n      pop\n        /* \"#utility.yul\":720:837   */\n      pop\n        /* \"#utility.yul\":876:878   */\n      0x20\n        /* \"#utility.yul\":902:955   */\n      tag_59\n        /* \"#utility.yul\":947:954   */\n      dup6\n        /* \"#utility.yul\":938:944   */\n      dup3\n        /* \"#utility.yul\":927:936   */\n      dup7\n        /* \"#utility.yul\":923:945   */\n      add\n        /* \"#utility.yul\":902:955   */\n      tag_45\n      jump\t// in\n    tag_59:\n        /* \"#utility.yul\":892:955   */\n      swap2\n      pop\n        /* \"#utility.yul\":847:965   */\n      pop\n        /* \"#utility.yul\":648:972   */\n      swap3\n      pop\n      swap3\n      swap1\n      pop\n      jump\t// out\n        /* \"#utility.yul\":978:1087   */\n    tag_60:\n        /* \"#utility.yul\":1059:1080   */\n      tag_62\n        /* \"#utility.yul\":1074:1079   */\n      dup2\n        /* \"#utility.yul\":1059:1080   */\n      tag_63\n      jump\t// in\n    tag_62:\n        /* \"#utility.yul\":1054:1057   */\n      dup3\n        /* \"#utility.yul\":1047:1081   */\n      mstore\n        /* \"#utility.yul\":1037:1087   */\n      pop\n      pop\n      jump\t// out\n        /* \"#utility.yul\":1093:1250   */\n    tag_64:\n        /* \"#utility.yul\":1198:1243   */\n      tag_66\n        /* \"#utility.yul\":1218:1242   */\n      tag_67\n        /* \"#utility.yul\":1236:1241   */\n      dup3\n        /* \"#utility.yul\":1218:1242   */\n      tag_68\n      jump\t// in\n    tag_67:\n        /* \"#utility.yul\":1198:1243   */\n      tag_69\n      jump\t// in\n    tag_66:\n        /* \"#utility.yul\":1193:1196   */\n      dup3\n        /* \"#utility.yul\":1186:1244   */\n      mstore\n        /* \"#utility.yul\":1176:1250   */\n      pop\n      pop\n      jump\t// out\n        /* \"#utility.yul\":1256:1633   */\n    tag_70:\n      0x00\n        /* \"#utility.yul\":1390:1429   */\n      tag_72\n        /* \"#utility.yul\":1423:1428   */\n      dup3\n        /* \"#utility.yul\":1390:1429   */\n      tag_73\n      jump\t// in\n    tag_72:\n        /* \"#utility.yul\":1445:1534   */\n      tag_74\n        /* \"#utility.yul\":1527:1533   */\n      dup2\n        /* \"#utility.yul\":1522:1525   */\n      dup6\n        /* \"#utility.yul\":1445:1534   */\n      tag_75\n      jump\t// in\n    tag_74:\n        /* \"#utility.yul\":1438:1534   */\n      swap4\n      pop\n        /* \"#utility.yul\":1543:1595   */\n      tag_76\n        /* \"#utility.yul\":1588:1594   */\n      dup2\n        /* \"#utility.yul\":1583:1586   */\n      dup6\n        /* \"#utility.yul\":1576:1580   */\n      0x20\n        /* \"#utility.yul\":1569:1574   */\n      dup7\n        /* \"#utility.yul\":1565:1581   */\n      add\n        /* \"#utility.yul\":1543:1595   */\n      tag_77\n      jump\t// in\n    tag_76:\n        /* \"#utility.yul\":1620:1626   */\n      dup1\n        /* \"#utility.yul\":1615:1618   */\n      dup5\n        /* \"#utility.yul\":1611:1627   */\n      add\n        /* \"#utility.yul\":1604:1627   */\n      swap2\n      pop\n        /* \"#utility.yul\":1366:1633   */\n      pop\n      swap3\n      swap2\n      pop\n      pop\n      jump\t// out\n        /* \"#utility.yul\":1639:1895   */\n    tag_41:\n      0x00\n        /* \"#utility.yul\":1766:1841   */\n      tag_79\n        /* \"#utility.yul\":1837:1840   */\n      dup3\n        /* \"#utility.yul\":1828:1834   */\n      dup5\n        /* \"#utility.yul\":1766:1841   */\n      tag_64\n      jump\t// in\n    tag_79:\n        /* \"#utility.yul\":1866:1868   */\n      0x20\n        /* \"#utility.yul\":1861:1864   */\n      dup3\n        /* \"#utility.yul\":1857:1869   */\n      add\n        /* \"#utility.yul\":1850:1869   */\n      swap2\n      pop\n        /* \"#utility.yul\":1886:1889   */\n      dup2\n        /* \"#utility.yul\":1879:1889   */\n      swap1\n      pop\n        /* \"#utility.yul\":1755:1895   */\n      swap3\n      swap2\n      pop\n      pop\n      jump\t// out\n        /* \"#utility.yul\":1901:2176   */\n    tag_31:\n      0x00\n        /* \"#utility.yul\":2055:2150   */\n      tag_81\n        /* \"#utility.yul\":2146:2149   */\n      dup3\n        /* \"#utility.yul\":2137:2143   */\n      dup5\n        /* \"#utility.yul\":2055:2150   */\n      tag_70\n      jump\t// in\n    tag_81:\n        /* \"#utility.yul\":2048:2150   */\n      swap2\n      pop\n        /* \"#utility.yul\":2167:2170   */\n      dup2\n        /* \"#utility.yul\":2160:2170   */\n      swap1\n      pop\n        /* \"#utility.yul\":2037:2176   */\n      swap3\n      swap2\n      pop\n      pop\n      jump\t// out\n        /* \"#utility.yul\":2182:2392   */\n    tag_17:\n      0x00\n        /* \"#utility.yul\":2307:2309   */\n      0x20\n        /* \"#utility.yul\":2296:2305   */\n      dup3\n        /* \"#utility.yul\":2292:2310   */\n      add\n        /* \"#utility.yul\":2284:2310   */\n      swap1\n      pop\n        /* \"#utility.yul\":2320:2385   */\n      tag_83\n        /* \"#utility.yul\":2382:2383   */\n      0x00\n        /* \"#utility.yul\":2371:2380   */\n      dup4\n        /* \"#utility.yul\":2367:2384   */\n      add\n        /* \"#utility.yul\":2358:2364   */\n      dup5\n        /* \"#utility.yul\":2320:2385   */\n      tag_60\n      jump\t// in\n    tag_83:\n        /* \"#utility.yul\":2274:2392   */\n      swap3\n      swap2\n      pop\n      pop\n      jump\t// out\n        /* \"#utility.yul\":2398:2497   */\n    tag_73:\n      0x00\n        /* \"#utility.yul\":2484:2489   */\n      dup2\n        /* \"#utility.yul\":2478:2490   */\n      mload\n        /* \"#utility.yul\":2468:2490   */\n      swap1\n      pop\n        /* \"#utility.yul\":2457:2497   */\n      swap2\n      swap1\n      pop\n      jump\t// out\n        /* \"#utility.yul\":2503:2651   */\n    tag_75:\n      0x00\n        /* \"#utility.yul\":2642:2645   */\n      dup2\n        /* \"#utility.yul\":2627:2645   */\n      swap1\n      pop\n        /* \"#utility.yul\":2617:2651   */\n      swap3\n      swap2\n      pop\n      pop\n      jump\t// out\n        /* \"#utility.yul\":2657:2848   */\n    tag_37:\n      0x00\n        /* \"#utility.yul\":2717:2737   */\n      tag_87\n        /* \"#utility.yul\":2735:2736   */\n      dup3\n        /* \"#utility.yul\":2717:2737   */\n      tag_88\n      jump\t// in\n    tag_87:\n        /* \"#utility.yul\":2712:2737   */\n      swap2\n      pop\n        /* \"#utility.yul\":2751:2771   */\n      tag_89\n        /* \"#utility.yul\":2769:2770   */\n      dup4\n        /* \"#utility.yul\":2751:2771   */\n      tag_88\n      jump\t// in\n    tag_89:\n        /* \"#utility.yul\":2746:2771   */\n      swap3\n      pop\n        /* \"#utility.yul\":2790:2791   */\n      dup3\n        /* \"#utility.yul\":2787:2788   */\n      dup3\n        /* \"#utility.yul\":2784:2792   */\n      lt\n        /* \"#utility.yul\":2781:2783   */\n      iszero\n      tag_90\n      jumpi\n        /* \"#utility.yul\":2795:2813   */\n      tag_91\n      tag_92\n      jump\t// in\n    tag_91:\n        /* \"#utility.yul\":2781:2783   */\n    tag_90:\n        /* \"#utility.yul\":2840:2841   */\n      dup3\n        /* \"#utility.yul\":2837:2838   */\n      dup3\n        /* \"#utility.yul\":2833:2842   */\n      sub\n        /* \"#utility.yul\":2825:2842   */\n      swap1\n      pop\n        /* \"#utility.yul\":2702:2848   */\n      swap3\n      swap2\n      pop\n      pop\n      jump\t// out\n        /* \"#utility.yul\":2854:2944   */\n    tag_63:\n      0x00\n        /* \"#utility.yul\":2931:2936   */\n      dup2\n        /* \"#utility.yul\":2924:2937   */\n      iszero\n        /* \"#utility.yul\":2917:2938   */\n      iszero\n        /* \"#utility.yul\":2906:2938   */\n      swap1\n      pop\n        /* \"#utility.yul\":2896:2944   */\n      swap2\n      swap1\n      pop\n      jump\t// out\n        /* \"#utility.yul\":2950:3027   */\n    tag_68:\n      0x00\n        /* \"#utility.yul\":3016:3021   */\n      dup2\n        /* \"#utility.yul\":3005:3021   */\n      swap1\n      pop\n        /* \"#utility.yul\":2995:3027   */\n      swap2\n      swap1\n      pop\n      jump\t// out\n        /* \"#utility.yul\":3033:3110   */\n    tag_88:\n      0x00\n        /* \"#utility.yul\":3099:3104   */\n      dup2\n        /* \"#utility.yul\":3088:3104   */\n      swap1\n      pop\n        /* \"#utility.yul\":3078:3110   */\n      swap2\n      swap1\n      pop\n      jump\t// out\n        /* \"#utility.yul\":3116:3423   */\n    tag_77:\n        /* \"#utility.yul\":3184:3185   */\n      0x00\n        /* \"#utility.yul\":3194:3307   */\n    tag_97:\n        /* \"#utility.yul\":3208:3214   */\n      dup4\n        /* \"#utility.yul\":3205:3206   */\n      dup2\n        /* \"#utility.yul\":3202:3215   */\n      lt\n        /* \"#utility.yul\":3194:3307   */\n      iszero\n      tag_99\n      jumpi\n        /* \"#utility.yul\":3293:3294   */\n      dup1\n        /* \"#utility.yul\":3288:3291   */\n      dup3\n        /* \"#utility.yul\":3284:3295   */\n      add\n        /* \"#utility.yul\":3278:3296   */\n      mload\n        /* \"#utility.yul\":3274:3275   */\n      dup2\n        /* \"#utility.yul\":3269:3272   */\n      dup5\n        /* \"#utility.yul\":3265:3276   */\n      add\n        /* \"#utility.yul\":3258:3297   */\n      mstore\n        /* \"#utility.yul\":3230:3232   */\n      0x20\n        /* \"#utility.yul\":3227:3228   */\n      dup2\n        /* \"#utility.yul\":3223:3233   */\n      add\n        /* \"#utility.yul\":3218:3233   */\n      swap1\n      pop\n        /* \"#utility.yul\":3194:3307   */\n      jump(tag_97)\n    tag_99:\n        /* \"#utility.yul\":3325:3331   */\n      dup4\n        /* \"#utility.yul\":3322:3323   */\n      dup2\n        /* \"#utility.yul\":3319:3332   */\n      gt\n        /* \"#utility.yul\":3316:3318   */\n      iszero\n      tag_100\n      jumpi\n        /* \"#utility.yul\":3405:3406   */\n      0x00\n        /* \"#utility.yul\":3396:3402   */\n      dup5\n        /* \"#utility.yul\":3391:3394   */\n      dup5\n        /* \"#utility.yul\":3387:3403   */\n      add\n        /* \"#utility.yul\":3380:3407   */\n      mstore\n        /* \"#utility.yul\":3316:3318   */\n    tag_100:\n        /* \"#utility.yul\":3165:3423   */\n      pop\n      pop\n      pop\n      pop\n      jump\t// out\n        /* \"#utility.yul\":3429:3662   */\n    tag_27:\n      0x00\n        /* \"#utility.yul\":3491:3515   */\n      tag_102\n        /* \"#utility.yul\":3509:3514   */\n      dup3\n        /* \"#utility.yul\":3491:3515   */\n      tag_88\n      jump\t// in\n    tag_102:\n        /* \"#utility.yul\":3482:3515   */\n      swap2\n      pop\n        /* \"#utility.yul\":3537:3603   */\n      0xffffffffffffffffffffffffffffffffffffffffffffffffffffffffffffffff\n        /* \"#utility.yul\":3530:3535   */\n      dup3\n        /* \"#utility.yul\":3527:3604   */\n      eq\n        /* \"#utility.yul\":3524:3526   */\n      iszero\n      tag_103\n      jumpi\n        /* \"#utility.yul\":3607:3625   */\n      tag_104\n      tag_92\n      jump\t// in\n    tag_104:\n        /* \"#utility.yul\":3524:3526   */\n    tag_103:\n        /* \"#utility.yul\":3654:3655   */\n      0x01\n        /* \"#utility.yul\":3647:3652   */\n      dup3\n        /* \"#utility.yul\":3643:3656   */\n      add\n        /* \"#utility.yul\":3636:3656   */\n      swap1\n      pop\n        /* \"#utility.yul\":3472:3662   */\n      swap2\n      swap1\n      pop\n      jump\t// out\n        /* \"#utility.yul\":3668:3747   */\n    tag_69:\n      0x00\n        /* \"#utility.yul\":3736:3741   */\n      dup2\n        /* \"#utility.yul\":3725:3741   */\n      swap1\n      pop\n        /* \"#utility.yul\":3715:3747   */\n      swap2\n      swap1\n      pop\n      jump\t// out\n        /* \"#utility.yul\":3753:3933   */\n    tag_92:\n        /* \"#utility.yul\":3801:3878   */\n      0x4e487b7100000000000000000000000000000000000000000000000000000000\n        /* \"#utility.yul\":3798:3799   */\n      0x00\n        /* \"#utility.yul\":3791:3879   */\n      mstore\n        /* \"#utility.yul\":3898:3902   */\n      0x11\n        /* \"#utility.yul\":3895:3896   */\n      0x04\n        /* \"#utility.yul\":3888:3903   */\n      mstore\n        /* \"#utility.yul\":3922:3926   */\n      0x24\n        /* \"#utility.yul\":3919:3920   */\n      0x00\n        /* \"#utility.yul\":3912:3927   */\n      revert\n        /* \"#utility.yul\":3939:4061   */\n    tag_48:\n        /* \"#utility.yul\":4012:4036   */\n      tag_108\n        /* \"#utility.yul\":4030:4035   */\n      dup2\n        /* \"#utility.yul\":4012:4036   */\n      tag_68\n      jump\t// in\n    tag_108:\n        /* \"#utility.yul\":4005:4010   */\n      dup2\n        /* \"#utility.yul\":4002:4037   */\n      eq\n        /* \"#utility.yul\":3992:3994   */\n      tag_109\n      jumpi\n        /* \"#utility.yul\":4051:4052   */\n      0x00\n        /* \"#utility.yul\":4048:4049   */\n      dup1\n        /* \"#utility.yul\":4041:4053   */\n      revert\n        /* \"#utility.yul\":3992:3994   */\n    tag_109:\n        /* \"#utility.yul\":3982:4061   */\n      pop\n      jump\t// out\n        /* \"#utility.yul\":4067:4189   */\n    tag_52:\n        /* \"#utility.yul\":4140:4164   */\n      tag_111\n        /* \"#utility.yul\":4158:4163   */\n      dup2\n        /* \"#utility.yul\":4140:4164   */\n      tag_88\n      jump\t// in\n    tag_111:\n        /* \"#utility.yul\":4133:4138   */\n      dup2\n        /* \"#utility.yul\":4130:4165   */\n      eq\n        /* \"#utility.yul\":4120:4122   */\n      tag_112\n      jumpi\n        /* \"#utility.yul\":4179:4180   */\n      0x00\n        /* \"#utility.yul\":4176:4177   */\n      dup1\n        /* \"#utility.yul\":4169:4181   */\n      revert\n        /* \"#utility.yul\":4120:4122   */\n    tag_112:\n        /* \"#utility.yul\":4110:4189   */\n      pop\n      jump\t// out\n    stop\n    data_5a19d642633a91c31f85d0822c26e95135627dc5a097ba962429fa73088e57ec 67656e65726174652073657269616c206e756d6265727320666f722066697273742070726f64756374206f66206272616e64\n\n    auxdata: 0xa264697066735822122074fac22281cdba465518dade86213d9d3e239f4a1e1dec11db51e6a43d7303bc64736f6c63430008000033\n}\n",
				"bytecode": {
					"linkReferences": {},
					"object": "608060405234801561001057600080fd5b50610579806100206000396000f3fe608060405234801561001057600080fd5b50600436106100415760003560e01c806301339c21146100465780634716d27a1461005057806355f0252a1461006c575b600080fd5b61004e61009c565b005b61006a600480360381019061006591906102e4565b6100c5565b005b610086600480360381019061008191906102bb565b61015f565b60405161009391906103a9565b60405180910390f35b60006040518060600160405280603281526020016105126032913990506100c28161016a565b50565b80600080018381548110610102577f4e487b7100000000000000000000000000000000000000000000000000000000600052603260045260246000fd5b9060005260206000200154141561015b5760006001018190806001815401808255809150506001900390600052602060002001600090919091909150556000600201600081548092919061015590610461565b91905055505b5050565b600060019050919050565b60008160405160200161017d9190610392565b604051602081830303815290604052805190602001209050600080018190806001815401808255809150506001900390600052602060002001600090919091909150556000600190505b600a81101561028c576000806000016001836101e391906103da565b8154811061021a577f4e487b7100000000000000000000000000000000000000000000000000000000600052603260045260246000fd5b90600052602060002001546040516020016102359190610377565b6040516020818303038152906040528051906020012090506000800181908060018154018082558091505060019003906000526020600020016000909190919091505550808061028490610461565b9150506101c7565b505050565b6000813590506102a0816104e3565b92915050565b6000813590506102b5816104fa565b92915050565b6000602082840312156102cd57600080fd5b60006102db848285016102a6565b91505092915050565b600080604083850312156102f757600080fd5b6000610305858286016102a6565b925050602061031685828601610291565b9150509250929050565b6103298161040e565b82525050565b61034061033b8261041a565b6104aa565b82525050565b6000610351826103c4565b61035b81856103cf565b935061036b81856020860161042e565b80840191505092915050565b6000610383828461032f565b60208201915081905092915050565b600061039e8284610346565b915081905092915050565b60006020820190506103be6000830184610320565b92915050565b600081519050919050565b600081905092915050565b60006103e582610424565b91506103f083610424565b925082821015610403576104026104b4565b5b828203905092915050565b60008115159050919050565b6000819050919050565b6000819050919050565b60005b8381101561044c578082015181840152602081019050610431565b8381111561045b576000848401525b50505050565b600061046c82610424565b91507fffffffffffffffffffffffffffffffffffffffffffffffffffffffffffffffff82141561049f5761049e6104b4565b5b600182019050919050565b6000819050919050565b7f4e487b7100000000000000000000000000000000000000000000000000000000600052601160045260246000fd5b6104ec8161041a565b81146104f757600080fd5b50565b61050381610424565b811461050e57600080fd5b5056fe67656e65726174652073657269616c206e756d6265727320666f722066697273742070726f64756374206f66206272616e64a264697066735822122074fac22281cdba465518dade86213d9d3e239f4a1e1dec11db51e6a43d7303bc64736f6c63430008000033",
					"opcodes": "PUSH1 0x80 PUSH1 0x40 MSTORE CALLVALUE DUP1 ISZERO PUSH2 0x10 JUMPI PUSH1 0x0 DUP1 REVERT JUMPDEST POP PUSH2 0x579 DUP1 PUSH2 0x20 PUSH1 0x0 CODECOPY PUSH1 0x0 RETURN INVALID PUSH1 0x80 PUSH1 0x40 MSTORE CALLVALUE DUP1 ISZERO PUSH2 0x10 JUMPI PUSH1 0x0 DUP1 REVERT JUMPDEST POP PUSH1 0x4 CALLDATASIZE LT PUSH2 0x41 JUMPI PUSH1 0x0 CALLDATALOAD PUSH1 0xE0 SHR DUP1 PUSH4 0x1339C21 EQ PUSH2 0x46 JUMPI DUP1 PUSH4 0x4716D27A EQ PUSH2 0x50 JUMPI DUP1 PUSH4 0x55F0252A EQ PUSH2 0x6C JUMPI JUMPDEST PUSH1 0x0 DUP1 REVERT JUMPDEST PUSH2 0x4E PUSH2 0x9C JUMP JUMPDEST STOP JUMPDEST PUSH2 0x6A PUSH1 0x4 DUP1 CALLDATASIZE SUB DUP2 ADD SWAP1 PUSH2 0x65 SWAP2 SWAP1 PUSH2 0x2E4 JUMP JUMPDEST PUSH2 0xC5 JUMP JUMPDEST STOP JUMPDEST PUSH2 0x86 PUSH1 0x4 DUP1 CALLDATASIZE SUB DUP2 ADD SWAP1 PUSH2 0x81 SWAP2 SWAP1 PUSH2 0x2BB JUMP JUMPDEST PUSH2 0x15F JUMP JUMPDEST PUSH1 0x40 MLOAD PUSH2 0x93 SWAP2 SWAP1 PUSH2 0x3A9 JUMP JUMPDEST PUSH1 0x40 MLOAD DUP1 SWAP2 SUB SWAP1 RETURN JUMPDEST PUSH1 0x0 PUSH1 0x40 MLOAD DUP1 PUSH1 0x60 ADD PUSH1 0x40 MSTORE DUP1 PUSH1 0x32 DUP2 MSTORE PUSH1 0x20 ADD PUSH2 0x512 PUSH1 0x32 SWAP2 CODECOPY SWAP1 POP PUSH2 0xC2 DUP2 PUSH2 0x16A JUMP JUMPDEST POP JUMP JUMPDEST DUP1 PUSH1 0x0 DUP1 ADD DUP4 DUP2 SLOAD DUP2 LT PUSH2 0x102 JUMPI PUSH32 0x4E487B7100000000000000000000000000000000000000000000000000000000 PUSH1 0x0 MSTORE PUSH1 0x32 PUSH1 0x4 MSTORE PUSH1 0x24 PUSH1 0x0 REVERT JUMPDEST SWAP1 PUSH1 0x0 MSTORE PUSH1 0x20 PUSH1 0x0 KECCAK256 ADD SLOAD EQ ISZERO PUSH2 0x15B JUMPI PUSH1 0x0 PUSH1 0x1 ADD DUP2 SWAP1 DUP1 PUSH1 0x1 DUP2 SLOAD ADD DUP1 DUP3 SSTORE DUP1 SWAP2 POP POP PUSH1 0x1 SWAP1 SUB SWAP1 PUSH1 0x0 MSTORE PUSH1 0x20 PUSH1 0x0 KECCAK256 ADD PUSH1 0x0 SWAP1 SWAP2 SWAP1 SWAP2 SWAP1 SWAP2 POP SSTORE PUSH1 0x0 PUSH1 0x2 ADD PUSH1 0x0 DUP2 SLOAD DUP1 SWAP3 SWAP2 SWAP1 PUSH2 0x155 SWAP1 PUSH2 0x461 JUMP JUMPDEST SWAP2 SWAP1 POP SSTORE POP JUMPDEST POP POP JUMP JUMPDEST PUSH1 0x0 PUSH1 0x1 SWAP1 POP SWAP2 SWAP1 POP JUMP JUMPDEST PUSH1 0x0 DUP2 PUSH1 0x40 MLOAD PUSH1 0x20 ADD PUSH2 0x17D SWAP2 SWAP1 PUSH2 0x392 JUMP JUMPDEST PUSH1 0x40 MLOAD PUSH1 0x20 DUP2 DUP4 SUB SUB DUP2 MSTORE SWAP1 PUSH1 0x40 MSTORE DUP1 MLOAD SWAP1 PUSH1 0x20 ADD KECCAK256 SWAP1 POP PUSH1 0x0 DUP1 ADD DUP2 SWAP1 DUP1 PUSH1 0x1 DUP2 SLOAD ADD DUP1 DUP3 SSTORE DUP1 SWAP2 POP POP PUSH1 0x1 SWAP1 SUB SWAP1 PUSH1 0x0 MSTORE PUSH1 0x20 PUSH1 0x0 KECCAK256 ADD PUSH1 0x0 SWAP1 SWAP2 SWAP1 SWAP2 SWAP1 SWAP2 POP SSTORE PUSH1 0x0 PUSH1 0x1 SWAP1 POP JUMPDEST PUSH1 0xA DUP2 LT ISZERO PUSH2 0x28C JUMPI PUSH1 0x0 DUP1 PUSH1 0x0 ADD PUSH1 0x1 DUP4 PUSH2 0x1E3 SWAP2 SWAP1 PUSH2 0x3DA JUMP JUMPDEST DUP2 SLOAD DUP2 LT PUSH2 0x21A JUMPI PUSH32 0x4E487B7100000000000000000000000000000000000000000000000000000000 PUSH1 0x0 MSTORE PUSH1 0x32 PUSH1 0x4 MSTORE PUSH1 0x24 PUSH1 0x0 REVERT JUMPDEST SWAP1 PUSH1 0x0 MSTORE PUSH1 0x20 PUSH1 0x0 KECCAK256 ADD SLOAD PUSH1 0x40 MLOAD PUSH1 0x20 ADD PUSH2 0x235 SWAP2 SWAP1 PUSH2 0x377 JUMP JUMPDEST PUSH1 0x40 MLOAD PUSH1 0x20 DUP2 DUP4 SUB SUB DUP2 MSTORE SWAP1 PUSH1 0x40 MSTORE DUP1 MLOAD SWAP1 PUSH1 0x20 ADD KECCAK256 SWAP1 POP PUSH1 0x0 DUP1 ADD DUP2 SWAP1 DUP1 PUSH1 0x1 DUP2 SLOAD ADD DUP1 DUP3 SSTORE DUP1 SWAP2 POP POP PUSH1 0x1 SWAP1 SUB SWAP1 PUSH1 0x0 MSTORE PUSH1 0x20 PUSH1 0x0 KECCAK256 ADD PUSH1 0x0 SWAP1 SWAP2 SWAP1 SWAP2 SWAP1 SWAP2 POP SSTORE POP DUP1 DUP1 PUSH2 0x284 SWAP1 PUSH2 0x461 JUMP JUMPDEST SWAP2 POP POP PUSH2 0x1C7 JUMP JUMPDEST POP POP POP JUMP JUMPDEST PUSH1 0x0 DUP2 CALLDATALOAD SWAP1 POP PUSH2 0x2A0 DUP2 PUSH2 0x4E3 JUMP JUMPDEST SWAP3 SWAP2 POP POP JUMP JUMPDEST PUSH1 0x0 DUP2 CALLDATALOAD SWAP1 POP PUSH2 0x2B5 DUP2 PUSH2 0x4FA JUMP JUMPDEST SWAP3 SWAP2 POP POP JUMP JUMPDEST PUSH1 0x0 PUSH1 0x20 DUP3 DUP5 SUB SLT ISZERO PUSH2 0x2CD JUMPI PUSH1 0x0 DUP1 REVERT JUMPDEST PUSH1 0x0 PUSH2 0x2DB DUP5 DUP3 DUP6 ADD PUSH2 0x2A6 JUMP JUMPDEST SWAP2 POP POP SWAP3 SWAP2 POP POP JUMP JUMPDEST PUSH1 0x0 DUP1 PUSH1 0x40 DUP4 DUP6 SUB SLT ISZERO PUSH2 0x2F7 JUMPI PUSH1 0x0 DUP1 REVERT JUMPDEST PUSH1 0x0 PUSH2 0x305 DUP6 DUP3 DUP7 ADD PUSH2 0x2A6 JUMP JUMPDEST SWAP3 POP POP PUSH1 0x20 PUSH2 0x316 DUP6 DUP3 DUP7 ADD PUSH2 0x291 JUMP JUMPDEST SWAP2 POP POP SWAP3 POP SWAP3 SWAP1 POP JUMP JUMPDEST PUSH2 0x329 DUP2 PUSH2 0x40E JUMP JUMPDEST DUP3 MSTORE POP POP JUMP JUMPDEST PUSH2 0x340 PUSH2 0x33B DUP3 PUSH2 0x41A JUMP JUMPDEST PUSH2 0x4AA JUMP JUMPDEST DUP3 MSTORE POP POP JUMP JUMPDEST PUSH1 0x0 PUSH2 0x351 DUP3 PUSH2 0x3C4 JUMP JUMPDEST PUSH2 0x35B DUP2 DUP6 PUSH2 0x3CF JUMP JUMPDEST SWAP4 POP PUSH2 0x36B DUP2 DUP6 PUSH1 0x20 DUP7 ADD PUSH2 0x42E JUMP JUMPDEST DUP1 DUP5 ADD SWAP2 POP POP SWAP3 SWAP2 POP POP JUMP JUMPDEST PUSH1 0x0 PUSH2 0x383 DUP3 DUP5 PUSH2 0x32F JUMP JUMPDEST PUSH1 0x20 DUP3 ADD SWAP2 POP DUP2 SWAP1 POP SWAP3 SWAP2 POP POP JUMP JUMPDEST PUSH1 0x0 PUSH2 0x39E DUP3 DUP5 PUSH2 0x346 JUMP JUMPDEST SWAP2 POP DUP2 SWAP1 POP SWAP3 SWAP2 POP POP JUMP JUMPDEST PUSH1 0x0 PUSH1 0x20 DUP3 ADD SWAP1 POP PUSH2 0x3BE PUSH1 0x0 DUP4 ADD DUP5 PUSH2 0x320 JUMP JUMPDEST SWAP3 SWAP2 POP POP JUMP JUMPDEST PUSH1 0x0 DUP2 MLOAD SWAP1 POP SWAP2 SWAP1 POP JUMP JUMPDEST PUSH1 0x0 DUP2 SWAP1 POP SWAP3 SWAP2 POP POP JUMP JUMPDEST PUSH1 0x0 PUSH2 0x3E5 DUP3 PUSH2 0x424 JUMP JUMPDEST SWAP2 POP PUSH2 0x3F0 DUP4 PUSH2 0x424 JUMP JUMPDEST SWAP3 POP DUP3 DUP3 LT ISZERO PUSH2 0x403 JUMPI PUSH2 0x402 PUSH2 0x4B4 JUMP JUMPDEST JUMPDEST DUP3 DUP3 SUB SWAP1 POP SWAP3 SWAP2 POP POP JUMP JUMPDEST PUSH1 0x0 DUP2 ISZERO ISZERO SWAP1 POP SWAP2 SWAP1 POP JUMP JUMPDEST PUSH1 0x0 DUP2 SWAP1 POP SWAP2 SWAP1 POP JUMP JUMPDEST PUSH1 0x0 DUP2 SWAP1 POP SWAP2 SWAP1 POP JUMP JUMPDEST PUSH1 0x0 JUMPDEST DUP4 DUP2 LT ISZERO PUSH2 0x44C JUMPI DUP1 DUP3 ADD MLOAD DUP2 DUP5 ADD MSTORE PUSH1 0x20 DUP2 ADD SWAP1 POP PUSH2 0x431 JUMP JUMPDEST DUP4 DUP2 GT ISZERO PUSH2 0x45B JUMPI PUSH1 0x0 DUP5 DUP5 ADD MSTORE JUMPDEST POP POP POP POP JUMP JUMPDEST PUSH1 0x0 PUSH2 0x46C DUP3 PUSH2 0x424 JUMP JUMPDEST SWAP2 POP PUSH32 0xFFFFFFFFFFFFFFFFFFFFFFFFFFFFFFFFFFFFFFFFFFFFFFFFFFFFFFFFFFFFFFFF DUP3 EQ ISZERO PUSH2 0x49F JUMPI PUSH2 0x49E PUSH2 0x4B4 JUMP JUMPDEST JUMPDEST PUSH1 0x1 DUP3 ADD SWAP1 POP SWAP2 SWAP1 POP JUMP JUMPDEST PUSH1 0x0 DUP2 SWAP1 POP SWAP2 SWAP1 POP JUMP JUMPDEST PUSH32 0x4E487B7100000000000000000000000000000000000000000000000000000000 PUSH1 0x0 MSTORE PUSH1 0x11 PUSH1 0x4 MSTORE PUSH1 0x24 PUSH1 0x0 REVERT JUMPDEST PUSH2 0x4EC DUP2 PUSH2 0x41A JUMP JUMPDEST DUP2 EQ PUSH2 0x4F7 JUMPI PUSH1 0x0 DUP1 REVERT JUMPDEST POP JUMP JUMPDEST PUSH2 0x503 DUP2 PUSH2 0x424 JUMP JUMPDEST DUP2 EQ PUSH2 0x50E JUMPI PUSH1 0x0 DUP1 REVERT JUMPDEST POP JUMP INVALID PUSH8 0x656E657261746520 PUSH20 0x657269616C206E756D6265727320666F72206669 PUSH19 0x73742070726F64756374206F66206272616E64 LOG2 PUSH5 0x6970667358 0x22 SLT KECCAK256 PUSH21 0xFAC22281CDBA465518DADE86213D9D3E239F4A1E1D 0xEC GT 0xDB MLOAD 0xE6 LOG4 RETURNDATASIZE PUSH20 0x3BC64736F6C6343000800003300000000000000 "
				},
				"gasEstimates": {
					"creation": {
						"codeDepositCost": "280200",
						"executionCost": "318",
						"totalCost": "280518"
					},
					"external": {
						"checkSerial(uint256)": "630",
						"launch()": "infinite",
						"regWarranty(uint256,bytes32)": "infinite"
					},
					"internal": {
						"bytes32ToString(bytes32)": "infinite",
						"setProduct(string memory)": "infinite"
					}
				},
				"methodIdentifiers": {
					"checkSerial(uint256)": "55f0252a",
					"launch()": "01339c21",
					"regWarranty(uint256,bytes32)": "4716d27a"
				}
			},
			"storageLayout": {
				"storage": [
					{
						"astId": 13,
						"contract": "contracts/Production.sol:Production",
						"label": "product",
						"offset": 0,
						"slot": "0",
						"type": "t_struct(Product)10_storage"
					}
				],
				"types": {
					"t_array(t_bytes32)dyn_storage": {
						"base": "t_bytes32",
						"encoding": "dynamic_array",
						"label": "bytes32[]",
						"numberOfBytes": "32"
					},
					"t_bytes32": {
						"encoding": "inplace",
						"label": "bytes32",
						"numberOfBytes": "32"
					},
					"t_struct(Product)10_storage": {
						"encoding": "inplace",
						"label": "struct Production.Product",
						"members": [
							{
								"astId": 4,
								"contract": "contracts/Production.sol:Production",
								"label": "serialNo",
								"offset": 0,
								"slot": "0",
								"type": "t_array(t_bytes32)dyn_storage"
							},
							{
								"astId": 7,
								"contract": "contracts/Production.sol:Production",
								"label": "registered",
								"offset": 0,
								"slot": "1",
								"type": "t_array(t_bytes32)dyn_storage"
							},
							{
								"astId": 9,
								"contract": "contracts/Production.sol:Production",
								"label": "regNo",
								"offset": 0,
								"slot": "2",
								"type": "t_uint256"
							}
						],
						"numberOfBytes": "96"
					},
					"t_uint256": {
						"encoding": "inplace",
						"label": "uint256",
						"numberOfBytes": "32"
					}
				}
			},
			"userdoc": {
				"kind": "user",
				"methods": {},
				"version": 1
			}
		}
	}
}