{
	"contracts/Production.sol": {
		"Production": {
			"abi": [
				{
					"constant": false,
					"inputs": [
						{
							"name": "Num",
							"type": "uint256"
						},
						{
							"name": "regSer",
							"type": "bytes32"
						}
					],
					"name": "regWarranty",
					"outputs": [],
					"payable": false,
					"stateMutability": "nonpayable",
					"type": "function"
				},
				{
					"constant": true,
					"inputs": [
						{
							"name": "n",
							"type": "uint256"
						},
						{
							"name": "sn",
							"type": "bytes32"
						}
					],
					"name": "checkSerial",
					"outputs": [
						{
							"name": "",
							"type": "bool"
						}
					],
					"payable": false,
					"stateMutability": "view",
					"type": "function"
				},
				{
					"constant": true,
					"inputs": [
						{
							"name": "_bytes32",
							"type": "bytes32"
						}
					],
					"name": "bytes32ToString",
					"outputs": [
						{
							"name": "",
							"type": "string"
						}
					],
					"payable": false,
					"stateMutability": "view",
					"type": "function"
				}
			],
			"devdoc": {
				"methods": {}
			},
			"evm": {
				"assembly": "    /* \"contracts/Production.sol\":28:1332  contract Production {\r... */\n  mstore(0x40, 0x80)\n  callvalue\n    /* \"--CODEGEN--\":8:17   */\n  dup1\n    /* \"--CODEGEN--\":5:7   */\n  iszero\n  tag_1\n  jumpi\n    /* \"--CODEGEN--\":30:31   */\n  0x0\n    /* \"--CODEGEN--\":27:28   */\n  dup1\n    /* \"--CODEGEN--\":20:32   */\n  revert\n    /* \"--CODEGEN--\":5:7   */\ntag_1:\n    /* \"contracts/Production.sol\":28:1332  contract Production {\r... */\n  pop\n  dataSize(sub_0)\n  dup1\n  dataOffset(sub_0)\n  0x0\n  codecopy\n  0x0\n  return\nstop\n\nsub_0: assembly {\n        /* \"contracts/Production.sol\":28:1332  contract Production {\r... */\n      mstore(0x40, 0x80)\n      jumpi(tag_1, lt(calldatasize, 0x4))\n      calldataload(0x0)\n      0x100000000000000000000000000000000000000000000000000000000\n      swap1\n      div\n      0xffffffff\n      and\n      dup1\n      0x4716d27a\n      eq\n      tag_2\n      jumpi\n      dup1\n      0x60eaf1df\n      eq\n      tag_3\n      jumpi\n      dup1\n      0x9201de55\n      eq\n      tag_4\n      jumpi\n    tag_1:\n      0x0\n      dup1\n      revert\n        /* \"contracts/Production.sol\":1129:1329  function regWarranty(uint Num, bytes32 regSer) public {\r... */\n    tag_2:\n      callvalue\n        /* \"--CODEGEN--\":8:17   */\n      dup1\n        /* \"--CODEGEN--\":5:7   */\n      iszero\n      tag_5\n      jumpi\n        /* \"--CODEGEN--\":30:31   */\n      0x0\n        /* \"--CODEGEN--\":27:28   */\n      dup1\n        /* \"--CODEGEN--\":20:32   */\n      revert\n        /* \"--CODEGEN--\":5:7   */\n    tag_5:\n        /* \"contracts/Production.sol\":1129:1329  function regWarranty(uint Num, bytes32 regSer) public {\r... */\n      pop\n      tag_6\n      0x4\n      dup1\n      calldatasize\n      sub\n      dup2\n      add\n      swap1\n      dup1\n      dup1\n      calldataload\n      swap1\n      0x20\n      add\n      swap1\n      swap3\n      swap2\n      swap1\n      dup1\n      calldataload\n      not(0x0)\n      and\n      swap1\n      0x20\n      add\n      swap1\n      swap3\n      swap2\n      swap1\n      pop\n      pop\n      pop\n      jump(tag_7)\n    tag_6:\n      stop\n        /* \"contracts/Production.sol\":537:736  function checkSerial(uint n, bytes32 sn) public view returns(bool) {\r... */\n    tag_3:\n      callvalue\n        /* \"--CODEGEN--\":8:17   */\n      dup1\n        /* \"--CODEGEN--\":5:7   */\n      iszero\n      tag_8\n      jumpi\n        /* \"--CODEGEN--\":30:31   */\n      0x0\n        /* \"--CODEGEN--\":27:28   */\n      dup1\n        /* \"--CODEGEN--\":20:32   */\n      revert\n        /* \"--CODEGEN--\":5:7   */\n    tag_8:\n        /* \"contracts/Production.sol\":537:736  function checkSerial(uint n, bytes32 sn) public view returns(bool) {\r... */\n      pop\n      tag_9\n      0x4\n      dup1\n      calldatasize\n      sub\n      dup2\n      add\n      swap1\n      dup1\n      dup1\n      calldataload\n      swap1\n      0x20\n      add\n      swap1\n      swap3\n      swap2\n      swap1\n      dup1\n      calldataload\n      not(0x0)\n      and\n      swap1\n      0x20\n      add\n      swap1\n      swap3\n      swap2\n      swap1\n      pop\n      pop\n      pop\n      jump(tag_10)\n    tag_9:\n      mload(0x40)\n      dup1\n      dup3\n      iszero\n      iszero\n      iszero\n      iszero\n      dup2\n      mstore\n      0x20\n      add\n      swap2\n      pop\n      pop\n      mload(0x40)\n      dup1\n      swap2\n      sub\n      swap1\n      return\n        /* \"contracts/Production.sol\":744:1121  function bytes32ToString(bytes32 _bytes32) public pure returns (string memory) {\r... */\n    tag_4:\n      callvalue\n        /* \"--CODEGEN--\":8:17   */\n      dup1\n        /* \"--CODEGEN--\":5:7   */\n      iszero\n      tag_11\n      jumpi\n        /* \"--CODEGEN--\":30:31   */\n      0x0\n        /* \"--CODEGEN--\":27:28   */\n      dup1\n        /* \"--CODEGEN--\":20:32   */\n      revert\n        /* \"--CODEGEN--\":5:7   */\n    tag_11:\n        /* \"contracts/Production.sol\":744:1121  function bytes32ToString(bytes32 _bytes32) public pure returns (string memory) {\r... */\n      pop\n      tag_12\n      0x4\n      dup1\n      calldatasize\n      sub\n      dup2\n      add\n      swap1\n      dup1\n      dup1\n      calldataload\n      not(0x0)\n      and\n      swap1\n      0x20\n      add\n      swap1\n      swap3\n      swap2\n      swap1\n      pop\n      pop\n      pop\n      jump(tag_13)\n    tag_12:\n      mload(0x40)\n      dup1\n      dup1\n      0x20\n      add\n      dup3\n      dup2\n      sub\n      dup3\n      mstore\n      dup4\n      dup2\n      dup2\n      mload\n      dup2\n      mstore\n      0x20\n      add\n      swap2\n      pop\n      dup1\n      mload\n      swap1\n      0x20\n      add\n      swap1\n      dup1\n      dup4\n      dup4\n        /* \"--CODEGEN--\":23:24   */\n      0x0\n        /* \"--CODEGEN--\":8:108   */\n    tag_14:\n        /* \"--CODEGEN--\":33:36   */\n      dup4\n        /* \"--CODEGEN--\":30:31   */\n      dup2\n        /* \"--CODEGEN--\":27:37   */\n      lt\n        /* \"--CODEGEN--\":8:108   */\n      iszero\n      tag_15\n      jumpi\n        /* \"--CODEGEN--\":99:100   */\n      dup1\n        /* \"--CODEGEN--\":94:97   */\n      dup3\n        /* \"--CODEGEN--\":90:101   */\n      add\n        /* \"--CODEGEN--\":84:102   */\n      mload\n        /* \"--CODEGEN--\":80:81   */\n      dup2\n        /* \"--CODEGEN--\":75:78   */\n      dup5\n        /* \"--CODEGEN--\":71:82   */\n      add\n        /* \"--CODEGEN--\":64:103   */\n      mstore\n        /* \"--CODEGEN--\":52:54   */\n      0x20\n        /* \"--CODEGEN--\":49:50   */\n      dup2\n        /* \"--CODEGEN--\":45:55   */\n      add\n        /* \"--CODEGEN--\":40:55   */\n      swap1\n      pop\n        /* \"--CODEGEN--\":8:108   */\n      jump(tag_14)\n    tag_15:\n        /* \"--CODEGEN--\":12:26   */\n      pop\n        /* \"contracts/Production.sol\":744:1121  function bytes32ToString(bytes32 _bytes32) public pure returns (string memory) {\r... */\n      pop\n      pop\n      pop\n      swap1\n      pop\n      swap1\n      dup2\n      add\n      swap1\n      0x1f\n      and\n      dup1\n      iszero\n      tag_17\n      jumpi\n      dup1\n      dup3\n      sub\n      dup1\n      mload\n      0x1\n      dup4\n      0x20\n      sub\n      0x100\n      exp\n      sub\n      not\n      and\n      dup2\n      mstore\n      0x20\n      add\n      swap2\n      pop\n    tag_17:\n      pop\n      swap3\n      pop\n      pop\n      pop\n      mload(0x40)\n      dup1\n      swap2\n      sub\n      swap1\n      return\n        /* \"contracts/Production.sol\":1129:1329  function regWarranty(uint Num, bytes32 regSer) public {\r... */\n    tag_7:\n        /* \"contracts/Production.sol\":1223:1229  regSer */\n      dup1\n        /* \"contracts/Production.sol\":1198:1229  product.serialNo[Num] == regSer */\n      not(0x0)\n      and\n        /* \"contracts/Production.sol\":1198:1205  product */\n      0x0\n        /* \"contracts/Production.sol\":1198:1214  product.serialNo */\n      dup1\n      add\n        /* \"contracts/Production.sol\":1215:1218  Num */\n      dup4\n        /* \"contracts/Production.sol\":1198:1219  product.serialNo[Num] */\n      0xa\n      dup2\n      lt\n      iszero\n      iszero\n      tag_19\n      jumpi\n      invalid\n    tag_19:\n      add\n      sload\n        /* \"contracts/Production.sol\":1198:1229  product.serialNo[Num] == regSer */\n      not(0x0)\n      and\n      eq\n        /* \"contracts/Production.sol\":1194:1322  if (product.serialNo[Num] == regSer) {\r... */\n      iszero\n      tag_21\n      jumpi\n        /* \"contracts/Production.sol\":1295:1302  product */\n      0x0\n        /* \"contracts/Production.sol\":1295:1308  product.regNo */\n      0x14\n      add\n      0x0\n        /* \"contracts/Production.sol\":1295:1310  product.regNo++ */\n      dup2\n      sload\n      dup1\n      swap3\n      swap2\n      swap1\n      0x1\n      add\n      swap2\n      swap1\n      pop\n      sstore\n      pop\n        /* \"contracts/Production.sol\":1194:1322  if (product.serialNo[Num] == regSer) {\r... */\n    tag_21:\n        /* \"contracts/Production.sol\":1129:1329  function regWarranty(uint Num, bytes32 regSer) public {\r... */\n      pop\n      pop\n      jump\t// out\n        /* \"contracts/Production.sol\":537:736  function checkSerial(uint n, bytes32 sn) public view returns(bool) {\r... */\n    tag_10:\n        /* \"contracts/Production.sol\":598:602  bool */\n      0x0\n        /* \"contracts/Production.sol\":625:632  product */\n      dup1\n        /* \"contracts/Production.sol\":625:641  product.serialNo */\n      0x0\n      add\n        /* \"contracts/Production.sol\":642:643  n */\n      dup4\n        /* \"contracts/Production.sol\":625:644  product.serialNo[n] */\n      0xa\n      dup2\n      lt\n      iszero\n      iszero\n      tag_23\n      jumpi\n      invalid\n    tag_23:\n      add\n      sload\n        /* \"contracts/Production.sol\":619:644  sn == product.serialNo[n] */\n      not(0x0)\n      and\n        /* \"contracts/Production.sol\":619:621  sn */\n      dup3\n        /* \"contracts/Production.sol\":619:644  sn == product.serialNo[n] */\n      not(0x0)\n      and\n      eq\n        /* \"contracts/Production.sol\":615:729  if (sn == product.serialNo[n]) {\r... */\n      iszero\n      tag_25\n      jumpi\n        /* \"contracts/Production.sol\":668:672  true */\n      0x1\n        /* \"contracts/Production.sol\":661:672  return true */\n      swap1\n      pop\n      jump(tag_22)\n        /* \"contracts/Production.sol\":615:729  if (sn == product.serialNo[n]) {\r... */\n    tag_25:\n        /* \"contracts/Production.sol\":712:717  false */\n      0x0\n        /* \"contracts/Production.sol\":705:717  return false */\n      swap1\n      pop\n        /* \"contracts/Production.sol\":537:736  function checkSerial(uint n, bytes32 sn) public view returns(bool) {\r... */\n    tag_22:\n      swap3\n      swap2\n      pop\n      pop\n      jump\t// out\n        /* \"contracts/Production.sol\":744:1121  function bytes32ToString(bytes32 _bytes32) public pure returns (string memory) {\r... */\n    tag_13:\n        /* \"contracts/Production.sol\":808:814  string */\n      0x60\n        /* \"contracts/Production.sol\":834:841  uint8 i */\n      0x0\n        /* \"contracts/Production.sol\":930:953  bytes memory bytesArray */\n      0x60\n        /* \"contracts/Production.sol\":844:845  0 */\n      0x0\n        /* \"contracts/Production.sol\":834:845  uint8 i = 0 */\n      swap2\n      pop\n        /* \"contracts/Production.sol\":856:920  while(i < 32 && _bytes32[i] != 0) {\r... */\n    tag_28:\n        /* \"contracts/Production.sol\":866:868  32 */\n      0x20\n        /* \"contracts/Production.sol\":862:863  i */\n      dup3\n        /* \"contracts/Production.sol\":862:868  i < 32 */\n      0xff\n      and\n      lt\n        /* \"contracts/Production.sol\":862:888  i < 32 && _bytes32[i] != 0 */\n      dup1\n      iszero\n      tag_30\n      jumpi\n      pop\n        /* \"contracts/Production.sol\":887:888  0 */\n      0x0\n        /* \"contracts/Production.sol\":872:888  _bytes32[i] != 0 */\n      0x100000000000000000000000000000000000000000000000000000000000000\n      mul\n        /* \"contracts/Production.sol\":872:880  _bytes32 */\n      dup5\n        /* \"contracts/Production.sol\":881:882  i */\n      dup4\n        /* \"contracts/Production.sol\":872:883  _bytes32[i] */\n      0xff\n      and\n      0x20\n      dup2\n      lt\n      iszero\n      iszero\n      tag_31\n      jumpi\n      invalid\n    tag_31:\n      byte\n      0x100000000000000000000000000000000000000000000000000000000000000\n      mul\n        /* \"contracts/Production.sol\":872:888  _bytes32[i] != 0 */\n      not(0xffffffffffffffffffffffffffffffffffffffffffffffffffffffffffffff)\n      and\n      eq\n      iszero\n        /* \"contracts/Production.sol\":862:888  i < 32 && _bytes32[i] != 0 */\n    tag_30:\n        /* \"contracts/Production.sol\":856:920  while(i < 32 && _bytes32[i] != 0) {\r... */\n      iszero\n      tag_29\n      jumpi\n        /* \"contracts/Production.sol\":905:908  i++ */\n      dup2\n      dup1\n      0x1\n      add\n      swap3\n      pop\n      pop\n        /* \"contracts/Production.sol\":856:920  while(i < 32 && _bytes32[i] != 0) {\r... */\n      jump(tag_28)\n    tag_29:\n        /* \"contracts/Production.sol\":966:967  i */\n      dup2\n        /* \"contracts/Production.sol\":956:968  new bytes(i) */\n      0xff\n      and\n      mload(0x40)\n      swap1\n      dup1\n      dup3\n      mstore\n      dup1\n      0x1f\n      add\n      not(0x1f)\n      and\n      0x20\n      add\n      dup3\n      add\n      0x40\n      mstore\n      dup1\n      iszero\n      tag_32\n      jumpi\n      dup2\n      0x20\n      add\n        /* \"--CODEGEN--\":29:31   */\n      0x20\n        /* \"--CODEGEN--\":21:27   */\n      dup3\n        /* \"--CODEGEN--\":17:32   */\n      mul\n        /* \"--CODEGEN--\":117:121   */\n      dup1\n        /* \"--CODEGEN--\":105:115   */\n      codesize\n        /* \"--CODEGEN--\":97:103   */\n      dup4\n        /* \"--CODEGEN--\":88:122   */\n      codecopy\n        /* \"--CODEGEN--\":148:152   */\n      dup1\n        /* \"--CODEGEN--\":140:146   */\n      dup3\n        /* \"--CODEGEN--\":136:153   */\n      add\n        /* \"--CODEGEN--\":126:153   */\n      swap2\n      pop\n        /* \"--CODEGEN--\":0:157   */\n      pop\n        /* \"contracts/Production.sol\":956:968  new bytes(i) */\n      swap1\n      pop\n    tag_32:\n      pop\n        /* \"contracts/Production.sol\":930:968  bytes memory bytesArray = new bytes(i) */\n      swap1\n      pop\n        /* \"contracts/Production.sol\":988:989  0 */\n      0x0\n        /* \"contracts/Production.sol\":984:989  i = 0 */\n      swap2\n      pop\n        /* \"contracts/Production.sol\":979:1078  for (i = 0; i < 32 && _bytes32[i] != 0; i++) {\r... */\n    tag_33:\n        /* \"contracts/Production.sol\":995:997  32 */\n      0x20\n        /* \"contracts/Production.sol\":991:992  i */\n      dup3\n        /* \"contracts/Production.sol\":991:997  i < 32 */\n      0xff\n      and\n      lt\n        /* \"contracts/Production.sol\":991:1017  i < 32 && _bytes32[i] != 0 */\n      dup1\n      iszero\n      tag_36\n      jumpi\n      pop\n        /* \"contracts/Production.sol\":1016:1017  0 */\n      0x0\n        /* \"contracts/Production.sol\":1001:1017  _bytes32[i] != 0 */\n      0x100000000000000000000000000000000000000000000000000000000000000\n      mul\n        /* \"contracts/Production.sol\":1001:1009  _bytes32 */\n      dup5\n        /* \"contracts/Production.sol\":1010:1011  i */\n      dup4\n        /* \"contracts/Production.sol\":1001:1012  _bytes32[i] */\n      0xff\n      and\n      0x20\n      dup2\n      lt\n      iszero\n      iszero\n      tag_37\n      jumpi\n      invalid\n    tag_37:\n      byte\n      0x100000000000000000000000000000000000000000000000000000000000000\n      mul\n        /* \"contracts/Production.sol\":1001:1017  _bytes32[i] != 0 */\n      not(0xffffffffffffffffffffffffffffffffffffffffffffffffffffffffffffff)\n      and\n      eq\n      iszero\n        /* \"contracts/Production.sol\":991:1017  i < 32 && _bytes32[i] != 0 */\n    tag_36:\n        /* \"contracts/Production.sol\":979:1078  for (i = 0; i < 32 && _bytes32[i] != 0; i++) {\r... */\n      iszero\n      tag_34\n      jumpi\n        /* \"contracts/Production.sol\":1055:1063  _bytes32 */\n      dup4\n        /* \"contracts/Production.sol\":1064:1065  i */\n      dup3\n        /* \"contracts/Production.sol\":1055:1066  _bytes32[i] */\n      0xff\n      and\n      0x20\n      dup2\n      lt\n      iszero\n      iszero\n      tag_38\n      jumpi\n      invalid\n    tag_38:\n      byte\n      0x100000000000000000000000000000000000000000000000000000000000000\n      mul\n        /* \"contracts/Production.sol\":1039:1049  bytesArray */\n      dup2\n        /* \"contracts/Production.sol\":1050:1051  i */\n      dup4\n        /* \"contracts/Production.sol\":1039:1052  bytesArray[i] */\n      0xff\n      and\n      dup2\n      mload\n      dup2\n      lt\n      iszero\n      iszero\n      tag_39\n      jumpi\n      invalid\n    tag_39:\n      swap1\n      0x20\n      add\n      add\n        /* \"contracts/Production.sol\":1039:1066  bytesArray[i] = _bytes32[i] */\n      swap1\n      not(0xffffffffffffffffffffffffffffffffffffffffffffffffffffffffffffff)\n      and\n      swap1\n      dup2\n      0x0\n      byte\n      swap1\n      mstore8\n      pop\n        /* \"contracts/Production.sol\":1019:1022  i++ */\n      dup2\n      dup1\n      0x1\n      add\n      swap3\n      pop\n      pop\n        /* \"contracts/Production.sol\":979:1078  for (i = 0; i < 32 && _bytes32[i] != 0; i++) {\r... */\n      jump(tag_33)\n    tag_34:\n        /* \"contracts/Production.sol\":1102:1112  bytesArray */\n      dup1\n        /* \"contracts/Production.sol\":1088:1113  return string(bytesArray) */\n      swap3\n      pop\n        /* \"contracts/Production.sol\":744:1121  function bytes32ToString(bytes32 _bytes32) public pure returns (string memory) {\r... */\n      pop\n      pop\n      swap2\n      swap1\n      pop\n      jump\t// out\n\n    auxdata: 0xa165627a7a72305820778fe511e97753f598d516e57c8b45ecc969a58bfd218b32c7822e7808bb6a030029\n}\n",
				"bytecode": {
					"linkReferences": {},
					"object": "608060405234801561001057600080fd5b50610436806100206000396000f300608060405260043610610057576000357c0100000000000000000000000000000000000000000000000000000000900463ffffffff1680634716d27a1461005c57806360eaf1df146100975780639201de55146100ea575b600080fd5b34801561006857600080fd5b50610095600480360381019080803590602001909291908035600019169060200190929190505050610194565b005b3480156100a357600080fd5b506100d06004803603810190808035906020019092919080356000191690602001909291905050506101d0565b604051808215151515815260200191505060405180910390f35b3480156100f657600080fd5b506101196004803603810190808035600019169060200190929190505050610208565b6040518080602001828103825283818151815260200191508051906020019080838360005b8381101561015957808201518184015260208101905061013e565b50505050905090810190601f1680156101865780820380516001836020036101000a031916815260200191505b509250505060405180910390f35b80600019166000800183600a811015156101aa57fe5b01546000191614156101cc576000601401600081548092919060010191905055505b5050565b60008060000183600a811015156101e357fe5b015460001916826000191614156101fd5760019050610202565b600090505b92915050565b606060006060600091505b60208260ff1610801561029e575060007f010000000000000000000000000000000000000000000000000000000000000002848360ff1660208110151561025657fe5b1a7f0100000000000000000000000000000000000000000000000000000000000000027effffffffffffffffffffffffffffffffffffffffffffffffffffffffffffff191614155b156102b0578180600101925050610213565b8160ff166040519080825280601f01601f1916602001820160405280156102e65781602001602082028038833980820191505090505b509050600091505b60208260ff16108015610379575060007f010000000000000000000000000000000000000000000000000000000000000002848360ff1660208110151561033157fe5b1a7f0100000000000000000000000000000000000000000000000000000000000000027effffffffffffffffffffffffffffffffffffffffffffffffffffffffffffff191614155b1561040057838260ff1660208110151561038f57fe5b1a7f010000000000000000000000000000000000000000000000000000000000000002818360ff168151811015156103c357fe5b9060200101907effffffffffffffffffffffffffffffffffffffffffffffffffffffffffffff1916908160001a90535081806001019250506102ee565b80925050509190505600a165627a7a72305820778fe511e97753f598d516e57c8b45ecc969a58bfd218b32c7822e7808bb6a030029",
					"opcodes": "PUSH1 0x80 PUSH1 0x40 MSTORE CALLVALUE DUP1 ISZERO PUSH2 0x10 JUMPI PUSH1 0x0 DUP1 REVERT JUMPDEST POP PUSH2 0x436 DUP1 PUSH2 0x20 PUSH1 0x0 CODECOPY PUSH1 0x0 RETURN STOP PUSH1 0x80 PUSH1 0x40 MSTORE PUSH1 0x4 CALLDATASIZE LT PUSH2 0x57 JUMPI PUSH1 0x0 CALLDATALOAD PUSH29 0x100000000000000000000000000000000000000000000000000000000 SWAP1 DIV PUSH4 0xFFFFFFFF AND DUP1 PUSH4 0x4716D27A EQ PUSH2 0x5C JUMPI DUP1 PUSH4 0x60EAF1DF EQ PUSH2 0x97 JUMPI DUP1 PUSH4 0x9201DE55 EQ PUSH2 0xEA JUMPI JUMPDEST PUSH1 0x0 DUP1 REVERT JUMPDEST CALLVALUE DUP1 ISZERO PUSH2 0x68 JUMPI PUSH1 0x0 DUP1 REVERT JUMPDEST POP PUSH2 0x95 PUSH1 0x4 DUP1 CALLDATASIZE SUB DUP2 ADD SWAP1 DUP1 DUP1 CALLDATALOAD SWAP1 PUSH1 0x20 ADD SWAP1 SWAP3 SWAP2 SWAP1 DUP1 CALLDATALOAD PUSH1 0x0 NOT AND SWAP1 PUSH1 0x20 ADD SWAP1 SWAP3 SWAP2 SWAP1 POP POP POP PUSH2 0x194 JUMP JUMPDEST STOP JUMPDEST CALLVALUE DUP1 ISZERO PUSH2 0xA3 JUMPI PUSH1 0x0 DUP1 REVERT JUMPDEST POP PUSH2 0xD0 PUSH1 0x4 DUP1 CALLDATASIZE SUB DUP2 ADD SWAP1 DUP1 DUP1 CALLDATALOAD SWAP1 PUSH1 0x20 ADD SWAP1 SWAP3 SWAP2 SWAP1 DUP1 CALLDATALOAD PUSH1 0x0 NOT AND SWAP1 PUSH1 0x20 ADD SWAP1 SWAP3 SWAP2 SWAP1 POP POP POP PUSH2 0x1D0 JUMP JUMPDEST PUSH1 0x40 MLOAD DUP1 DUP3 ISZERO ISZERO ISZERO ISZERO DUP2 MSTORE PUSH1 0x20 ADD SWAP2 POP POP PUSH1 0x40 MLOAD DUP1 SWAP2 SUB SWAP1 RETURN JUMPDEST CALLVALUE DUP1 ISZERO PUSH2 0xF6 JUMPI PUSH1 0x0 DUP1 REVERT JUMPDEST POP PUSH2 0x119 PUSH1 0x4 DUP1 CALLDATASIZE SUB DUP2 ADD SWAP1 DUP1 DUP1 CALLDATALOAD PUSH1 0x0 NOT AND SWAP1 PUSH1 0x20 ADD SWAP1 SWAP3 SWAP2 SWAP1 POP POP POP PUSH2 0x208 JUMP JUMPDEST PUSH1 0x40 MLOAD DUP1 DUP1 PUSH1 0x20 ADD DUP3 DUP2 SUB DUP3 MSTORE DUP4 DUP2 DUP2 MLOAD DUP2 MSTORE PUSH1 0x20 ADD SWAP2 POP DUP1 MLOAD SWAP1 PUSH1 0x20 ADD SWAP1 DUP1 DUP4 DUP4 PUSH1 0x0 JUMPDEST DUP4 DUP2 LT ISZERO PUSH2 0x159 JUMPI DUP1 DUP3 ADD MLOAD DUP2 DUP5 ADD MSTORE PUSH1 0x20 DUP2 ADD SWAP1 POP PUSH2 0x13E JUMP JUMPDEST POP POP POP POP SWAP1 POP SWAP1 DUP2 ADD SWAP1 PUSH1 0x1F AND DUP1 ISZERO PUSH2 0x186 JUMPI DUP1 DUP3 SUB DUP1 MLOAD PUSH1 0x1 DUP4 PUSH1 0x20 SUB PUSH2 0x100 EXP SUB NOT AND DUP2 MSTORE PUSH1 0x20 ADD SWAP2 POP JUMPDEST POP SWAP3 POP POP POP PUSH1 0x40 MLOAD DUP1 SWAP2 SUB SWAP1 RETURN JUMPDEST DUP1 PUSH1 0x0 NOT AND PUSH1 0x0 DUP1 ADD DUP4 PUSH1 0xA DUP2 LT ISZERO ISZERO PUSH2 0x1AA JUMPI INVALID JUMPDEST ADD SLOAD PUSH1 0x0 NOT AND EQ ISZERO PUSH2 0x1CC JUMPI PUSH1 0x0 PUSH1 0x14 ADD PUSH1 0x0 DUP2 SLOAD DUP1 SWAP3 SWAP2 SWAP1 PUSH1 0x1 ADD SWAP2 SWAP1 POP SSTORE POP JUMPDEST POP POP JUMP JUMPDEST PUSH1 0x0 DUP1 PUSH1 0x0 ADD DUP4 PUSH1 0xA DUP2 LT ISZERO ISZERO PUSH2 0x1E3 JUMPI INVALID JUMPDEST ADD SLOAD PUSH1 0x0 NOT AND DUP3 PUSH1 0x0 NOT AND EQ ISZERO PUSH2 0x1FD JUMPI PUSH1 0x1 SWAP1 POP PUSH2 0x202 JUMP JUMPDEST PUSH1 0x0 SWAP1 POP JUMPDEST SWAP3 SWAP2 POP POP JUMP JUMPDEST PUSH1 0x60 PUSH1 0x0 PUSH1 0x60 PUSH1 0x0 SWAP2 POP JUMPDEST PUSH1 0x20 DUP3 PUSH1 0xFF AND LT DUP1 ISZERO PUSH2 0x29E JUMPI POP PUSH1 0x0 PUSH32 0x100000000000000000000000000000000000000000000000000000000000000 MUL DUP5 DUP4 PUSH1 0xFF AND PUSH1 0x20 DUP2 LT ISZERO ISZERO PUSH2 0x256 JUMPI INVALID JUMPDEST BYTE PUSH32 0x100000000000000000000000000000000000000000000000000000000000000 MUL PUSH31 0xFFFFFFFFFFFFFFFFFFFFFFFFFFFFFFFFFFFFFFFFFFFFFFFFFFFFFFFFFFFFFF NOT AND EQ ISZERO JUMPDEST ISZERO PUSH2 0x2B0 JUMPI DUP2 DUP1 PUSH1 0x1 ADD SWAP3 POP POP PUSH2 0x213 JUMP JUMPDEST DUP2 PUSH1 0xFF AND PUSH1 0x40 MLOAD SWAP1 DUP1 DUP3 MSTORE DUP1 PUSH1 0x1F ADD PUSH1 0x1F NOT AND PUSH1 0x20 ADD DUP3 ADD PUSH1 0x40 MSTORE DUP1 ISZERO PUSH2 0x2E6 JUMPI DUP2 PUSH1 0x20 ADD PUSH1 0x20 DUP3 MUL DUP1 CODESIZE DUP4 CODECOPY DUP1 DUP3 ADD SWAP2 POP POP SWAP1 POP JUMPDEST POP SWAP1 POP PUSH1 0x0 SWAP2 POP JUMPDEST PUSH1 0x20 DUP3 PUSH1 0xFF AND LT DUP1 ISZERO PUSH2 0x379 JUMPI POP PUSH1 0x0 PUSH32 0x100000000000000000000000000000000000000000000000000000000000000 MUL DUP5 DUP4 PUSH1 0xFF AND PUSH1 0x20 DUP2 LT ISZERO ISZERO PUSH2 0x331 JUMPI INVALID JUMPDEST BYTE PUSH32 0x100000000000000000000000000000000000000000000000000000000000000 MUL PUSH31 0xFFFFFFFFFFFFFFFFFFFFFFFFFFFFFFFFFFFFFFFFFFFFFFFFFFFFFFFFFFFFFF NOT AND EQ ISZERO JUMPDEST ISZERO PUSH2 0x400 JUMPI DUP4 DUP3 PUSH1 0xFF AND PUSH1 0x20 DUP2 LT ISZERO ISZERO PUSH2 0x38F JUMPI INVALID JUMPDEST BYTE PUSH32 0x100000000000000000000000000000000000000000000000000000000000000 MUL DUP2 DUP4 PUSH1 0xFF AND DUP2 MLOAD DUP2 LT ISZERO ISZERO PUSH2 0x3C3 JUMPI INVALID JUMPDEST SWAP1 PUSH1 0x20 ADD ADD SWAP1 PUSH31 0xFFFFFFFFFFFFFFFFFFFFFFFFFFFFFFFFFFFFFFFFFFFFFFFFFFFFFFFFFFFFFF NOT AND SWAP1 DUP2 PUSH1 0x0 BYTE SWAP1 MSTORE8 POP DUP2 DUP1 PUSH1 0x1 ADD SWAP3 POP POP PUSH2 0x2EE JUMP JUMPDEST DUP1 SWAP3 POP POP POP SWAP2 SWAP1 POP JUMP STOP LOG1 PUSH6 0x627A7A723058 KECCAK256 PUSH24 0x8FE511E97753F598D516E57C8B45ECC969A58BFD218B32C7 DUP3 0x2e PUSH25 0x8BB6A03002900000000000000000000000000000000000000 "
				},
				"gasEstimates": {
					"creation": {
						"codeDepositCost": "215600",
						"executionCost": "257",
						"totalCost": "215857"
					},
					"external": {
						"bytes32ToString(bytes32)": "infinite",
						"checkSerial(uint256,bytes32)": "631",
						"regWarranty(uint256,bytes32)": "20757"
					},
					"internal": {
						"setProduct(string memory)": "infinite"
					}
				},
				"methodIdentifiers": {
					"bytes32ToString(bytes32)": "9201de55",
					"checkSerial(uint256,bytes32)": "60eaf1df",
					"regWarranty(uint256,bytes32)": "4716d27a"
				}
			},
			"userdoc": {
				"methods": {}
			}
		}
	}
}