{
	"contracts/Production.sol": {
		"Production": {
			"abi": [
				{
					"inputs": [
						{
							"internalType": "uint256",
							"name": "n",
							"type": "uint256"
						},
						{
							"internalType": "bytes32",
							"name": "sn",
							"type": "bytes32"
						}
					],
					"name": "checkSerial",
					"outputs": [
						{
							"internalType": "bool",
							"name": "",
							"type": "bool"
						}
					],
					"stateMutability": "view",
					"type": "function"
				},
				{
					"inputs": [],
					"name": "launch",
					"outputs": [],
					"stateMutability": "nonpayable",
					"type": "function"
				},
				{
					"inputs": [
						{
							"internalType": "uint256",
							"name": "Num",
							"type": "uint256"
						},
						{
							"internalType": "bytes32",
							"name": "regSer",
							"type": "bytes32"
						}
					],
					"name": "regWarranty",
					"outputs": [],
					"stateMutability": "nonpayable",
					"type": "function"
				}
			],
			"devdoc": {
				"kind": "dev",
				"methods": {},
				"version": 1
			},
			"evm": {
				"assembly": "    /* \"contracts/Production.sol\":67:1521  contract Production {\r... */\n  mstore(0x40, 0x80)\n  callvalue\n  dup1\n  iszero\n  tag_1\n  jumpi\n  0x00\n  dup1\n  revert\ntag_1:\n  pop\n  dataSize(sub_0)\n  dup1\n  dataOffset(sub_0)\n  0x00\n  codecopy\n  0x00\n  return\nstop\n\nsub_0: assembly {\n        /* \"contracts/Production.sol\":67:1521  contract Production {\r... */\n      mstore(0x40, 0x80)\n      callvalue\n      dup1\n      iszero\n      tag_1\n      jumpi\n      0x00\n      dup1\n      revert\n    tag_1:\n      pop\n      jumpi(tag_2, lt(calldatasize, 0x04))\n      shr(0xe0, calldataload(0x00))\n      dup1\n      0x01339c21\n      eq\n      tag_3\n      jumpi\n      dup1\n      0x4716d27a\n      eq\n      tag_4\n      jumpi\n      dup1\n      0x60eaf1df\n      eq\n      tag_5\n      jumpi\n    tag_2:\n      0x00\n      dup1\n      revert\n        /* \"contracts/Production.sol\":568:716  function launch() public {\r... */\n    tag_3:\n      tag_6\n      tag_7\n      jump\t// in\n    tag_6:\n      stop\n        /* \"contracts/Production.sol\":1321:1518  function regWarranty(uint Num, bytes32 regSer) public {\r... */\n    tag_4:\n      tag_8\n      0x04\n      dup1\n      calldatasize\n      sub\n      dup2\n      add\n      swap1\n      tag_9\n      swap2\n      swap1\n      tag_10\n      jump\t// in\n    tag_9:\n      tag_11\n      jump\t// in\n    tag_8:\n      stop\n        /* \"contracts/Production.sol\":728:927  function checkSerial(uint n, bytes32 sn) public view returns(bool) {\r... */\n    tag_5:\n      tag_12\n      0x04\n      dup1\n      calldatasize\n      sub\n      dup2\n      add\n      swap1\n      tag_13\n      swap2\n      swap1\n      tag_10\n      jump\t// in\n    tag_13:\n      tag_14\n      jump\t// in\n    tag_12:\n      mload(0x40)\n      tag_15\n      swap2\n      swap1\n      tag_16\n      jump\t// in\n    tag_15:\n      mload(0x40)\n      dup1\n      swap2\n      sub\n      swap1\n      return\n        /* \"contracts/Production.sol\":568:716  function launch() public {\r... */\n    tag_7:\n        /* \"contracts/Production.sol\":604:623  string memory first */\n      0x00\n        /* \"contracts/Production.sol\":604:678  string memory first = \"generate serial numbers for first product of brand\" */\n      mload(0x40)\n      dup1\n      0x60\n      add\n      0x40\n      mstore\n      dup1\n      0x32\n      dup2\n      mstore\n      0x20\n      add\n      data_5a19d642633a91c31f85d0822c26e95135627dc5a097ba962429fa73088e57ec\n      0x32\n      swap2\n      codecopy\n      swap1\n      pop\n        /* \"contracts/Production.sol\":689:706  setProduct(first) */\n      tag_18\n        /* \"contracts/Production.sol\":700:705  first */\n      dup2\n        /* \"contracts/Production.sol\":689:699  setProduct */\n      tag_19\n        /* \"contracts/Production.sol\":689:706  setProduct(first) */\n      jump\t// in\n    tag_18:\n        /* \"contracts/Production.sol\":568:716  function launch() public {\r... */\n      pop\n      jump\t// out\n        /* \"contracts/Production.sol\":1321:1518  function regWarranty(uint Num, bytes32 regSer) public {\r... */\n    tag_11:\n        /* \"contracts/Production.sol\":1415:1421  regSer */\n      dup1\n        /* \"contracts/Production.sol\":1390:1397  product */\n      0x00\n        /* \"contracts/Production.sol\":1390:1406  product.serialNo */\n      dup1\n      add\n        /* \"contracts/Production.sol\":1407:1410  Num */\n      dup4\n        /* \"contracts/Production.sol\":1390:1411  product.serialNo[Num] */\n      dup2\n      sload\n      dup2\n      lt\n      tag_21\n      jumpi\n      mstore(0x00, 0x4e487b7100000000000000000000000000000000000000000000000000000000)\n      mstore(0x04, 0x32)\n      revert(0x00, 0x24)\n    tag_21:\n      swap1\n      0x00\n      mstore\n      keccak256(0x00, 0x20)\n      add\n      sload\n        /* \"contracts/Production.sol\":1390:1421  product.serialNo[Num] == regSer */\n      eq\n        /* \"contracts/Production.sol\":1386:1511  if (product.serialNo[Num] == regSer) {\r... */\n      iszero\n      tag_23\n      jumpi\n        /* \"contracts/Production.sol\":1438:1445  product */\n      0x00\n        /* \"contracts/Production.sol\":1438:1456  product.registered */\n      0x01\n      add\n        /* \"contracts/Production.sol\":1462:1468  regSer */\n      dup2\n        /* \"contracts/Production.sol\":1438:1469  product.registered.push(regSer) */\n      swap1\n      dup1\n      0x01\n      dup2\n      sload\n      add\n      dup1\n      dup3\n      sstore\n      dup1\n      swap2\n      pop\n      pop\n      0x01\n      swap1\n      sub\n      swap1\n      0x00\n      mstore\n      keccak256(0x00, 0x20)\n      add\n      0x00\n      swap1\n      swap2\n      swap1\n      swap2\n      swap1\n      swap2\n      pop\n      sstore\n        /* \"contracts/Production.sol\":1484:1491  product */\n      0x00\n        /* \"contracts/Production.sol\":1484:1497  product.regNo */\n      0x02\n      add\n      0x00\n        /* \"contracts/Production.sol\":1484:1499  product.regNo++ */\n      dup2\n      sload\n      dup1\n      swap3\n      swap2\n      swap1\n      tag_25\n      swap1\n      tag_26\n      jump\t// in\n    tag_25:\n      swap2\n      swap1\n      pop\n      sstore\n      pop\n        /* \"contracts/Production.sol\":1386:1511  if (product.serialNo[Num] == regSer) {\r... */\n    tag_23:\n        /* \"contracts/Production.sol\":1321:1518  function regWarranty(uint Num, bytes32 regSer) public {\r... */\n      pop\n      pop\n      jump\t// out\n        /* \"contracts/Production.sol\":728:927  function checkSerial(uint n, bytes32 sn) public view returns(bool) {\r... */\n    tag_14:\n        /* \"contracts/Production.sol\":789:793  bool */\n      0x00\n        /* \"contracts/Production.sol\":816:823  product */\n      dup1\n        /* \"contracts/Production.sol\":816:832  product.serialNo */\n      0x00\n      add\n        /* \"contracts/Production.sol\":833:834  n */\n      dup4\n        /* \"contracts/Production.sol\":816:835  product.serialNo[n] */\n      dup2\n      sload\n      dup2\n      lt\n      tag_28\n      jumpi\n      mstore(0x00, 0x4e487b7100000000000000000000000000000000000000000000000000000000)\n      mstore(0x04, 0x32)\n      revert(0x00, 0x24)\n    tag_28:\n      swap1\n      0x00\n      mstore\n      keccak256(0x00, 0x20)\n      add\n      sload\n        /* \"contracts/Production.sol\":810:812  sn */\n      dup3\n        /* \"contracts/Production.sol\":810:835  sn == product.serialNo[n] */\n      eq\n        /* \"contracts/Production.sol\":806:920  if (sn == product.serialNo[n]) {\r... */\n      iszero\n      tag_30\n      jumpi\n        /* \"contracts/Production.sol\":859:863  true */\n      0x01\n        /* \"contracts/Production.sol\":852:863  return true */\n      swap1\n      pop\n      jump(tag_27)\n        /* \"contracts/Production.sol\":806:920  if (sn == product.serialNo[n]) {\r... */\n    tag_30:\n        /* \"contracts/Production.sol\":903:908  false */\n      0x00\n        /* \"contracts/Production.sol\":896:908  return false */\n      swap1\n      pop\n        /* \"contracts/Production.sol\":728:927  function checkSerial(uint n, bytes32 sn) public view returns(bool) {\r... */\n    tag_27:\n      swap3\n      swap2\n      pop\n      pop\n      jump\t// out\n        /* \"contracts/Production.sol\":233:560  function setProduct(string memory a) private {\r... */\n    tag_19:\n        /* \"contracts/Production.sol\":289:301  bytes32 hash */\n      0x00\n        /* \"contracts/Production.sol\":314:335  abi.encodePacked(\"a\") */\n      add(0x20, mload(0x40))\n      tag_33\n      swap1\n      tag_34\n      jump\t// in\n    tag_33:\n      mload(0x40)\n      0x20\n      dup2\n      dup4\n      sub\n      sub\n      dup2\n      mstore\n      swap1\n      0x40\n      mstore\n        /* \"contracts/Production.sol\":304:336  keccak256(abi.encodePacked(\"a\")) */\n      dup1\n      mload\n      swap1\n      0x20\n      add\n      keccak256\n        /* \"contracts/Production.sol\":289:336  bytes32 hash = keccak256(abi.encodePacked(\"a\")) */\n      swap1\n      pop\n        /* \"contracts/Production.sol\":347:354  product */\n      0x00\n        /* \"contracts/Production.sol\":347:363  product.serialNo */\n      dup1\n      add\n        /* \"contracts/Production.sol\":369:373  hash */\n      dup2\n        /* \"contracts/Production.sol\":347:374  product.serialNo.push(hash) */\n      swap1\n      dup1\n      0x01\n      dup2\n      sload\n      add\n      dup1\n      dup3\n      sstore\n      dup1\n      swap2\n      pop\n      pop\n      0x01\n      swap1\n      sub\n      swap1\n      0x00\n      mstore\n      keccak256(0x00, 0x20)\n      add\n      0x00\n      swap1\n      swap2\n      swap1\n      swap2\n      swap1\n      swap2\n      pop\n      sstore\n        /* \"contracts/Production.sol\":392:398  uint i */\n      0x00\n        /* \"contracts/Production.sol\":401:402  1 */\n      0x01\n        /* \"contracts/Production.sol\":392:402  uint i = 1 */\n      swap1\n      pop\n        /* \"contracts/Production.sol\":387:553  for (uint i = 1; i<10; i++) {\r... */\n    tag_36:\n        /* \"contracts/Production.sol\":406:408  10 */\n      0x0a\n        /* \"contracts/Production.sol\":404:405  i */\n      dup2\n        /* \"contracts/Production.sol\":404:408  i<10 */\n      lt\n        /* \"contracts/Production.sol\":387:553  for (uint i = 1; i<10; i++) {\r... */\n      iszero\n      tag_37\n      jumpi\n        /* \"contracts/Production.sol\":430:444  bytes32 serial */\n      0x00\n        /* \"contracts/Production.sol\":474:481  product */\n      dup1\n        /* \"contracts/Production.sol\":474:490  product.serialNo */\n      0x00\n      add\n        /* \"contracts/Production.sol\":493:494  1 */\n      0x01\n        /* \"contracts/Production.sol\":491:492  i */\n      dup4\n        /* \"contracts/Production.sol\":491:494  i-1 */\n      tag_39\n      swap2\n      swap1\n      tag_40\n      jump\t// in\n    tag_39:\n        /* \"contracts/Production.sol\":474:495  product.serialNo[i-1] */\n      dup2\n      sload\n      dup2\n      lt\n      tag_41\n      jumpi\n      mstore(0x00, 0x4e487b7100000000000000000000000000000000000000000000000000000000)\n      mstore(0x04, 0x32)\n      revert(0x00, 0x24)\n    tag_41:\n      swap1\n      0x00\n      mstore\n      keccak256(0x00, 0x20)\n      add\n      sload\n        /* \"contracts/Production.sol\":457:496  abi.encodePacked(product.serialNo[i-1]) */\n      add(0x20, mload(0x40))\n      tag_43\n      swap2\n      swap1\n      tag_44\n      jump\t// in\n    tag_43:\n      mload(0x40)\n      0x20\n      dup2\n      dup4\n      sub\n      sub\n      dup2\n      mstore\n      swap1\n      0x40\n      mstore\n        /* \"contracts/Production.sol\":447:497  keccak256(abi.encodePacked(product.serialNo[i-1])) */\n      dup1\n      mload\n      swap1\n      0x20\n      add\n      keccak256\n        /* \"contracts/Production.sol\":430:497  bytes32 serial = keccak256(abi.encodePacked(product.serialNo[i-1])) */\n      swap1\n      pop\n        /* \"contracts/Production.sol\":512:519  product */\n      0x00\n        /* \"contracts/Production.sol\":512:528  product.serialNo */\n      dup1\n      add\n        /* \"contracts/Production.sol\":534:540  serial */\n      dup2\n        /* \"contracts/Production.sol\":512:541  product.serialNo.push(serial) */\n      swap1\n      dup1\n      0x01\n      dup2\n      sload\n      add\n      dup1\n      dup3\n      sstore\n      dup1\n      swap2\n      pop\n      pop\n      0x01\n      swap1\n      sub\n      swap1\n      0x00\n      mstore\n      keccak256(0x00, 0x20)\n      add\n      0x00\n      swap1\n      swap2\n      swap1\n      swap2\n      swap1\n      swap2\n      pop\n      sstore\n        /* \"contracts/Production.sol\":387:553  for (uint i = 1; i<10; i++) {\r... */\n      pop\n        /* \"contracts/Production.sol\":410:413  i++ */\n      dup1\n      dup1\n      tag_46\n      swap1\n      tag_26\n      jump\t// in\n    tag_46:\n      swap2\n      pop\n      pop\n        /* \"contracts/Production.sol\":387:553  for (uint i = 1; i<10; i++) {\r... */\n      jump(tag_36)\n    tag_37:\n      pop\n        /* \"contracts/Production.sol\":233:560  function setProduct(string memory a) private {\r... */\n      pop\n      pop\n      jump\t// out\n        /* \"#utility.yul\":7:146   */\n    tag_48:\n      0x00\n        /* \"#utility.yul\":91:97   */\n      dup2\n        /* \"#utility.yul\":78:98   */\n      calldataload\n        /* \"#utility.yul\":69:98   */\n      swap1\n      pop\n        /* \"#utility.yul\":107:140   */\n      tag_50\n        /* \"#utility.yul\":134:139   */\n      dup2\n        /* \"#utility.yul\":107:140   */\n      tag_51\n      jump\t// in\n    tag_50:\n        /* \"#utility.yul\":59:146   */\n      swap3\n      swap2\n      pop\n      pop\n      jump\t// out\n        /* \"#utility.yul\":152:291   */\n    tag_52:\n      0x00\n        /* \"#utility.yul\":236:242   */\n      dup2\n        /* \"#utility.yul\":223:243   */\n      calldataload\n        /* \"#utility.yul\":214:243   */\n      swap1\n      pop\n        /* \"#utility.yul\":252:285   */\n      tag_54\n        /* \"#utility.yul\":279:284   */\n      dup2\n        /* \"#utility.yul\":252:285   */\n      tag_55\n      jump\t// in\n    tag_54:\n        /* \"#utility.yul\":204:291   */\n      swap3\n      swap2\n      pop\n      pop\n      jump\t// out\n        /* \"#utility.yul\":297:704   */\n    tag_10:\n      0x00\n      dup1\n        /* \"#utility.yul\":422:424   */\n      0x40\n        /* \"#utility.yul\":410:419   */\n      dup4\n        /* \"#utility.yul\":401:408   */\n      dup6\n        /* \"#utility.yul\":397:420   */\n      sub\n        /* \"#utility.yul\":393:425   */\n      slt\n        /* \"#utility.yul\":390:392   */\n      iszero\n      tag_57\n      jumpi\n        /* \"#utility.yul\":438:439   */\n      0x00\n        /* \"#utility.yul\":435:436   */\n      dup1\n        /* \"#utility.yul\":428:440   */\n      revert\n        /* \"#utility.yul\":390:392   */\n    tag_57:\n        /* \"#utility.yul\":481:482   */\n      0x00\n        /* \"#utility.yul\":506:559   */\n      tag_58\n        /* \"#utility.yul\":551:558   */\n      dup6\n        /* \"#utility.yul\":542:548   */\n      dup3\n        /* \"#utility.yul\":531:540   */\n      dup7\n        /* \"#utility.yul\":527:549   */\n      add\n        /* \"#utility.yul\":506:559   */\n      tag_52\n      jump\t// in\n    tag_58:\n        /* \"#utility.yul\":496:559   */\n      swap3\n      pop\n        /* \"#utility.yul\":452:569   */\n      pop\n        /* \"#utility.yul\":608:610   */\n      0x20\n        /* \"#utility.yul\":634:687   */\n      tag_59\n        /* \"#utility.yul\":679:686   */\n      dup6\n        /* \"#utility.yul\":670:676   */\n      dup3\n        /* \"#utility.yul\":659:668   */\n      dup7\n        /* \"#utility.yul\":655:677   */\n      add\n        /* \"#utility.yul\":634:687   */\n      tag_48\n      jump\t// in\n    tag_59:\n        /* \"#utility.yul\":624:687   */\n      swap2\n      pop\n        /* \"#utility.yul\":579:697   */\n      pop\n        /* \"#utility.yul\":380:704   */\n      swap3\n      pop\n      swap3\n      swap1\n      pop\n      jump\t// out\n        /* \"#utility.yul\":710:819   */\n    tag_60:\n        /* \"#utility.yul\":791:812   */\n      tag_62\n        /* \"#utility.yul\":806:811   */\n      dup2\n        /* \"#utility.yul\":791:812   */\n      tag_63\n      jump\t// in\n    tag_62:\n        /* \"#utility.yul\":786:789   */\n      dup3\n        /* \"#utility.yul\":779:813   */\n      mstore\n        /* \"#utility.yul\":769:819   */\n      pop\n      pop\n      jump\t// out\n        /* \"#utility.yul\":825:982   */\n    tag_64:\n        /* \"#utility.yul\":930:975   */\n      tag_66\n        /* \"#utility.yul\":950:974   */\n      tag_67\n        /* \"#utility.yul\":968:973   */\n      dup3\n        /* \"#utility.yul\":950:974   */\n      tag_68\n      jump\t// in\n    tag_67:\n        /* \"#utility.yul\":930:975   */\n      tag_69\n      jump\t// in\n    tag_66:\n        /* \"#utility.yul\":925:928   */\n      dup3\n        /* \"#utility.yul\":918:976   */\n      mstore\n        /* \"#utility.yul\":908:982   */\n      pop\n      pop\n      jump\t// out\n        /* \"#utility.yul\":988:1321   */\n    tag_70:\n      0x00\n        /* \"#utility.yul\":1169:1253   */\n      tag_72\n        /* \"#utility.yul\":1251:1252   */\n      0x01\n        /* \"#utility.yul\":1246:1249   */\n      dup4\n        /* \"#utility.yul\":1169:1253   */\n      tag_73\n      jump\t// in\n    tag_72:\n        /* \"#utility.yul\":1162:1253   */\n      swap2\n      pop\n        /* \"#utility.yul\":1283:1286   */\n      0x6100000000000000000000000000000000000000000000000000000000000000\n        /* \"#utility.yul\":1279:1280   */\n      0x00\n        /* \"#utility.yul\":1274:1277   */\n      dup4\n        /* \"#utility.yul\":1270:1281   */\n      add\n        /* \"#utility.yul\":1263:1287   */\n      mstore\n        /* \"#utility.yul\":1313:1314   */\n      0x01\n        /* \"#utility.yul\":1308:1311   */\n      dup3\n        /* \"#utility.yul\":1304:1315   */\n      add\n        /* \"#utility.yul\":1297:1315   */\n      swap1\n      pop\n        /* \"#utility.yul\":1152:1321   */\n      swap2\n      swap1\n      pop\n      jump\t// out\n        /* \"#utility.yul\":1327:1583   */\n    tag_44:\n      0x00\n        /* \"#utility.yul\":1454:1529   */\n      tag_75\n        /* \"#utility.yul\":1525:1528   */\n      dup3\n        /* \"#utility.yul\":1516:1522   */\n      dup5\n        /* \"#utility.yul\":1454:1529   */\n      tag_64\n      jump\t// in\n    tag_75:\n        /* \"#utility.yul\":1554:1556   */\n      0x20\n        /* \"#utility.yul\":1549:1552   */\n      dup3\n        /* \"#utility.yul\":1545:1557   */\n      add\n        /* \"#utility.yul\":1538:1557   */\n      swap2\n      pop\n        /* \"#utility.yul\":1574:1577   */\n      dup2\n        /* \"#utility.yul\":1567:1577   */\n      swap1\n      pop\n        /* \"#utility.yul\":1443:1583   */\n      swap3\n      swap2\n      pop\n      pop\n      jump\t// out\n        /* \"#utility.yul\":1589:1970   */\n    tag_34:\n      0x00\n        /* \"#utility.yul\":1796:1944   */\n      tag_77\n        /* \"#utility.yul\":1940:1943   */\n      dup3\n        /* \"#utility.yul\":1796:1944   */\n      tag_70\n      jump\t// in\n    tag_77:\n        /* \"#utility.yul\":1789:1944   */\n      swap2\n      pop\n        /* \"#utility.yul\":1961:1964   */\n      dup2\n        /* \"#utility.yul\":1954:1964   */\n      swap1\n      pop\n        /* \"#utility.yul\":1778:1970   */\n      swap2\n      swap1\n      pop\n      jump\t// out\n        /* \"#utility.yul\":1976:2186   */\n    tag_16:\n      0x00\n        /* \"#utility.yul\":2101:2103   */\n      0x20\n        /* \"#utility.yul\":2090:2099   */\n      dup3\n        /* \"#utility.yul\":2086:2104   */\n      add\n        /* \"#utility.yul\":2078:2104   */\n      swap1\n      pop\n        /* \"#utility.yul\":2114:2179   */\n      tag_79\n        /* \"#utility.yul\":2176:2177   */\n      0x00\n        /* \"#utility.yul\":2165:2174   */\n      dup4\n        /* \"#utility.yul\":2161:2178   */\n      add\n        /* \"#utility.yul\":2152:2158   */\n      dup5\n        /* \"#utility.yul\":2114:2179   */\n      tag_60\n      jump\t// in\n    tag_79:\n        /* \"#utility.yul\":2068:2186   */\n      swap3\n      swap2\n      pop\n      pop\n      jump\t// out\n        /* \"#utility.yul\":2192:2340   */\n    tag_73:\n      0x00\n        /* \"#utility.yul\":2331:2334   */\n      dup2\n        /* \"#utility.yul\":2316:2334   */\n      swap1\n      pop\n        /* \"#utility.yul\":2306:2340   */\n      swap3\n      swap2\n      pop\n      pop\n      jump\t// out\n        /* \"#utility.yul\":2346:2537   */\n    tag_40:\n      0x00\n        /* \"#utility.yul\":2406:2426   */\n      tag_82\n        /* \"#utility.yul\":2424:2425   */\n      dup3\n        /* \"#utility.yul\":2406:2426   */\n      tag_83\n      jump\t// in\n    tag_82:\n        /* \"#utility.yul\":2401:2426   */\n      swap2\n      pop\n        /* \"#utility.yul\":2440:2460   */\n      tag_84\n        /* \"#utility.yul\":2458:2459   */\n      dup4\n        /* \"#utility.yul\":2440:2460   */\n      tag_83\n      jump\t// in\n    tag_84:\n        /* \"#utility.yul\":2435:2460   */\n      swap3\n      pop\n        /* \"#utility.yul\":2479:2480   */\n      dup3\n        /* \"#utility.yul\":2476:2477   */\n      dup3\n        /* \"#utility.yul\":2473:2481   */\n      lt\n        /* \"#utility.yul\":2470:2472   */\n      iszero\n      tag_85\n      jumpi\n        /* \"#utility.yul\":2484:2502   */\n      tag_86\n      tag_87\n      jump\t// in\n    tag_86:\n        /* \"#utility.yul\":2470:2472   */\n    tag_85:\n        /* \"#utility.yul\":2529:2530   */\n      dup3\n        /* \"#utility.yul\":2526:2527   */\n      dup3\n        /* \"#utility.yul\":2522:2531   */\n      sub\n        /* \"#utility.yul\":2514:2531   */\n      swap1\n      pop\n        /* \"#utility.yul\":2391:2537   */\n      swap3\n      swap2\n      pop\n      pop\n      jump\t// out\n        /* \"#utility.yul\":2543:2633   */\n    tag_63:\n      0x00\n        /* \"#utility.yul\":2620:2625   */\n      dup2\n        /* \"#utility.yul\":2613:2626   */\n      iszero\n        /* \"#utility.yul\":2606:2627   */\n      iszero\n        /* \"#utility.yul\":2595:2627   */\n      swap1\n      pop\n        /* \"#utility.yul\":2585:2633   */\n      swap2\n      swap1\n      pop\n      jump\t// out\n        /* \"#utility.yul\":2639:2716   */\n    tag_68:\n      0x00\n        /* \"#utility.yul\":2705:2710   */\n      dup2\n        /* \"#utility.yul\":2694:2710   */\n      swap1\n      pop\n        /* \"#utility.yul\":2684:2716   */\n      swap2\n      swap1\n      pop\n      jump\t// out\n        /* \"#utility.yul\":2722:2799   */\n    tag_83:\n      0x00\n        /* \"#utility.yul\":2788:2793   */\n      dup2\n        /* \"#utility.yul\":2777:2793   */\n      swap1\n      pop\n        /* \"#utility.yul\":2767:2799   */\n      swap2\n      swap1\n      pop\n      jump\t// out\n        /* \"#utility.yul\":2805:3038   */\n    tag_26:\n      0x00\n        /* \"#utility.yul\":2867:2891   */\n      tag_92\n        /* \"#utility.yul\":2885:2890   */\n      dup3\n        /* \"#utility.yul\":2867:2891   */\n      tag_83\n      jump\t// in\n    tag_92:\n        /* \"#utility.yul\":2858:2891   */\n      swap2\n      pop\n        /* \"#utility.yul\":2913:2979   */\n      0xffffffffffffffffffffffffffffffffffffffffffffffffffffffffffffffff\n        /* \"#utility.yul\":2906:2911   */\n      dup3\n        /* \"#utility.yul\":2903:2980   */\n      eq\n        /* \"#utility.yul\":2900:2902   */\n      iszero\n      tag_93\n      jumpi\n        /* \"#utility.yul\":2983:3001   */\n      tag_94\n      tag_87\n      jump\t// in\n    tag_94:\n        /* \"#utility.yul\":2900:2902   */\n    tag_93:\n        /* \"#utility.yul\":3030:3031   */\n      0x01\n        /* \"#utility.yul\":3023:3028   */\n      dup3\n        /* \"#utility.yul\":3019:3032   */\n      add\n        /* \"#utility.yul\":3012:3032   */\n      swap1\n      pop\n        /* \"#utility.yul\":2848:3038   */\n      swap2\n      swap1\n      pop\n      jump\t// out\n        /* \"#utility.yul\":3044:3123   */\n    tag_69:\n      0x00\n        /* \"#utility.yul\":3112:3117   */\n      dup2\n        /* \"#utility.yul\":3101:3117   */\n      swap1\n      pop\n        /* \"#utility.yul\":3091:3123   */\n      swap2\n      swap1\n      pop\n      jump\t// out\n        /* \"#utility.yul\":3129:3309   */\n    tag_87:\n        /* \"#utility.yul\":3177:3254   */\n      0x4e487b7100000000000000000000000000000000000000000000000000000000\n        /* \"#utility.yul\":3174:3175   */\n      0x00\n        /* \"#utility.yul\":3167:3255   */\n      mstore\n        /* \"#utility.yul\":3274:3278   */\n      0x11\n        /* \"#utility.yul\":3271:3272   */\n      0x04\n        /* \"#utility.yul\":3264:3279   */\n      mstore\n        /* \"#utility.yul\":3298:3302   */\n      0x24\n        /* \"#utility.yul\":3295:3296   */\n      0x00\n        /* \"#utility.yul\":3288:3303   */\n      revert\n        /* \"#utility.yul\":3315:3437   */\n    tag_51:\n        /* \"#utility.yul\":3388:3412   */\n      tag_98\n        /* \"#utility.yul\":3406:3411   */\n      dup2\n        /* \"#utility.yul\":3388:3412   */\n      tag_68\n      jump\t// in\n    tag_98:\n        /* \"#utility.yul\":3381:3386   */\n      dup2\n        /* \"#utility.yul\":3378:3413   */\n      eq\n        /* \"#utility.yul\":3368:3370   */\n      tag_99\n      jumpi\n        /* \"#utility.yul\":3427:3428   */\n      0x00\n        /* \"#utility.yul\":3424:3425   */\n      dup1\n        /* \"#utility.yul\":3417:3429   */\n      revert\n        /* \"#utility.yul\":3368:3370   */\n    tag_99:\n        /* \"#utility.yul\":3358:3437   */\n      pop\n      jump\t// out\n        /* \"#utility.yul\":3443:3565   */\n    tag_55:\n        /* \"#utility.yul\":3516:3540   */\n      tag_101\n        /* \"#utility.yul\":3534:3539   */\n      dup2\n        /* \"#utility.yul\":3516:3540   */\n      tag_83\n      jump\t// in\n    tag_101:\n        /* \"#utility.yul\":3509:3514   */\n      dup2\n        /* \"#utility.yul\":3506:3541   */\n      eq\n        /* \"#utility.yul\":3496:3498   */\n      tag_102\n      jumpi\n        /* \"#utility.yul\":3555:3556   */\n      0x00\n        /* \"#utility.yul\":3552:3553   */\n      dup1\n        /* \"#utility.yul\":3545:3557   */\n      revert\n        /* \"#utility.yul\":3496:3498   */\n    tag_102:\n        /* \"#utility.yul\":3486:3565   */\n      pop\n      jump\t// out\n    stop\n    data_5a19d642633a91c31f85d0822c26e95135627dc5a097ba962429fa73088e57ec 67656e65726174652073657269616c206e756d6265727320666f722066697273742070726f64756374206f66206272616e64\n\n    auxdata: 0xa26469706673582212204d8e75baa102821054cbc447b5ff164bafb20d7e5b30119ae0a9dcb6c597213d64736f6c63430008000033\n}\n",
				"bytecode": {
					"linkReferences": {},
					"object": "608060405234801561001057600080fd5b50610576806100206000396000f3fe608060405234801561001057600080fd5b50600436106100415760003560e01c806301339c21146100465780634716d27a1461005057806360eaf1df1461006c575b600080fd5b61004e61009c565b005b61006a60048036038101906100659190610312565b6100c5565b005b61008660048036038101906100819190610312565b61015f565b60405161009391906103e4565b60405180910390f35b600060405180606001604052806032815260200161050f6032913990506100c2816101c3565b50565b80600080018381548110610102577f4e487b7100000000000000000000000000000000000000000000000000000000600052603260045260246000fd5b9060005260206000200154141561015b576000600101819080600181540180825580915050600190039060005260206000200160009091909190915055600060020160008154809291906101559061045e565b91905055505b5050565b600080600001838154811061019d577f4e487b7100000000000000000000000000000000000000000000000000000000600052603260045260246000fd5b90600052602060002001548214156101b857600190506101bd565b600090505b92915050565b60006040516020016101d4906103cf565b604051602081830303815290604052805190602001209050600080018190806001815401808255809150506001900390600052602060002001600090919091909150556000600190505b600a8110156102e35760008060000160018361023a919061040a565b81548110610271577f4e487b7100000000000000000000000000000000000000000000000000000000600052603260045260246000fd5b906000526020600020015460405160200161028c91906103b4565b604051602081830303815290604052805190602001209050600080018190806001815401808255809150506001900390600052602060002001600090919091909150555080806102db9061045e565b91505061021e565b505050565b6000813590506102f7816104e0565b92915050565b60008135905061030c816104f7565b92915050565b6000806040838503121561032557600080fd5b6000610333858286016102fd565b9250506020610344858286016102e8565b9150509250929050565b6103578161043e565b82525050565b61036e6103698261044a565b6104a7565b82525050565b60006103816001836103ff565b91507f61000000000000000000000000000000000000000000000000000000000000006000830152600182019050919050565b60006103c0828461035d565b60208201915081905092915050565b60006103da82610374565b9150819050919050565b60006020820190506103f9600083018461034e565b92915050565b600081905092915050565b600061041582610454565b915061042083610454565b925082821015610433576104326104b1565b5b828203905092915050565b60008115159050919050565b6000819050919050565b6000819050919050565b600061046982610454565b91507fffffffffffffffffffffffffffffffffffffffffffffffffffffffffffffffff82141561049c5761049b6104b1565b5b600182019050919050565b6000819050919050565b7f4e487b7100000000000000000000000000000000000000000000000000000000600052601160045260246000fd5b6104e98161044a565b81146104f457600080fd5b50565b61050081610454565b811461050b57600080fd5b5056fe67656e65726174652073657269616c206e756d6265727320666f722066697273742070726f64756374206f66206272616e64a26469706673582212204d8e75baa102821054cbc447b5ff164bafb20d7e5b30119ae0a9dcb6c597213d64736f6c63430008000033",
					"opcodes": "PUSH1 0x80 PUSH1 0x40 MSTORE CALLVALUE DUP1 ISZERO PUSH2 0x10 JUMPI PUSH1 0x0 DUP1 REVERT JUMPDEST POP PUSH2 0x576 DUP1 PUSH2 0x20 PUSH1 0x0 CODECOPY PUSH1 0x0 RETURN INVALID PUSH1 0x80 PUSH1 0x40 MSTORE CALLVALUE DUP1 ISZERO PUSH2 0x10 JUMPI PUSH1 0x0 DUP1 REVERT JUMPDEST POP PUSH1 0x4 CALLDATASIZE LT PUSH2 0x41 JUMPI PUSH1 0x0 CALLDATALOAD PUSH1 0xE0 SHR DUP1 PUSH4 0x1339C21 EQ PUSH2 0x46 JUMPI DUP1 PUSH4 0x4716D27A EQ PUSH2 0x50 JUMPI DUP1 PUSH4 0x60EAF1DF EQ PUSH2 0x6C JUMPI JUMPDEST PUSH1 0x0 DUP1 REVERT JUMPDEST PUSH2 0x4E PUSH2 0x9C JUMP JUMPDEST STOP JUMPDEST PUSH2 0x6A PUSH1 0x4 DUP1 CALLDATASIZE SUB DUP2 ADD SWAP1 PUSH2 0x65 SWAP2 SWAP1 PUSH2 0x312 JUMP JUMPDEST PUSH2 0xC5 JUMP JUMPDEST STOP JUMPDEST PUSH2 0x86 PUSH1 0x4 DUP1 CALLDATASIZE SUB DUP2 ADD SWAP1 PUSH2 0x81 SWAP2 SWAP1 PUSH2 0x312 JUMP JUMPDEST PUSH2 0x15F JUMP JUMPDEST PUSH1 0x40 MLOAD PUSH2 0x93 SWAP2 SWAP1 PUSH2 0x3E4 JUMP JUMPDEST PUSH1 0x40 MLOAD DUP1 SWAP2 SUB SWAP1 RETURN JUMPDEST PUSH1 0x0 PUSH1 0x40 MLOAD DUP1 PUSH1 0x60 ADD PUSH1 0x40 MSTORE DUP1 PUSH1 0x32 DUP2 MSTORE PUSH1 0x20 ADD PUSH2 0x50F PUSH1 0x32 SWAP2 CODECOPY SWAP1 POP PUSH2 0xC2 DUP2 PUSH2 0x1C3 JUMP JUMPDEST POP JUMP JUMPDEST DUP1 PUSH1 0x0 DUP1 ADD DUP4 DUP2 SLOAD DUP2 LT PUSH2 0x102 JUMPI PUSH32 0x4E487B7100000000000000000000000000000000000000000000000000000000 PUSH1 0x0 MSTORE PUSH1 0x32 PUSH1 0x4 MSTORE PUSH1 0x24 PUSH1 0x0 REVERT JUMPDEST SWAP1 PUSH1 0x0 MSTORE PUSH1 0x20 PUSH1 0x0 KECCAK256 ADD SLOAD EQ ISZERO PUSH2 0x15B JUMPI PUSH1 0x0 PUSH1 0x1 ADD DUP2 SWAP1 DUP1 PUSH1 0x1 DUP2 SLOAD ADD DUP1 DUP3 SSTORE DUP1 SWAP2 POP POP PUSH1 0x1 SWAP1 SUB SWAP1 PUSH1 0x0 MSTORE PUSH1 0x20 PUSH1 0x0 KECCAK256 ADD PUSH1 0x0 SWAP1 SWAP2 SWAP1 SWAP2 SWAP1 SWAP2 POP SSTORE PUSH1 0x0 PUSH1 0x2 ADD PUSH1 0x0 DUP2 SLOAD DUP1 SWAP3 SWAP2 SWAP1 PUSH2 0x155 SWAP1 PUSH2 0x45E JUMP JUMPDEST SWAP2 SWAP1 POP SSTORE POP JUMPDEST POP POP JUMP JUMPDEST PUSH1 0x0 DUP1 PUSH1 0x0 ADD DUP4 DUP2 SLOAD DUP2 LT PUSH2 0x19D JUMPI PUSH32 0x4E487B7100000000000000000000000000000000000000000000000000000000 PUSH1 0x0 MSTORE PUSH1 0x32 PUSH1 0x4 MSTORE PUSH1 0x24 PUSH1 0x0 REVERT JUMPDEST SWAP1 PUSH1 0x0 MSTORE PUSH1 0x20 PUSH1 0x0 KECCAK256 ADD SLOAD DUP3 EQ ISZERO PUSH2 0x1B8 JUMPI PUSH1 0x1 SWAP1 POP PUSH2 0x1BD JUMP JUMPDEST PUSH1 0x0 SWAP1 POP JUMPDEST SWAP3 SWAP2 POP POP JUMP JUMPDEST PUSH1 0x0 PUSH1 0x40 MLOAD PUSH1 0x20 ADD PUSH2 0x1D4 SWAP1 PUSH2 0x3CF JUMP JUMPDEST PUSH1 0x40 MLOAD PUSH1 0x20 DUP2 DUP4 SUB SUB DUP2 MSTORE SWAP1 PUSH1 0x40 MSTORE DUP1 MLOAD SWAP1 PUSH1 0x20 ADD KECCAK256 SWAP1 POP PUSH1 0x0 DUP1 ADD DUP2 SWAP1 DUP1 PUSH1 0x1 DUP2 SLOAD ADD DUP1 DUP3 SSTORE DUP1 SWAP2 POP POP PUSH1 0x1 SWAP1 SUB SWAP1 PUSH1 0x0 MSTORE PUSH1 0x20 PUSH1 0x0 KECCAK256 ADD PUSH1 0x0 SWAP1 SWAP2 SWAP1 SWAP2 SWAP1 SWAP2 POP SSTORE PUSH1 0x0 PUSH1 0x1 SWAP1 POP JUMPDEST PUSH1 0xA DUP2 LT ISZERO PUSH2 0x2E3 JUMPI PUSH1 0x0 DUP1 PUSH1 0x0 ADD PUSH1 0x1 DUP4 PUSH2 0x23A SWAP2 SWAP1 PUSH2 0x40A JUMP JUMPDEST DUP2 SLOAD DUP2 LT PUSH2 0x271 JUMPI PUSH32 0x4E487B7100000000000000000000000000000000000000000000000000000000 PUSH1 0x0 MSTORE PUSH1 0x32 PUSH1 0x4 MSTORE PUSH1 0x24 PUSH1 0x0 REVERT JUMPDEST SWAP1 PUSH1 0x0 MSTORE PUSH1 0x20 PUSH1 0x0 KECCAK256 ADD SLOAD PUSH1 0x40 MLOAD PUSH1 0x20 ADD PUSH2 0x28C SWAP2 SWAP1 PUSH2 0x3B4 JUMP JUMPDEST PUSH1 0x40 MLOAD PUSH1 0x20 DUP2 DUP4 SUB SUB DUP2 MSTORE SWAP1 PUSH1 0x40 MSTORE DUP1 MLOAD SWAP1 PUSH1 0x20 ADD KECCAK256 SWAP1 POP PUSH1 0x0 DUP1 ADD DUP2 SWAP1 DUP1 PUSH1 0x1 DUP2 SLOAD ADD DUP1 DUP3 SSTORE DUP1 SWAP2 POP POP PUSH1 0x1 SWAP1 SUB SWAP1 PUSH1 0x0 MSTORE PUSH1 0x20 PUSH1 0x0 KECCAK256 ADD PUSH1 0x0 SWAP1 SWAP2 SWAP1 SWAP2 SWAP1 SWAP2 POP SSTORE POP DUP1 DUP1 PUSH2 0x2DB SWAP1 PUSH2 0x45E JUMP JUMPDEST SWAP2 POP POP PUSH2 0x21E JUMP JUMPDEST POP POP POP JUMP JUMPDEST PUSH1 0x0 DUP2 CALLDATALOAD SWAP1 POP PUSH2 0x2F7 DUP2 PUSH2 0x4E0 JUMP JUMPDEST SWAP3 SWAP2 POP POP JUMP JUMPDEST PUSH1 0x0 DUP2 CALLDATALOAD SWAP1 POP PUSH2 0x30C DUP2 PUSH2 0x4F7 JUMP JUMPDEST SWAP3 SWAP2 POP POP JUMP JUMPDEST PUSH1 0x0 DUP1 PUSH1 0x40 DUP4 DUP6 SUB SLT ISZERO PUSH2 0x325 JUMPI PUSH1 0x0 DUP1 REVERT JUMPDEST PUSH1 0x0 PUSH2 0x333 DUP6 DUP3 DUP7 ADD PUSH2 0x2FD JUMP JUMPDEST SWAP3 POP POP PUSH1 0x20 PUSH2 0x344 DUP6 DUP3 DUP7 ADD PUSH2 0x2E8 JUMP JUMPDEST SWAP2 POP POP SWAP3 POP SWAP3 SWAP1 POP JUMP JUMPDEST PUSH2 0x357 DUP2 PUSH2 0x43E JUMP JUMPDEST DUP3 MSTORE POP POP JUMP JUMPDEST PUSH2 0x36E PUSH2 0x369 DUP3 PUSH2 0x44A JUMP JUMPDEST PUSH2 0x4A7 JUMP JUMPDEST DUP3 MSTORE POP POP JUMP JUMPDEST PUSH1 0x0 PUSH2 0x381 PUSH1 0x1 DUP4 PUSH2 0x3FF JUMP JUMPDEST SWAP2 POP PUSH32 0x6100000000000000000000000000000000000000000000000000000000000000 PUSH1 0x0 DUP4 ADD MSTORE PUSH1 0x1 DUP3 ADD SWAP1 POP SWAP2 SWAP1 POP JUMP JUMPDEST PUSH1 0x0 PUSH2 0x3C0 DUP3 DUP5 PUSH2 0x35D JUMP JUMPDEST PUSH1 0x20 DUP3 ADD SWAP2 POP DUP2 SWAP1 POP SWAP3 SWAP2 POP POP JUMP JUMPDEST PUSH1 0x0 PUSH2 0x3DA DUP3 PUSH2 0x374 JUMP JUMPDEST SWAP2 POP DUP2 SWAP1 POP SWAP2 SWAP1 POP JUMP JUMPDEST PUSH1 0x0 PUSH1 0x20 DUP3 ADD SWAP1 POP PUSH2 0x3F9 PUSH1 0x0 DUP4 ADD DUP5 PUSH2 0x34E JUMP JUMPDEST SWAP3 SWAP2 POP POP JUMP JUMPDEST PUSH1 0x0 DUP2 SWAP1 POP SWAP3 SWAP2 POP POP JUMP JUMPDEST PUSH1 0x0 PUSH2 0x415 DUP3 PUSH2 0x454 JUMP JUMPDEST SWAP2 POP PUSH2 0x420 DUP4 PUSH2 0x454 JUMP JUMPDEST SWAP3 POP DUP3 DUP3 LT ISZERO PUSH2 0x433 JUMPI PUSH2 0x432 PUSH2 0x4B1 JUMP JUMPDEST JUMPDEST DUP3 DUP3 SUB SWAP1 POP SWAP3 SWAP2 POP POP JUMP JUMPDEST PUSH1 0x0 DUP2 ISZERO ISZERO SWAP1 POP SWAP2 SWAP1 POP JUMP JUMPDEST PUSH1 0x0 DUP2 SWAP1 POP SWAP2 SWAP1 POP JUMP JUMPDEST PUSH1 0x0 DUP2 SWAP1 POP SWAP2 SWAP1 POP JUMP JUMPDEST PUSH1 0x0 PUSH2 0x469 DUP3 PUSH2 0x454 JUMP JUMPDEST SWAP2 POP PUSH32 0xFFFFFFFFFFFFFFFFFFFFFFFFFFFFFFFFFFFFFFFFFFFFFFFFFFFFFFFFFFFFFFFF DUP3 EQ ISZERO PUSH2 0x49C JUMPI PUSH2 0x49B PUSH2 0x4B1 JUMP JUMPDEST JUMPDEST PUSH1 0x1 DUP3 ADD SWAP1 POP SWAP2 SWAP1 POP JUMP JUMPDEST PUSH1 0x0 DUP2 SWAP1 POP SWAP2 SWAP1 POP JUMP JUMPDEST PUSH32 0x4E487B7100000000000000000000000000000000000000000000000000000000 PUSH1 0x0 MSTORE PUSH1 0x11 PUSH1 0x4 MSTORE PUSH1 0x24 PUSH1 0x0 REVERT JUMPDEST PUSH2 0x4E9 DUP2 PUSH2 0x44A JUMP JUMPDEST DUP2 EQ PUSH2 0x4F4 JUMPI PUSH1 0x0 DUP1 REVERT JUMPDEST POP JUMP JUMPDEST PUSH2 0x500 DUP2 PUSH2 0x454 JUMP JUMPDEST DUP2 EQ PUSH2 0x50B JUMPI PUSH1 0x0 DUP1 REVERT JUMPDEST POP JUMP INVALID PUSH8 0x656E657261746520 PUSH20 0x657269616C206E756D6265727320666F72206669 PUSH19 0x73742070726F64756374206F66206272616E64 LOG2 PUSH5 0x6970667358 0x22 SLT KECCAK256 0x4D DUP15 PUSH22 0xBAA102821054CBC447B5FF164BAFB20D7E5B30119AE0 0xA9 0xDC 0xB6 0xC5 SWAP8 0x21 RETURNDATASIZE PUSH5 0x736F6C6343 STOP ADDMOD STOP STOP CALLER "
				},
				"gasEstimates": {
					"creation": {
						"codeDepositCost": "279600",
						"executionCost": "318",
						"totalCost": "279918"
					},
					"external": {
						"checkSerial(uint256,bytes32)": "2526",
						"launch()": "infinite",
						"regWarranty(uint256,bytes32)": "infinite"
					},
					"internal": {
						"bytes32ToString(bytes32)": "infinite",
						"setProduct(string memory)": "infinite"
					}
				},
				"methodIdentifiers": {
					"checkSerial(uint256,bytes32)": "60eaf1df",
					"launch()": "01339c21",
					"regWarranty(uint256,bytes32)": "4716d27a"
				}
			},
			"storageLayout": {
				"storage": [
					{
						"astId": 13,
						"contract": "contracts/Production.sol:Production",
						"label": "product",
						"offset": 0,
						"slot": "0",
						"type": "t_struct(Product)10_storage"
					}
				],
				"types": {
					"t_array(t_bytes32)dyn_storage": {
						"base": "t_bytes32",
						"encoding": "dynamic_array",
						"label": "bytes32[]",
						"numberOfBytes": "32"
					},
					"t_bytes32": {
						"encoding": "inplace",
						"label": "bytes32",
						"numberOfBytes": "32"
					},
					"t_struct(Product)10_storage": {
						"encoding": "inplace",
						"label": "struct Production.Product",
						"members": [
							{
								"astId": 4,
								"contract": "contracts/Production.sol:Production",
								"label": "serialNo",
								"offset": 0,
								"slot": "0",
								"type": "t_array(t_bytes32)dyn_storage"
							},
							{
								"astId": 7,
								"contract": "contracts/Production.sol:Production",
								"label": "registered",
								"offset": 0,
								"slot": "1",
								"type": "t_array(t_bytes32)dyn_storage"
							},
							{
								"astId": 9,
								"contract": "contracts/Production.sol:Production",
								"label": "regNo",
								"offset": 0,
								"slot": "2",
								"type": "t_uint256"
							}
						],
						"numberOfBytes": "96"
					},
					"t_uint256": {
						"encoding": "inplace",
						"label": "uint256",
						"numberOfBytes": "32"
					}
				}
			},
			"userdoc": {
				"kind": "user",
				"methods": {},
				"version": 1
			}
		}
	}
}