{
	"contracts/Production.sol": {
		"Production": {
			"abi": [
				{
					"inputs": [
						{
							"internalType": "uint256",
							"name": "n",
							"type": "uint256"
						},
						{
							"internalType": "bytes32",
							"name": "sn",
							"type": "bytes32"
						}
					],
					"name": "checkSerial",
					"outputs": [
						{
							"internalType": "bool",
							"name": "",
							"type": "bool"
						}
					],
					"stateMutability": "view",
					"type": "function"
				},
				{
					"inputs": [],
					"name": "launch",
					"outputs": [],
					"stateMutability": "nonpayable",
					"type": "function"
				},
				{
					"inputs": [
						{
							"internalType": "uint256",
							"name": "Num",
							"type": "uint256"
						},
						{
							"internalType": "bytes32",
							"name": "regSer",
							"type": "bytes32"
						}
					],
					"name": "regWarranty",
					"outputs": [],
					"stateMutability": "nonpayable",
					"type": "function"
				}
			],
			"devdoc": {
				"kind": "dev",
				"methods": {},
				"version": 1
			},
			"evm": {
				"assembly": "    /* \"contracts/Production.sol\":67:1518  contract Production {\r... */\n  mstore(0x40, 0x80)\n  callvalue\n  dup1\n  iszero\n  tag_1\n  jumpi\n  0x00\n  dup1\n  revert\ntag_1:\n  pop\n  dataSize(sub_0)\n  dup1\n  dataOffset(sub_0)\n  0x00\n  codecopy\n  0x00\n  return\nstop\n\nsub_0: assembly {\n        /* \"contracts/Production.sol\":67:1518  contract Production {\r... */\n      mstore(0x40, 0x80)\n      callvalue\n      dup1\n      iszero\n      tag_1\n      jumpi\n      0x00\n      dup1\n      revert\n    tag_1:\n      pop\n      jumpi(tag_2, lt(calldatasize, 0x04))\n      shr(0xe0, calldataload(0x00))\n      dup1\n      0x01339c21\n      eq\n      tag_3\n      jumpi\n      dup1\n      0x4716d27a\n      eq\n      tag_4\n      jumpi\n      dup1\n      0x60eaf1df\n      eq\n      tag_5\n      jumpi\n    tag_2:\n      0x00\n      dup1\n      revert\n        /* \"contracts/Production.sol\":565:713  function launch() public {\r... */\n    tag_3:\n      tag_6\n      tag_7\n      jump\t// in\n    tag_6:\n      stop\n        /* \"contracts/Production.sol\":1318:1515  function regWarranty(uint Num, bytes32 regSer) public {\r... */\n    tag_4:\n      tag_8\n      0x04\n      dup1\n      calldatasize\n      sub\n      dup2\n      add\n      swap1\n      tag_9\n      swap2\n      swap1\n      tag_10\n      jump\t// in\n    tag_9:\n      tag_11\n      jump\t// in\n    tag_8:\n      stop\n        /* \"contracts/Production.sol\":725:924  function checkSerial(uint n, bytes32 sn) public view returns(bool) {\r... */\n    tag_5:\n      tag_12\n      0x04\n      dup1\n      calldatasize\n      sub\n      dup2\n      add\n      swap1\n      tag_13\n      swap2\n      swap1\n      tag_10\n      jump\t// in\n    tag_13:\n      tag_14\n      jump\t// in\n    tag_12:\n      mload(0x40)\n      tag_15\n      swap2\n      swap1\n      tag_16\n      jump\t// in\n    tag_15:\n      mload(0x40)\n      dup1\n      swap2\n      sub\n      swap1\n      return\n        /* \"contracts/Production.sol\":565:713  function launch() public {\r... */\n    tag_7:\n        /* \"contracts/Production.sol\":601:620  string memory first */\n      0x00\n        /* \"contracts/Production.sol\":601:675  string memory first = \"generate serial numbers for first product of brand\" */\n      mload(0x40)\n      dup1\n      0x60\n      add\n      0x40\n      mstore\n      dup1\n      0x32\n      dup2\n      mstore\n      0x20\n      add\n      data_5a19d642633a91c31f85d0822c26e95135627dc5a097ba962429fa73088e57ec\n      0x32\n      swap2\n      codecopy\n      swap1\n      pop\n        /* \"contracts/Production.sol\":686:703  setProduct(first) */\n      tag_18\n        /* \"contracts/Production.sol\":697:702  first */\n      dup2\n        /* \"contracts/Production.sol\":686:696  setProduct */\n      tag_19\n        /* \"contracts/Production.sol\":686:703  setProduct(first) */\n      jump\t// in\n    tag_18:\n        /* \"contracts/Production.sol\":565:713  function launch() public {\r... */\n      pop\n      jump\t// out\n        /* \"contracts/Production.sol\":1318:1515  function regWarranty(uint Num, bytes32 regSer) public {\r... */\n    tag_11:\n        /* \"contracts/Production.sol\":1412:1418  regSer */\n      dup1\n        /* \"contracts/Production.sol\":1387:1394  product */\n      0x00\n        /* \"contracts/Production.sol\":1387:1403  product.serialNo */\n      dup1\n      add\n        /* \"contracts/Production.sol\":1404:1407  Num */\n      dup4\n        /* \"contracts/Production.sol\":1387:1408  product.serialNo[Num] */\n      dup2\n      sload\n      dup2\n      lt\n      tag_21\n      jumpi\n      mstore(0x00, 0x4e487b7100000000000000000000000000000000000000000000000000000000)\n      mstore(0x04, 0x32)\n      revert(0x00, 0x24)\n    tag_21:\n      swap1\n      0x00\n      mstore\n      keccak256(0x00, 0x20)\n      add\n      sload\n        /* \"contracts/Production.sol\":1387:1418  product.serialNo[Num] == regSer */\n      eq\n        /* \"contracts/Production.sol\":1383:1508  if (product.serialNo[Num] == regSer) {\r... */\n      iszero\n      tag_23\n      jumpi\n        /* \"contracts/Production.sol\":1435:1442  product */\n      0x00\n        /* \"contracts/Production.sol\":1435:1453  product.registered */\n      0x01\n      add\n        /* \"contracts/Production.sol\":1459:1465  regSer */\n      dup2\n        /* \"contracts/Production.sol\":1435:1466  product.registered.push(regSer) */\n      swap1\n      dup1\n      0x01\n      dup2\n      sload\n      add\n      dup1\n      dup3\n      sstore\n      dup1\n      swap2\n      pop\n      pop\n      0x01\n      swap1\n      sub\n      swap1\n      0x00\n      mstore\n      keccak256(0x00, 0x20)\n      add\n      0x00\n      swap1\n      swap2\n      swap1\n      swap2\n      swap1\n      swap2\n      pop\n      sstore\n        /* \"contracts/Production.sol\":1481:1488  product */\n      0x00\n        /* \"contracts/Production.sol\":1481:1494  product.regNo */\n      0x02\n      add\n      0x00\n        /* \"contracts/Production.sol\":1481:1496  product.regNo++ */\n      dup2\n      sload\n      dup1\n      swap3\n      swap2\n      swap1\n      tag_25\n      swap1\n      tag_26\n      jump\t// in\n    tag_25:\n      swap2\n      swap1\n      pop\n      sstore\n      pop\n        /* \"contracts/Production.sol\":1383:1508  if (product.serialNo[Num] == regSer) {\r... */\n    tag_23:\n        /* \"contracts/Production.sol\":1318:1515  function regWarranty(uint Num, bytes32 regSer) public {\r... */\n      pop\n      pop\n      jump\t// out\n        /* \"contracts/Production.sol\":725:924  function checkSerial(uint n, bytes32 sn) public view returns(bool) {\r... */\n    tag_14:\n        /* \"contracts/Production.sol\":786:790  bool */\n      0x00\n        /* \"contracts/Production.sol\":813:820  product */\n      dup1\n        /* \"contracts/Production.sol\":813:829  product.serialNo */\n      0x00\n      add\n        /* \"contracts/Production.sol\":830:831  n */\n      dup4\n        /* \"contracts/Production.sol\":813:832  product.serialNo[n] */\n      dup2\n      sload\n      dup2\n      lt\n      tag_28\n      jumpi\n      mstore(0x00, 0x4e487b7100000000000000000000000000000000000000000000000000000000)\n      mstore(0x04, 0x32)\n      revert(0x00, 0x24)\n    tag_28:\n      swap1\n      0x00\n      mstore\n      keccak256(0x00, 0x20)\n      add\n      sload\n        /* \"contracts/Production.sol\":807:809  sn */\n      dup3\n        /* \"contracts/Production.sol\":807:832  sn == product.serialNo[n] */\n      eq\n        /* \"contracts/Production.sol\":803:917  if (sn == product.serialNo[n]) {\r... */\n      iszero\n      tag_30\n      jumpi\n        /* \"contracts/Production.sol\":856:860  true */\n      0x01\n        /* \"contracts/Production.sol\":849:860  return true */\n      swap1\n      pop\n      jump(tag_27)\n        /* \"contracts/Production.sol\":803:917  if (sn == product.serialNo[n]) {\r... */\n    tag_30:\n        /* \"contracts/Production.sol\":900:905  false */\n      0x00\n        /* \"contracts/Production.sol\":893:905  return false */\n      swap1\n      pop\n        /* \"contracts/Production.sol\":725:924  function checkSerial(uint n, bytes32 sn) public view returns(bool) {\r... */\n    tag_27:\n      swap3\n      swap2\n      pop\n      pop\n      jump\t// out\n        /* \"contracts/Production.sol\":233:557  function setProduct(string memory a) private {\r... */\n    tag_19:\n        /* \"contracts/Production.sol\":289:301  bytes32 hash */\n      0x00\n        /* \"contracts/Production.sol\":314:332  abi.encodePacked() */\n      add(0x20, mload(0x40))\n      mload(0x40)\n      0x20\n      dup2\n      dup4\n      sub\n      sub\n      dup2\n      mstore\n      swap1\n      0x40\n      mstore\n        /* \"contracts/Production.sol\":304:333  keccak256(abi.encodePacked()) */\n      dup1\n      mload\n      swap1\n      0x20\n      add\n      keccak256\n        /* \"contracts/Production.sol\":289:333  bytes32 hash = keccak256(abi.encodePacked()) */\n      swap1\n      pop\n        /* \"contracts/Production.sol\":344:351  product */\n      0x00\n        /* \"contracts/Production.sol\":344:360  product.serialNo */\n      dup1\n      add\n        /* \"contracts/Production.sol\":366:370  hash */\n      dup2\n        /* \"contracts/Production.sol\":344:371  product.serialNo.push(hash) */\n      swap1\n      dup1\n      0x01\n      dup2\n      sload\n      add\n      dup1\n      dup3\n      sstore\n      dup1\n      swap2\n      pop\n      pop\n      0x01\n      swap1\n      sub\n      swap1\n      0x00\n      mstore\n      keccak256(0x00, 0x20)\n      add\n      0x00\n      swap1\n      swap2\n      swap1\n      swap2\n      swap1\n      swap2\n      pop\n      sstore\n        /* \"contracts/Production.sol\":389:395  uint i */\n      0x00\n        /* \"contracts/Production.sol\":398:399  1 */\n      0x01\n        /* \"contracts/Production.sol\":389:399  uint i = 1 */\n      swap1\n      pop\n        /* \"contracts/Production.sol\":384:550  for (uint i = 1; i<10; i++) {\r... */\n    tag_34:\n        /* \"contracts/Production.sol\":403:405  10 */\n      0x0a\n        /* \"contracts/Production.sol\":401:402  i */\n      dup2\n        /* \"contracts/Production.sol\":401:405  i<10 */\n      lt\n        /* \"contracts/Production.sol\":384:550  for (uint i = 1; i<10; i++) {\r... */\n      iszero\n      tag_35\n      jumpi\n        /* \"contracts/Production.sol\":427:441  bytes32 serial */\n      0x00\n        /* \"contracts/Production.sol\":471:478  product */\n      dup1\n        /* \"contracts/Production.sol\":471:487  product.serialNo */\n      0x00\n      add\n        /* \"contracts/Production.sol\":490:491  1 */\n      0x01\n        /* \"contracts/Production.sol\":488:489  i */\n      dup4\n        /* \"contracts/Production.sol\":488:491  i-1 */\n      tag_37\n      swap2\n      swap1\n      tag_38\n      jump\t// in\n    tag_37:\n        /* \"contracts/Production.sol\":471:492  product.serialNo[i-1] */\n      dup2\n      sload\n      dup2\n      lt\n      tag_39\n      jumpi\n      mstore(0x00, 0x4e487b7100000000000000000000000000000000000000000000000000000000)\n      mstore(0x04, 0x32)\n      revert(0x00, 0x24)\n    tag_39:\n      swap1\n      0x00\n      mstore\n      keccak256(0x00, 0x20)\n      add\n      sload\n        /* \"contracts/Production.sol\":454:493  abi.encodePacked(product.serialNo[i-1]) */\n      add(0x20, mload(0x40))\n      tag_41\n      swap2\n      swap1\n      tag_42\n      jump\t// in\n    tag_41:\n      mload(0x40)\n      0x20\n      dup2\n      dup4\n      sub\n      sub\n      dup2\n      mstore\n      swap1\n      0x40\n      mstore\n        /* \"contracts/Production.sol\":444:494  keccak256(abi.encodePacked(product.serialNo[i-1])) */\n      dup1\n      mload\n      swap1\n      0x20\n      add\n      keccak256\n        /* \"contracts/Production.sol\":427:494  bytes32 serial = keccak256(abi.encodePacked(product.serialNo[i-1])) */\n      swap1\n      pop\n        /* \"contracts/Production.sol\":509:516  product */\n      0x00\n        /* \"contracts/Production.sol\":509:525  product.serialNo */\n      dup1\n      add\n        /* \"contracts/Production.sol\":531:537  serial */\n      dup2\n        /* \"contracts/Production.sol\":509:538  product.serialNo.push(serial) */\n      swap1\n      dup1\n      0x01\n      dup2\n      sload\n      add\n      dup1\n      dup3\n      sstore\n      dup1\n      swap2\n      pop\n      pop\n      0x01\n      swap1\n      sub\n      swap1\n      0x00\n      mstore\n      keccak256(0x00, 0x20)\n      add\n      0x00\n      swap1\n      swap2\n      swap1\n      swap2\n      swap1\n      swap2\n      pop\n      sstore\n        /* \"contracts/Production.sol\":384:550  for (uint i = 1; i<10; i++) {\r... */\n      pop\n        /* \"contracts/Production.sol\":407:410  i++ */\n      dup1\n      dup1\n      tag_44\n      swap1\n      tag_26\n      jump\t// in\n    tag_44:\n      swap2\n      pop\n      pop\n        /* \"contracts/Production.sol\":384:550  for (uint i = 1; i<10; i++) {\r... */\n      jump(tag_34)\n    tag_35:\n      pop\n        /* \"contracts/Production.sol\":233:557  function setProduct(string memory a) private {\r... */\n      pop\n      pop\n      jump\t// out\n        /* \"#utility.yul\":7:146   */\n    tag_46:\n      0x00\n        /* \"#utility.yul\":91:97   */\n      dup2\n        /* \"#utility.yul\":78:98   */\n      calldataload\n        /* \"#utility.yul\":69:98   */\n      swap1\n      pop\n        /* \"#utility.yul\":107:140   */\n      tag_48\n        /* \"#utility.yul\":134:139   */\n      dup2\n        /* \"#utility.yul\":107:140   */\n      tag_49\n      jump\t// in\n    tag_48:\n        /* \"#utility.yul\":59:146   */\n      swap3\n      swap2\n      pop\n      pop\n      jump\t// out\n        /* \"#utility.yul\":152:291   */\n    tag_50:\n      0x00\n        /* \"#utility.yul\":236:242   */\n      dup2\n        /* \"#utility.yul\":223:243   */\n      calldataload\n        /* \"#utility.yul\":214:243   */\n      swap1\n      pop\n        /* \"#utility.yul\":252:285   */\n      tag_52\n        /* \"#utility.yul\":279:284   */\n      dup2\n        /* \"#utility.yul\":252:285   */\n      tag_53\n      jump\t// in\n    tag_52:\n        /* \"#utility.yul\":204:291   */\n      swap3\n      swap2\n      pop\n      pop\n      jump\t// out\n        /* \"#utility.yul\":297:704   */\n    tag_10:\n      0x00\n      dup1\n        /* \"#utility.yul\":422:424   */\n      0x40\n        /* \"#utility.yul\":410:419   */\n      dup4\n        /* \"#utility.yul\":401:408   */\n      dup6\n        /* \"#utility.yul\":397:420   */\n      sub\n        /* \"#utility.yul\":393:425   */\n      slt\n        /* \"#utility.yul\":390:392   */\n      iszero\n      tag_55\n      jumpi\n        /* \"#utility.yul\":438:439   */\n      0x00\n        /* \"#utility.yul\":435:436   */\n      dup1\n        /* \"#utility.yul\":428:440   */\n      revert\n        /* \"#utility.yul\":390:392   */\n    tag_55:\n        /* \"#utility.yul\":481:482   */\n      0x00\n        /* \"#utility.yul\":506:559   */\n      tag_56\n        /* \"#utility.yul\":551:558   */\n      dup6\n        /* \"#utility.yul\":542:548   */\n      dup3\n        /* \"#utility.yul\":531:540   */\n      dup7\n        /* \"#utility.yul\":527:549   */\n      add\n        /* \"#utility.yul\":506:559   */\n      tag_50\n      jump\t// in\n    tag_56:\n        /* \"#utility.yul\":496:559   */\n      swap3\n      pop\n        /* \"#utility.yul\":452:569   */\n      pop\n        /* \"#utility.yul\":608:610   */\n      0x20\n        /* \"#utility.yul\":634:687   */\n      tag_57\n        /* \"#utility.yul\":679:686   */\n      dup6\n        /* \"#utility.yul\":670:676   */\n      dup3\n        /* \"#utility.yul\":659:668   */\n      dup7\n        /* \"#utility.yul\":655:677   */\n      add\n        /* \"#utility.yul\":634:687   */\n      tag_46\n      jump\t// in\n    tag_57:\n        /* \"#utility.yul\":624:687   */\n      swap2\n      pop\n        /* \"#utility.yul\":579:697   */\n      pop\n        /* \"#utility.yul\":380:704   */\n      swap3\n      pop\n      swap3\n      swap1\n      pop\n      jump\t// out\n        /* \"#utility.yul\":710:819   */\n    tag_58:\n        /* \"#utility.yul\":791:812   */\n      tag_60\n        /* \"#utility.yul\":806:811   */\n      dup2\n        /* \"#utility.yul\":791:812   */\n      tag_61\n      jump\t// in\n    tag_60:\n        /* \"#utility.yul\":786:789   */\n      dup3\n        /* \"#utility.yul\":779:813   */\n      mstore\n        /* \"#utility.yul\":769:819   */\n      pop\n      pop\n      jump\t// out\n        /* \"#utility.yul\":825:982   */\n    tag_62:\n        /* \"#utility.yul\":930:975   */\n      tag_64\n        /* \"#utility.yul\":950:974   */\n      tag_65\n        /* \"#utility.yul\":968:973   */\n      dup3\n        /* \"#utility.yul\":950:974   */\n      tag_66\n      jump\t// in\n    tag_65:\n        /* \"#utility.yul\":930:975   */\n      tag_67\n      jump\t// in\n    tag_64:\n        /* \"#utility.yul\":925:928   */\n      dup3\n        /* \"#utility.yul\":918:976   */\n      mstore\n        /* \"#utility.yul\":908:982   */\n      pop\n      pop\n      jump\t// out\n        /* \"#utility.yul\":988:1244   */\n    tag_42:\n      0x00\n        /* \"#utility.yul\":1115:1190   */\n      tag_69\n        /* \"#utility.yul\":1186:1189   */\n      dup3\n        /* \"#utility.yul\":1177:1183   */\n      dup5\n        /* \"#utility.yul\":1115:1190   */\n      tag_62\n      jump\t// in\n    tag_69:\n        /* \"#utility.yul\":1215:1217   */\n      0x20\n        /* \"#utility.yul\":1210:1213   */\n      dup3\n        /* \"#utility.yul\":1206:1218   */\n      add\n        /* \"#utility.yul\":1199:1218   */\n      swap2\n      pop\n        /* \"#utility.yul\":1235:1238   */\n      dup2\n        /* \"#utility.yul\":1228:1238   */\n      swap1\n      pop\n        /* \"#utility.yul\":1104:1244   */\n      swap3\n      swap2\n      pop\n      pop\n      jump\t// out\n        /* \"#utility.yul\":1250:1460   */\n    tag_16:\n      0x00\n        /* \"#utility.yul\":1375:1377   */\n      0x20\n        /* \"#utility.yul\":1364:1373   */\n      dup3\n        /* \"#utility.yul\":1360:1378   */\n      add\n        /* \"#utility.yul\":1352:1378   */\n      swap1\n      pop\n        /* \"#utility.yul\":1388:1453   */\n      tag_71\n        /* \"#utility.yul\":1450:1451   */\n      0x00\n        /* \"#utility.yul\":1439:1448   */\n      dup4\n        /* \"#utility.yul\":1435:1452   */\n      add\n        /* \"#utility.yul\":1426:1432   */\n      dup5\n        /* \"#utility.yul\":1388:1453   */\n      tag_58\n      jump\t// in\n    tag_71:\n        /* \"#utility.yul\":1342:1460   */\n      swap3\n      swap2\n      pop\n      pop\n      jump\t// out\n        /* \"#utility.yul\":1466:1657   */\n    tag_38:\n      0x00\n        /* \"#utility.yul\":1526:1546   */\n      tag_73\n        /* \"#utility.yul\":1544:1545   */\n      dup3\n        /* \"#utility.yul\":1526:1546   */\n      tag_74\n      jump\t// in\n    tag_73:\n        /* \"#utility.yul\":1521:1546   */\n      swap2\n      pop\n        /* \"#utility.yul\":1560:1580   */\n      tag_75\n        /* \"#utility.yul\":1578:1579   */\n      dup4\n        /* \"#utility.yul\":1560:1580   */\n      tag_74\n      jump\t// in\n    tag_75:\n        /* \"#utility.yul\":1555:1580   */\n      swap3\n      pop\n        /* \"#utility.yul\":1599:1600   */\n      dup3\n        /* \"#utility.yul\":1596:1597   */\n      dup3\n        /* \"#utility.yul\":1593:1601   */\n      lt\n        /* \"#utility.yul\":1590:1592   */\n      iszero\n      tag_76\n      jumpi\n        /* \"#utility.yul\":1604:1622   */\n      tag_77\n      tag_78\n      jump\t// in\n    tag_77:\n        /* \"#utility.yul\":1590:1592   */\n    tag_76:\n        /* \"#utility.yul\":1649:1650   */\n      dup3\n        /* \"#utility.yul\":1646:1647   */\n      dup3\n        /* \"#utility.yul\":1642:1651   */\n      sub\n        /* \"#utility.yul\":1634:1651   */\n      swap1\n      pop\n        /* \"#utility.yul\":1511:1657   */\n      swap3\n      swap2\n      pop\n      pop\n      jump\t// out\n        /* \"#utility.yul\":1663:1753   */\n    tag_61:\n      0x00\n        /* \"#utility.yul\":1740:1745   */\n      dup2\n        /* \"#utility.yul\":1733:1746   */\n      iszero\n        /* \"#utility.yul\":1726:1747   */\n      iszero\n        /* \"#utility.yul\":1715:1747   */\n      swap1\n      pop\n        /* \"#utility.yul\":1705:1753   */\n      swap2\n      swap1\n      pop\n      jump\t// out\n        /* \"#utility.yul\":1759:1836   */\n    tag_66:\n      0x00\n        /* \"#utility.yul\":1825:1830   */\n      dup2\n        /* \"#utility.yul\":1814:1830   */\n      swap1\n      pop\n        /* \"#utility.yul\":1804:1836   */\n      swap2\n      swap1\n      pop\n      jump\t// out\n        /* \"#utility.yul\":1842:1919   */\n    tag_74:\n      0x00\n        /* \"#utility.yul\":1908:1913   */\n      dup2\n        /* \"#utility.yul\":1897:1913   */\n      swap1\n      pop\n        /* \"#utility.yul\":1887:1919   */\n      swap2\n      swap1\n      pop\n      jump\t// out\n        /* \"#utility.yul\":1925:2158   */\n    tag_26:\n      0x00\n        /* \"#utility.yul\":1987:2011   */\n      tag_83\n        /* \"#utility.yul\":2005:2010   */\n      dup3\n        /* \"#utility.yul\":1987:2011   */\n      tag_74\n      jump\t// in\n    tag_83:\n        /* \"#utility.yul\":1978:2011   */\n      swap2\n      pop\n        /* \"#utility.yul\":2033:2099   */\n      0xffffffffffffffffffffffffffffffffffffffffffffffffffffffffffffffff\n        /* \"#utility.yul\":2026:2031   */\n      dup3\n        /* \"#utility.yul\":2023:2100   */\n      eq\n        /* \"#utility.yul\":2020:2022   */\n      iszero\n      tag_84\n      jumpi\n        /* \"#utility.yul\":2103:2121   */\n      tag_85\n      tag_78\n      jump\t// in\n    tag_85:\n        /* \"#utility.yul\":2020:2022   */\n    tag_84:\n        /* \"#utility.yul\":2150:2151   */\n      0x01\n        /* \"#utility.yul\":2143:2148   */\n      dup3\n        /* \"#utility.yul\":2139:2152   */\n      add\n        /* \"#utility.yul\":2132:2152   */\n      swap1\n      pop\n        /* \"#utility.yul\":1968:2158   */\n      swap2\n      swap1\n      pop\n      jump\t// out\n        /* \"#utility.yul\":2164:2243   */\n    tag_67:\n      0x00\n        /* \"#utility.yul\":2232:2237   */\n      dup2\n        /* \"#utility.yul\":2221:2237   */\n      swap1\n      pop\n        /* \"#utility.yul\":2211:2243   */\n      swap2\n      swap1\n      pop\n      jump\t// out\n        /* \"#utility.yul\":2249:2429   */\n    tag_78:\n        /* \"#utility.yul\":2297:2374   */\n      0x4e487b7100000000000000000000000000000000000000000000000000000000\n        /* \"#utility.yul\":2294:2295   */\n      0x00\n        /* \"#utility.yul\":2287:2375   */\n      mstore\n        /* \"#utility.yul\":2394:2398   */\n      0x11\n        /* \"#utility.yul\":2391:2392   */\n      0x04\n        /* \"#utility.yul\":2384:2399   */\n      mstore\n        /* \"#utility.yul\":2418:2422   */\n      0x24\n        /* \"#utility.yul\":2415:2416   */\n      0x00\n        /* \"#utility.yul\":2408:2423   */\n      revert\n        /* \"#utility.yul\":2435:2557   */\n    tag_49:\n        /* \"#utility.yul\":2508:2532   */\n      tag_89\n        /* \"#utility.yul\":2526:2531   */\n      dup2\n        /* \"#utility.yul\":2508:2532   */\n      tag_66\n      jump\t// in\n    tag_89:\n        /* \"#utility.yul\":2501:2506   */\n      dup2\n        /* \"#utility.yul\":2498:2533   */\n      eq\n        /* \"#utility.yul\":2488:2490   */\n      tag_90\n      jumpi\n        /* \"#utility.yul\":2547:2548   */\n      0x00\n        /* \"#utility.yul\":2544:2545   */\n      dup1\n        /* \"#utility.yul\":2537:2549   */\n      revert\n        /* \"#utility.yul\":2488:2490   */\n    tag_90:\n        /* \"#utility.yul\":2478:2557   */\n      pop\n      jump\t// out\n        /* \"#utility.yul\":2563:2685   */\n    tag_53:\n        /* \"#utility.yul\":2636:2660   */\n      tag_92\n        /* \"#utility.yul\":2654:2659   */\n      dup2\n        /* \"#utility.yul\":2636:2660   */\n      tag_74\n      jump\t// in\n    tag_92:\n        /* \"#utility.yul\":2629:2634   */\n      dup2\n        /* \"#utility.yul\":2626:2661   */\n      eq\n        /* \"#utility.yul\":2616:2618   */\n      tag_93\n      jumpi\n        /* \"#utility.yul\":2675:2676   */\n      0x00\n        /* \"#utility.yul\":2672:2673   */\n      dup1\n        /* \"#utility.yul\":2665:2677   */\n      revert\n        /* \"#utility.yul\":2616:2618   */\n    tag_93:\n        /* \"#utility.yul\":2606:2685   */\n      pop\n      jump\t// out\n    stop\n    data_5a19d642633a91c31f85d0822c26e95135627dc5a097ba962429fa73088e57ec 67656e65726174652073657269616c206e756d6265727320666f722066697273742070726f64756374206f66206272616e64\n\n    auxdata: 0xa26469706673582212208fd5c76bd18839d89c8356e63cab7e4df153f677194c1d5b11b3b1e1b7ea83b064736f6c63430008000033\n}\n",
				"bytecode": {
					"linkReferences": {},
					"object": "608060405234801561001057600080fd5b5061050d806100206000396000f3fe608060405234801561001057600080fd5b50600436106100415760003560e01c806301339c21146100465780634716d27a1461005057806360eaf1df1461006c575b600080fd5b61004e61009c565b005b61006a60048036038101906100659190610309565b6100c5565b005b61008660048036038101906100819190610309565b61015f565b6040516100939190610386565b60405180910390f35b60006040518060600160405280603281526020016104a66032913990506100c2816101c3565b50565b80600080018381548110610102577f4e487b7100000000000000000000000000000000000000000000000000000000600052603260045260246000fd5b9060005260206000200154141561015b57600060010181908060018154018082558091505060019003906000526020600020016000909190919091505560006002016000815480929190610155906103f5565b91905055505b5050565b600080600001838154811061019d577f4e487b7100000000000000000000000000000000000000000000000000000000600052603260045260246000fd5b90600052602060002001548214156101b857600190506101bd565b600090505b92915050565b6000604051602001604051602081830303815290604052805190602001209050600080018190806001815401808255809150506001900390600052602060002001600090919091909150556000600190505b600a8110156102da5760008060000160018361023191906103a1565b81548110610268577f4e487b7100000000000000000000000000000000000000000000000000000000600052603260045260246000fd5b9060005260206000200154604051602001610283919061036b565b604051602081830303815290604052805190602001209050600080018190806001815401808255809150506001900390600052602060002001600090919091909150555080806102d2906103f5565b915050610215565b505050565b6000813590506102ee81610477565b92915050565b6000813590506103038161048e565b92915050565b6000806040838503121561031c57600080fd5b600061032a858286016102f4565b925050602061033b858286016102df565b9150509250929050565b61034e816103d5565b82525050565b610365610360826103e1565b61043e565b82525050565b60006103778284610354565b60208201915081905092915050565b600060208201905061039b6000830184610345565b92915050565b60006103ac826103eb565b91506103b7836103eb565b9250828210156103ca576103c9610448565b5b828203905092915050565b60008115159050919050565b6000819050919050565b6000819050919050565b6000610400826103eb565b91507fffffffffffffffffffffffffffffffffffffffffffffffffffffffffffffffff82141561043357610432610448565b5b600182019050919050565b6000819050919050565b7f4e487b7100000000000000000000000000000000000000000000000000000000600052601160045260246000fd5b610480816103e1565b811461048b57600080fd5b50565b610497816103eb565b81146104a257600080fd5b5056fe67656e65726174652073657269616c206e756d6265727320666f722066697273742070726f64756374206f66206272616e64a26469706673582212208fd5c76bd18839d89c8356e63cab7e4df153f677194c1d5b11b3b1e1b7ea83b064736f6c63430008000033",
					"opcodes": "PUSH1 0x80 PUSH1 0x40 MSTORE CALLVALUE DUP1 ISZERO PUSH2 0x10 JUMPI PUSH1 0x0 DUP1 REVERT JUMPDEST POP PUSH2 0x50D DUP1 PUSH2 0x20 PUSH1 0x0 CODECOPY PUSH1 0x0 RETURN INVALID PUSH1 0x80 PUSH1 0x40 MSTORE CALLVALUE DUP1 ISZERO PUSH2 0x10 JUMPI PUSH1 0x0 DUP1 REVERT JUMPDEST POP PUSH1 0x4 CALLDATASIZE LT PUSH2 0x41 JUMPI PUSH1 0x0 CALLDATALOAD PUSH1 0xE0 SHR DUP1 PUSH4 0x1339C21 EQ PUSH2 0x46 JUMPI DUP1 PUSH4 0x4716D27A EQ PUSH2 0x50 JUMPI DUP1 PUSH4 0x60EAF1DF EQ PUSH2 0x6C JUMPI JUMPDEST PUSH1 0x0 DUP1 REVERT JUMPDEST PUSH2 0x4E PUSH2 0x9C JUMP JUMPDEST STOP JUMPDEST PUSH2 0x6A PUSH1 0x4 DUP1 CALLDATASIZE SUB DUP2 ADD SWAP1 PUSH2 0x65 SWAP2 SWAP1 PUSH2 0x309 JUMP JUMPDEST PUSH2 0xC5 JUMP JUMPDEST STOP JUMPDEST PUSH2 0x86 PUSH1 0x4 DUP1 CALLDATASIZE SUB DUP2 ADD SWAP1 PUSH2 0x81 SWAP2 SWAP1 PUSH2 0x309 JUMP JUMPDEST PUSH2 0x15F JUMP JUMPDEST PUSH1 0x40 MLOAD PUSH2 0x93 SWAP2 SWAP1 PUSH2 0x386 JUMP JUMPDEST PUSH1 0x40 MLOAD DUP1 SWAP2 SUB SWAP1 RETURN JUMPDEST PUSH1 0x0 PUSH1 0x40 MLOAD DUP1 PUSH1 0x60 ADD PUSH1 0x40 MSTORE DUP1 PUSH1 0x32 DUP2 MSTORE PUSH1 0x20 ADD PUSH2 0x4A6 PUSH1 0x32 SWAP2 CODECOPY SWAP1 POP PUSH2 0xC2 DUP2 PUSH2 0x1C3 JUMP JUMPDEST POP JUMP JUMPDEST DUP1 PUSH1 0x0 DUP1 ADD DUP4 DUP2 SLOAD DUP2 LT PUSH2 0x102 JUMPI PUSH32 0x4E487B7100000000000000000000000000000000000000000000000000000000 PUSH1 0x0 MSTORE PUSH1 0x32 PUSH1 0x4 MSTORE PUSH1 0x24 PUSH1 0x0 REVERT JUMPDEST SWAP1 PUSH1 0x0 MSTORE PUSH1 0x20 PUSH1 0x0 KECCAK256 ADD SLOAD EQ ISZERO PUSH2 0x15B JUMPI PUSH1 0x0 PUSH1 0x1 ADD DUP2 SWAP1 DUP1 PUSH1 0x1 DUP2 SLOAD ADD DUP1 DUP3 SSTORE DUP1 SWAP2 POP POP PUSH1 0x1 SWAP1 SUB SWAP1 PUSH1 0x0 MSTORE PUSH1 0x20 PUSH1 0x0 KECCAK256 ADD PUSH1 0x0 SWAP1 SWAP2 SWAP1 SWAP2 SWAP1 SWAP2 POP SSTORE PUSH1 0x0 PUSH1 0x2 ADD PUSH1 0x0 DUP2 SLOAD DUP1 SWAP3 SWAP2 SWAP1 PUSH2 0x155 SWAP1 PUSH2 0x3F5 JUMP JUMPDEST SWAP2 SWAP1 POP SSTORE POP JUMPDEST POP POP JUMP JUMPDEST PUSH1 0x0 DUP1 PUSH1 0x0 ADD DUP4 DUP2 SLOAD DUP2 LT PUSH2 0x19D JUMPI PUSH32 0x4E487B7100000000000000000000000000000000000000000000000000000000 PUSH1 0x0 MSTORE PUSH1 0x32 PUSH1 0x4 MSTORE PUSH1 0x24 PUSH1 0x0 REVERT JUMPDEST SWAP1 PUSH1 0x0 MSTORE PUSH1 0x20 PUSH1 0x0 KECCAK256 ADD SLOAD DUP3 EQ ISZERO PUSH2 0x1B8 JUMPI PUSH1 0x1 SWAP1 POP PUSH2 0x1BD JUMP JUMPDEST PUSH1 0x0 SWAP1 POP JUMPDEST SWAP3 SWAP2 POP POP JUMP JUMPDEST PUSH1 0x0 PUSH1 0x40 MLOAD PUSH1 0x20 ADD PUSH1 0x40 MLOAD PUSH1 0x20 DUP2 DUP4 SUB SUB DUP2 MSTORE SWAP1 PUSH1 0x40 MSTORE DUP1 MLOAD SWAP1 PUSH1 0x20 ADD KECCAK256 SWAP1 POP PUSH1 0x0 DUP1 ADD DUP2 SWAP1 DUP1 PUSH1 0x1 DUP2 SLOAD ADD DUP1 DUP3 SSTORE DUP1 SWAP2 POP POP PUSH1 0x1 SWAP1 SUB SWAP1 PUSH1 0x0 MSTORE PUSH1 0x20 PUSH1 0x0 KECCAK256 ADD PUSH1 0x0 SWAP1 SWAP2 SWAP1 SWAP2 SWAP1 SWAP2 POP SSTORE PUSH1 0x0 PUSH1 0x1 SWAP1 POP JUMPDEST PUSH1 0xA DUP2 LT ISZERO PUSH2 0x2DA JUMPI PUSH1 0x0 DUP1 PUSH1 0x0 ADD PUSH1 0x1 DUP4 PUSH2 0x231 SWAP2 SWAP1 PUSH2 0x3A1 JUMP JUMPDEST DUP2 SLOAD DUP2 LT PUSH2 0x268 JUMPI PUSH32 0x4E487B7100000000000000000000000000000000000000000000000000000000 PUSH1 0x0 MSTORE PUSH1 0x32 PUSH1 0x4 MSTORE PUSH1 0x24 PUSH1 0x0 REVERT JUMPDEST SWAP1 PUSH1 0x0 MSTORE PUSH1 0x20 PUSH1 0x0 KECCAK256 ADD SLOAD PUSH1 0x40 MLOAD PUSH1 0x20 ADD PUSH2 0x283 SWAP2 SWAP1 PUSH2 0x36B JUMP JUMPDEST PUSH1 0x40 MLOAD PUSH1 0x20 DUP2 DUP4 SUB SUB DUP2 MSTORE SWAP1 PUSH1 0x40 MSTORE DUP1 MLOAD SWAP1 PUSH1 0x20 ADD KECCAK256 SWAP1 POP PUSH1 0x0 DUP1 ADD DUP2 SWAP1 DUP1 PUSH1 0x1 DUP2 SLOAD ADD DUP1 DUP3 SSTORE DUP1 SWAP2 POP POP PUSH1 0x1 SWAP1 SUB SWAP1 PUSH1 0x0 MSTORE PUSH1 0x20 PUSH1 0x0 KECCAK256 ADD PUSH1 0x0 SWAP1 SWAP2 SWAP1 SWAP2 SWAP1 SWAP2 POP SSTORE POP DUP1 DUP1 PUSH2 0x2D2 SWAP1 PUSH2 0x3F5 JUMP JUMPDEST SWAP2 POP POP PUSH2 0x215 JUMP JUMPDEST POP POP POP JUMP JUMPDEST PUSH1 0x0 DUP2 CALLDATALOAD SWAP1 POP PUSH2 0x2EE DUP2 PUSH2 0x477 JUMP JUMPDEST SWAP3 SWAP2 POP POP JUMP JUMPDEST PUSH1 0x0 DUP2 CALLDATALOAD SWAP1 POP PUSH2 0x303 DUP2 PUSH2 0x48E JUMP JUMPDEST SWAP3 SWAP2 POP POP JUMP JUMPDEST PUSH1 0x0 DUP1 PUSH1 0x40 DUP4 DUP6 SUB SLT ISZERO PUSH2 0x31C JUMPI PUSH1 0x0 DUP1 REVERT JUMPDEST PUSH1 0x0 PUSH2 0x32A DUP6 DUP3 DUP7 ADD PUSH2 0x2F4 JUMP JUMPDEST SWAP3 POP POP PUSH1 0x20 PUSH2 0x33B DUP6 DUP3 DUP7 ADD PUSH2 0x2DF JUMP JUMPDEST SWAP2 POP POP SWAP3 POP SWAP3 SWAP1 POP JUMP JUMPDEST PUSH2 0x34E DUP2 PUSH2 0x3D5 JUMP JUMPDEST DUP3 MSTORE POP POP JUMP JUMPDEST PUSH2 0x365 PUSH2 0x360 DUP3 PUSH2 0x3E1 JUMP JUMPDEST PUSH2 0x43E JUMP JUMPDEST DUP3 MSTORE POP POP JUMP JUMPDEST PUSH1 0x0 PUSH2 0x377 DUP3 DUP5 PUSH2 0x354 JUMP JUMPDEST PUSH1 0x20 DUP3 ADD SWAP2 POP DUP2 SWAP1 POP SWAP3 SWAP2 POP POP JUMP JUMPDEST PUSH1 0x0 PUSH1 0x20 DUP3 ADD SWAP1 POP PUSH2 0x39B PUSH1 0x0 DUP4 ADD DUP5 PUSH2 0x345 JUMP JUMPDEST SWAP3 SWAP2 POP POP JUMP JUMPDEST PUSH1 0x0 PUSH2 0x3AC DUP3 PUSH2 0x3EB JUMP JUMPDEST SWAP2 POP PUSH2 0x3B7 DUP4 PUSH2 0x3EB JUMP JUMPDEST SWAP3 POP DUP3 DUP3 LT ISZERO PUSH2 0x3CA JUMPI PUSH2 0x3C9 PUSH2 0x448 JUMP JUMPDEST JUMPDEST DUP3 DUP3 SUB SWAP1 POP SWAP3 SWAP2 POP POP JUMP JUMPDEST PUSH1 0x0 DUP2 ISZERO ISZERO SWAP1 POP SWAP2 SWAP1 POP JUMP JUMPDEST PUSH1 0x0 DUP2 SWAP1 POP SWAP2 SWAP1 POP JUMP JUMPDEST PUSH1 0x0 DUP2 SWAP1 POP SWAP2 SWAP1 POP JUMP JUMPDEST PUSH1 0x0 PUSH2 0x400 DUP3 PUSH2 0x3EB JUMP JUMPDEST SWAP2 POP PUSH32 0xFFFFFFFFFFFFFFFFFFFFFFFFFFFFFFFFFFFFFFFFFFFFFFFFFFFFFFFFFFFFFFFF DUP3 EQ ISZERO PUSH2 0x433 JUMPI PUSH2 0x432 PUSH2 0x448 JUMP JUMPDEST JUMPDEST PUSH1 0x1 DUP3 ADD SWAP1 POP SWAP2 SWAP1 POP JUMP JUMPDEST PUSH1 0x0 DUP2 SWAP1 POP SWAP2 SWAP1 POP JUMP JUMPDEST PUSH32 0x4E487B7100000000000000000000000000000000000000000000000000000000 PUSH1 0x0 MSTORE PUSH1 0x11 PUSH1 0x4 MSTORE PUSH1 0x24 PUSH1 0x0 REVERT JUMPDEST PUSH2 0x480 DUP2 PUSH2 0x3E1 JUMP JUMPDEST DUP2 EQ PUSH2 0x48B JUMPI PUSH1 0x0 DUP1 REVERT JUMPDEST POP JUMP JUMPDEST PUSH2 0x497 DUP2 PUSH2 0x3EB JUMP JUMPDEST DUP2 EQ PUSH2 0x4A2 JUMPI PUSH1 0x0 DUP1 REVERT JUMPDEST POP JUMP INVALID PUSH8 0x656E657261746520 PUSH20 0x657269616C206E756D6265727320666F72206669 PUSH19 0x73742070726F64756374206F66206272616E64 LOG2 PUSH5 0x6970667358 0x22 SLT KECCAK256 DUP16 0xD5 0xC7 PUSH12 0xD18839D89C8356E63CAB7E4D CALL MSTORE8 0xF6 PUSH24 0x194C1D5B11B3B1E1B7EA83B064736F6C6343000800003300 "
				},
				"gasEstimates": {
					"creation": {
						"codeDepositCost": "258600",
						"executionCost": "300",
						"totalCost": "258900"
					},
					"external": {
						"checkSerial(uint256,bytes32)": "2526",
						"launch()": "infinite",
						"regWarranty(uint256,bytes32)": "infinite"
					},
					"internal": {
						"bytes32ToString(bytes32)": "infinite",
						"setProduct(string memory)": "infinite"
					}
				},
				"methodIdentifiers": {
					"checkSerial(uint256,bytes32)": "60eaf1df",
					"launch()": "01339c21",
					"regWarranty(uint256,bytes32)": "4716d27a"
				}
			},
			"storageLayout": {
				"storage": [
					{
						"astId": 13,
						"contract": "contracts/Production.sol:Production",
						"label": "product",
						"offset": 0,
						"slot": "0",
						"type": "t_struct(Product)10_storage"
					}
				],
				"types": {
					"t_array(t_bytes32)dyn_storage": {
						"base": "t_bytes32",
						"encoding": "dynamic_array",
						"label": "bytes32[]",
						"numberOfBytes": "32"
					},
					"t_bytes32": {
						"encoding": "inplace",
						"label": "bytes32",
						"numberOfBytes": "32"
					},
					"t_struct(Product)10_storage": {
						"encoding": "inplace",
						"label": "struct Production.Product",
						"members": [
							{
								"astId": 4,
								"contract": "contracts/Production.sol:Production",
								"label": "serialNo",
								"offset": 0,
								"slot": "0",
								"type": "t_array(t_bytes32)dyn_storage"
							},
							{
								"astId": 7,
								"contract": "contracts/Production.sol:Production",
								"label": "registered",
								"offset": 0,
								"slot": "1",
								"type": "t_array(t_bytes32)dyn_storage"
							},
							{
								"astId": 9,
								"contract": "contracts/Production.sol:Production",
								"label": "regNo",
								"offset": 0,
								"slot": "2",
								"type": "t_uint256"
							}
						],
						"numberOfBytes": "96"
					},
					"t_uint256": {
						"encoding": "inplace",
						"label": "uint256",
						"numberOfBytes": "32"
					}
				}
			},
			"userdoc": {
				"kind": "user",
				"methods": {},
				"version": 1
			}
		}
	}
}