{
	"contracts/Production.sol": {
		"Production": {
			"abi": [
				{
					"constant": false,
					"inputs": [
						{
							"name": "Num",
							"type": "uint256"
						},
						{
							"name": "regSer",
							"type": "bytes32"
						}
					],
					"name": "regWarranty",
					"outputs": [],
					"payable": false,
					"stateMutability": "nonpayable",
					"type": "function"
				},
				{
					"constant": true,
					"inputs": [
						{
							"name": "n",
							"type": "uint256"
						},
						{
							"name": "sn",
							"type": "bytes32"
						}
					],
					"name": "checkSerial",
					"outputs": [
						{
							"name": "",
							"type": "bool"
						}
					],
					"payable": false,
					"stateMutability": "view",
					"type": "function"
				},
				{
					"constant": true,
					"inputs": [
						{
							"name": "_bytes32",
							"type": "bytes32"
						}
					],
					"name": "bytes32ToString",
					"outputs": [
						{
							"name": "",
							"type": "string"
						}
					],
					"payable": false,
					"stateMutability": "view",
					"type": "function"
				}
			],
			"devdoc": {
				"methods": {}
			},
			"evm": {
				"assembly": "    /* \"contracts/Production.sol\":28:1319  contract Production {\r... */\n  mstore(0x40, 0x80)\n  callvalue\n    /* \"--CODEGEN--\":8:17   */\n  dup1\n    /* \"--CODEGEN--\":5:7   */\n  iszero\n  tag_1\n  jumpi\n    /* \"--CODEGEN--\":30:31   */\n  0x0\n    /* \"--CODEGEN--\":27:28   */\n  dup1\n    /* \"--CODEGEN--\":20:32   */\n  revert\n    /* \"--CODEGEN--\":5:7   */\ntag_1:\n    /* \"contracts/Production.sol\":28:1319  contract Production {\r... */\n  pop\n  dataSize(sub_0)\n  dup1\n  dataOffset(sub_0)\n  0x0\n  codecopy\n  0x0\n  return\nstop\n\nsub_0: assembly {\n        /* \"contracts/Production.sol\":28:1319  contract Production {\r... */\n      mstore(0x40, 0x80)\n      jumpi(tag_1, lt(calldatasize, 0x4))\n      calldataload(0x0)\n      0x100000000000000000000000000000000000000000000000000000000\n      swap1\n      div\n      0xffffffff\n      and\n      dup1\n      0x4716d27a\n      eq\n      tag_2\n      jumpi\n      dup1\n      0x60eaf1df\n      eq\n      tag_3\n      jumpi\n      dup1\n      0x9201de55\n      eq\n      tag_4\n      jumpi\n    tag_1:\n      0x0\n      dup1\n      revert\n        /* \"contracts/Production.sol\":1119:1316  function regWarranty(uint Num, bytes32 regSer) public {\r... */\n    tag_2:\n      callvalue\n        /* \"--CODEGEN--\":8:17   */\n      dup1\n        /* \"--CODEGEN--\":5:7   */\n      iszero\n      tag_5\n      jumpi\n        /* \"--CODEGEN--\":30:31   */\n      0x0\n        /* \"--CODEGEN--\":27:28   */\n      dup1\n        /* \"--CODEGEN--\":20:32   */\n      revert\n        /* \"--CODEGEN--\":5:7   */\n    tag_5:\n        /* \"contracts/Production.sol\":1119:1316  function regWarranty(uint Num, bytes32 regSer) public {\r... */\n      pop\n      tag_6\n      0x4\n      dup1\n      calldatasize\n      sub\n      dup2\n      add\n      swap1\n      dup1\n      dup1\n      calldataload\n      swap1\n      0x20\n      add\n      swap1\n      swap3\n      swap2\n      swap1\n      dup1\n      calldataload\n      not(0x0)\n      and\n      swap1\n      0x20\n      add\n      swap1\n      swap3\n      swap2\n      swap1\n      pop\n      pop\n      pop\n      jump(tag_7)\n    tag_6:\n      stop\n        /* \"contracts/Production.sol\":527:726  function checkSerial(uint n, bytes32 sn) public view returns(bool) {\r... */\n    tag_3:\n      callvalue\n        /* \"--CODEGEN--\":8:17   */\n      dup1\n        /* \"--CODEGEN--\":5:7   */\n      iszero\n      tag_8\n      jumpi\n        /* \"--CODEGEN--\":30:31   */\n      0x0\n        /* \"--CODEGEN--\":27:28   */\n      dup1\n        /* \"--CODEGEN--\":20:32   */\n      revert\n        /* \"--CODEGEN--\":5:7   */\n    tag_8:\n        /* \"contracts/Production.sol\":527:726  function checkSerial(uint n, bytes32 sn) public view returns(bool) {\r... */\n      pop\n      tag_9\n      0x4\n      dup1\n      calldatasize\n      sub\n      dup2\n      add\n      swap1\n      dup1\n      dup1\n      calldataload\n      swap1\n      0x20\n      add\n      swap1\n      swap3\n      swap2\n      swap1\n      dup1\n      calldataload\n      not(0x0)\n      and\n      swap1\n      0x20\n      add\n      swap1\n      swap3\n      swap2\n      swap1\n      pop\n      pop\n      pop\n      jump(tag_10)\n    tag_9:\n      mload(0x40)\n      dup1\n      dup3\n      iszero\n      iszero\n      iszero\n      iszero\n      dup2\n      mstore\n      0x20\n      add\n      swap2\n      pop\n      pop\n      mload(0x40)\n      dup1\n      swap2\n      sub\n      swap1\n      return\n        /* \"contracts/Production.sol\":734:1111  function bytes32ToString(bytes32 _bytes32) public pure returns (string memory) {\r... */\n    tag_4:\n      callvalue\n        /* \"--CODEGEN--\":8:17   */\n      dup1\n        /* \"--CODEGEN--\":5:7   */\n      iszero\n      tag_11\n      jumpi\n        /* \"--CODEGEN--\":30:31   */\n      0x0\n        /* \"--CODEGEN--\":27:28   */\n      dup1\n        /* \"--CODEGEN--\":20:32   */\n      revert\n        /* \"--CODEGEN--\":5:7   */\n    tag_11:\n        /* \"contracts/Production.sol\":734:1111  function bytes32ToString(bytes32 _bytes32) public pure returns (string memory) {\r... */\n      pop\n      tag_12\n      0x4\n      dup1\n      calldatasize\n      sub\n      dup2\n      add\n      swap1\n      dup1\n      dup1\n      calldataload\n      not(0x0)\n      and\n      swap1\n      0x20\n      add\n      swap1\n      swap3\n      swap2\n      swap1\n      pop\n      pop\n      pop\n      jump(tag_13)\n    tag_12:\n      mload(0x40)\n      dup1\n      dup1\n      0x20\n      add\n      dup3\n      dup2\n      sub\n      dup3\n      mstore\n      dup4\n      dup2\n      dup2\n      mload\n      dup2\n      mstore\n      0x20\n      add\n      swap2\n      pop\n      dup1\n      mload\n      swap1\n      0x20\n      add\n      swap1\n      dup1\n      dup4\n      dup4\n        /* \"--CODEGEN--\":23:24   */\n      0x0\n        /* \"--CODEGEN--\":8:108   */\n    tag_14:\n        /* \"--CODEGEN--\":33:36   */\n      dup4\n        /* \"--CODEGEN--\":30:31   */\n      dup2\n        /* \"--CODEGEN--\":27:37   */\n      lt\n        /* \"--CODEGEN--\":8:108   */\n      iszero\n      tag_15\n      jumpi\n        /* \"--CODEGEN--\":99:100   */\n      dup1\n        /* \"--CODEGEN--\":94:97   */\n      dup3\n        /* \"--CODEGEN--\":90:101   */\n      add\n        /* \"--CODEGEN--\":84:102   */\n      mload\n        /* \"--CODEGEN--\":80:81   */\n      dup2\n        /* \"--CODEGEN--\":75:78   */\n      dup5\n        /* \"--CODEGEN--\":71:82   */\n      add\n        /* \"--CODEGEN--\":64:103   */\n      mstore\n        /* \"--CODEGEN--\":52:54   */\n      0x20\n        /* \"--CODEGEN--\":49:50   */\n      dup2\n        /* \"--CODEGEN--\":45:55   */\n      add\n        /* \"--CODEGEN--\":40:55   */\n      swap1\n      pop\n        /* \"--CODEGEN--\":8:108   */\n      jump(tag_14)\n    tag_15:\n        /* \"--CODEGEN--\":12:26   */\n      pop\n        /* \"contracts/Production.sol\":734:1111  function bytes32ToString(bytes32 _bytes32) public pure returns (string memory) {\r... */\n      pop\n      pop\n      pop\n      swap1\n      pop\n      swap1\n      dup2\n      add\n      swap1\n      0x1f\n      and\n      dup1\n      iszero\n      tag_17\n      jumpi\n      dup1\n      dup3\n      sub\n      dup1\n      mload\n      0x1\n      dup4\n      0x20\n      sub\n      0x100\n      exp\n      sub\n      not\n      and\n      dup2\n      mstore\n      0x20\n      add\n      swap2\n      pop\n    tag_17:\n      pop\n      swap3\n      pop\n      pop\n      pop\n      mload(0x40)\n      dup1\n      swap2\n      sub\n      swap1\n      return\n        /* \"contracts/Production.sol\":1119:1316  function regWarranty(uint Num, bytes32 regSer) public {\r... */\n    tag_7:\n        /* \"contracts/Production.sol\":1213:1219  regSer */\n      dup1\n        /* \"contracts/Production.sol\":1188:1219  product.serialNo[Num] == regSer */\n      not(0x0)\n      and\n        /* \"contracts/Production.sol\":1188:1195  product */\n      0x0\n        /* \"contracts/Production.sol\":1188:1204  product.serialNo */\n      dup1\n      add\n        /* \"contracts/Production.sol\":1205:1208  Num */\n      dup4\n        /* \"contracts/Production.sol\":1188:1209  product.serialNo[Num] */\n      dup2\n      sload\n      dup2\n      lt\n      iszero\n      iszero\n      tag_19\n      jumpi\n      invalid\n    tag_19:\n      swap1\n      0x0\n      mstore\n      keccak256(0x0, 0x20)\n      add\n      sload\n        /* \"contracts/Production.sol\":1188:1219  product.serialNo[Num] == regSer */\n      not(0x0)\n      and\n      eq\n        /* \"contracts/Production.sol\":1184:1309  if (product.serialNo[Num] == regSer) {\r... */\n      iszero\n      tag_21\n      jumpi\n        /* \"contracts/Production.sol\":1236:1243  product */\n      0x0\n        /* \"contracts/Production.sol\":1236:1254  product.registered */\n      0x1\n      add\n        /* \"contracts/Production.sol\":1260:1266  regSer */\n      dup2\n        /* \"contracts/Production.sol\":1236:1267  product.registered.push(regSer) */\n      swap1\n      dup1\n        /* \"--CODEGEN--\":39:40   */\n      0x1\n        /* \"--CODEGEN--\":33:36   */\n      dup2\n        /* \"--CODEGEN--\":27:37   */\n      sload\n        /* \"--CODEGEN--\":23:41   */\n      add\n        /* \"--CODEGEN--\":57:67   */\n      dup1\n        /* \"--CODEGEN--\":52:55   */\n      dup3\n        /* \"--CODEGEN--\":45:68   */\n      sstore\n        /* \"--CODEGEN--\":79:89   */\n      dup1\n        /* \"--CODEGEN--\":72:89   */\n      swap2\n      pop\n        /* \"--CODEGEN--\":0:93   */\n      pop\n        /* \"contracts/Production.sol\":1236:1267  product.registered.push(regSer) */\n      swap1\n      0x1\n      dup3\n      sub\n      swap1\n      0x0\n      mstore\n      keccak256(0x0, 0x20)\n      add\n      0x0\n      swap1\n      swap2\n      swap3\n      swap1\n      swap2\n      swap1\n      swap2\n      pop\n      swap1\n      not(0x0)\n      and\n      swap1\n      sstore\n      pop\n        /* \"contracts/Production.sol\":1282:1289  product */\n      0x0\n        /* \"contracts/Production.sol\":1282:1295  product.regNo */\n      0x2\n      add\n      0x0\n        /* \"contracts/Production.sol\":1282:1297  product.regNo++ */\n      dup2\n      sload\n      dup1\n      swap3\n      swap2\n      swap1\n      0x1\n      add\n      swap2\n      swap1\n      pop\n      sstore\n      pop\n        /* \"contracts/Production.sol\":1184:1309  if (product.serialNo[Num] == regSer) {\r... */\n    tag_21:\n        /* \"contracts/Production.sol\":1119:1316  function regWarranty(uint Num, bytes32 regSer) public {\r... */\n      pop\n      pop\n      jump\t// out\n        /* \"contracts/Production.sol\":527:726  function checkSerial(uint n, bytes32 sn) public view returns(bool) {\r... */\n    tag_10:\n        /* \"contracts/Production.sol\":588:592  bool */\n      0x0\n        /* \"contracts/Production.sol\":615:622  product */\n      dup1\n        /* \"contracts/Production.sol\":615:631  product.serialNo */\n      0x0\n      add\n        /* \"contracts/Production.sol\":632:633  n */\n      dup4\n        /* \"contracts/Production.sol\":615:634  product.serialNo[n] */\n      dup2\n      sload\n      dup2\n      lt\n      iszero\n      iszero\n      tag_24\n      jumpi\n      invalid\n    tag_24:\n      swap1\n      0x0\n      mstore\n      keccak256(0x0, 0x20)\n      add\n      sload\n        /* \"contracts/Production.sol\":609:634  sn == product.serialNo[n] */\n      not(0x0)\n      and\n        /* \"contracts/Production.sol\":609:611  sn */\n      dup3\n        /* \"contracts/Production.sol\":609:634  sn == product.serialNo[n] */\n      not(0x0)\n      and\n      eq\n        /* \"contracts/Production.sol\":605:719  if (sn == product.serialNo[n]) {\r... */\n      iszero\n      tag_26\n      jumpi\n        /* \"contracts/Production.sol\":658:662  true */\n      0x1\n        /* \"contracts/Production.sol\":651:662  return true */\n      swap1\n      pop\n      jump(tag_23)\n        /* \"contracts/Production.sol\":605:719  if (sn == product.serialNo[n]) {\r... */\n    tag_26:\n        /* \"contracts/Production.sol\":702:707  false */\n      0x0\n        /* \"contracts/Production.sol\":695:707  return false */\n      swap1\n      pop\n        /* \"contracts/Production.sol\":527:726  function checkSerial(uint n, bytes32 sn) public view returns(bool) {\r... */\n    tag_23:\n      swap3\n      swap2\n      pop\n      pop\n      jump\t// out\n        /* \"contracts/Production.sol\":734:1111  function bytes32ToString(bytes32 _bytes32) public pure returns (string memory) {\r... */\n    tag_13:\n        /* \"contracts/Production.sol\":798:804  string */\n      0x60\n        /* \"contracts/Production.sol\":824:831  uint8 i */\n      0x0\n        /* \"contracts/Production.sol\":920:943  bytes memory bytesArray */\n      0x60\n        /* \"contracts/Production.sol\":834:835  0 */\n      0x0\n        /* \"contracts/Production.sol\":824:835  uint8 i = 0 */\n      swap2\n      pop\n        /* \"contracts/Production.sol\":846:910  while(i < 32 && _bytes32[i] != 0) {\r... */\n    tag_29:\n        /* \"contracts/Production.sol\":856:858  32 */\n      0x20\n        /* \"contracts/Production.sol\":852:853  i */\n      dup3\n        /* \"contracts/Production.sol\":852:858  i < 32 */\n      0xff\n      and\n      lt\n        /* \"contracts/Production.sol\":852:878  i < 32 && _bytes32[i] != 0 */\n      dup1\n      iszero\n      tag_31\n      jumpi\n      pop\n        /* \"contracts/Production.sol\":877:878  0 */\n      0x0\n        /* \"contracts/Production.sol\":862:878  _bytes32[i] != 0 */\n      0x100000000000000000000000000000000000000000000000000000000000000\n      mul\n        /* \"contracts/Production.sol\":862:870  _bytes32 */\n      dup5\n        /* \"contracts/Production.sol\":871:872  i */\n      dup4\n        /* \"contracts/Production.sol\":862:873  _bytes32[i] */\n      0xff\n      and\n      0x20\n      dup2\n      lt\n      iszero\n      iszero\n      tag_32\n      jumpi\n      invalid\n    tag_32:\n      byte\n      0x100000000000000000000000000000000000000000000000000000000000000\n      mul\n        /* \"contracts/Production.sol\":862:878  _bytes32[i] != 0 */\n      not(0xffffffffffffffffffffffffffffffffffffffffffffffffffffffffffffff)\n      and\n      eq\n      iszero\n        /* \"contracts/Production.sol\":852:878  i < 32 && _bytes32[i] != 0 */\n    tag_31:\n        /* \"contracts/Production.sol\":846:910  while(i < 32 && _bytes32[i] != 0) {\r... */\n      iszero\n      tag_30\n      jumpi\n        /* \"contracts/Production.sol\":895:898  i++ */\n      dup2\n      dup1\n      0x1\n      add\n      swap3\n      pop\n      pop\n        /* \"contracts/Production.sol\":846:910  while(i < 32 && _bytes32[i] != 0) {\r... */\n      jump(tag_29)\n    tag_30:\n        /* \"contracts/Production.sol\":956:957  i */\n      dup2\n        /* \"contracts/Production.sol\":946:958  new bytes(i) */\n      0xff\n      and\n      mload(0x40)\n      swap1\n      dup1\n      dup3\n      mstore\n      dup1\n      0x1f\n      add\n      not(0x1f)\n      and\n      0x20\n      add\n      dup3\n      add\n      0x40\n      mstore\n      dup1\n      iszero\n      tag_33\n      jumpi\n      dup2\n      0x20\n      add\n        /* \"--CODEGEN--\":29:31   */\n      0x20\n        /* \"--CODEGEN--\":21:27   */\n      dup3\n        /* \"--CODEGEN--\":17:32   */\n      mul\n        /* \"--CODEGEN--\":117:121   */\n      dup1\n        /* \"--CODEGEN--\":105:115   */\n      codesize\n        /* \"--CODEGEN--\":97:103   */\n      dup4\n        /* \"--CODEGEN--\":88:122   */\n      codecopy\n        /* \"--CODEGEN--\":148:152   */\n      dup1\n        /* \"--CODEGEN--\":140:146   */\n      dup3\n        /* \"--CODEGEN--\":136:153   */\n      add\n        /* \"--CODEGEN--\":126:153   */\n      swap2\n      pop\n        /* \"--CODEGEN--\":0:157   */\n      pop\n        /* \"contracts/Production.sol\":946:958  new bytes(i) */\n      swap1\n      pop\n    tag_33:\n      pop\n        /* \"contracts/Production.sol\":920:958  bytes memory bytesArray = new bytes(i) */\n      swap1\n      pop\n        /* \"contracts/Production.sol\":978:979  0 */\n      0x0\n        /* \"contracts/Production.sol\":974:979  i = 0 */\n      swap2\n      pop\n        /* \"contracts/Production.sol\":969:1068  for (i = 0; i < 32 && _bytes32[i] != 0; i++) {\r... */\n    tag_34:\n        /* \"contracts/Production.sol\":985:987  32 */\n      0x20\n        /* \"contracts/Production.sol\":981:982  i */\n      dup3\n        /* \"contracts/Production.sol\":981:987  i < 32 */\n      0xff\n      and\n      lt\n        /* \"contracts/Production.sol\":981:1007  i < 32 && _bytes32[i] != 0 */\n      dup1\n      iszero\n      tag_37\n      jumpi\n      pop\n        /* \"contracts/Production.sol\":1006:1007  0 */\n      0x0\n        /* \"contracts/Production.sol\":991:1007  _bytes32[i] != 0 */\n      0x100000000000000000000000000000000000000000000000000000000000000\n      mul\n        /* \"contracts/Production.sol\":991:999  _bytes32 */\n      dup5\n        /* \"contracts/Production.sol\":1000:1001  i */\n      dup4\n        /* \"contracts/Production.sol\":991:1002  _bytes32[i] */\n      0xff\n      and\n      0x20\n      dup2\n      lt\n      iszero\n      iszero\n      tag_38\n      jumpi\n      invalid\n    tag_38:\n      byte\n      0x100000000000000000000000000000000000000000000000000000000000000\n      mul\n        /* \"contracts/Production.sol\":991:1007  _bytes32[i] != 0 */\n      not(0xffffffffffffffffffffffffffffffffffffffffffffffffffffffffffffff)\n      and\n      eq\n      iszero\n        /* \"contracts/Production.sol\":981:1007  i < 32 && _bytes32[i] != 0 */\n    tag_37:\n        /* \"contracts/Production.sol\":969:1068  for (i = 0; i < 32 && _bytes32[i] != 0; i++) {\r... */\n      iszero\n      tag_35\n      jumpi\n        /* \"contracts/Production.sol\":1045:1053  _bytes32 */\n      dup4\n        /* \"contracts/Production.sol\":1054:1055  i */\n      dup3\n        /* \"contracts/Production.sol\":1045:1056  _bytes32[i] */\n      0xff\n      and\n      0x20\n      dup2\n      lt\n      iszero\n      iszero\n      tag_39\n      jumpi\n      invalid\n    tag_39:\n      byte\n      0x100000000000000000000000000000000000000000000000000000000000000\n      mul\n        /* \"contracts/Production.sol\":1029:1039  bytesArray */\n      dup2\n        /* \"contracts/Production.sol\":1040:1041  i */\n      dup4\n        /* \"contracts/Production.sol\":1029:1042  bytesArray[i] */\n      0xff\n      and\n      dup2\n      mload\n      dup2\n      lt\n      iszero\n      iszero\n      tag_40\n      jumpi\n      invalid\n    tag_40:\n      swap1\n      0x20\n      add\n      add\n        /* \"contracts/Production.sol\":1029:1056  bytesArray[i] = _bytes32[i] */\n      swap1\n      not(0xffffffffffffffffffffffffffffffffffffffffffffffffffffffffffffff)\n      and\n      swap1\n      dup2\n      0x0\n      byte\n      swap1\n      mstore8\n      pop\n        /* \"contracts/Production.sol\":1009:1012  i++ */\n      dup2\n      dup1\n      0x1\n      add\n      swap3\n      pop\n      pop\n        /* \"contracts/Production.sol\":969:1068  for (i = 0; i < 32 && _bytes32[i] != 0; i++) {\r... */\n      jump(tag_34)\n    tag_35:\n        /* \"contracts/Production.sol\":1092:1102  bytesArray */\n      dup1\n        /* \"contracts/Production.sol\":1078:1103  return string(bytesArray) */\n      swap3\n      pop\n        /* \"contracts/Production.sol\":734:1111  function bytes32ToString(bytes32 _bytes32) public pure returns (string memory) {\r... */\n      pop\n      pop\n      swap2\n      swap1\n      pop\n      jump\t// out\n\n    auxdata: 0xa165627a7a72305820d90d192c5c4166d644ab4e89ba4fcf6ae05527432b4eefe7cc97ccfec6c8752b0029\n}\n",
				"bytecode": {
					"linkReferences": {},
					"object": "608060405234801561001057600080fd5b5061047d806100206000396000f300608060405260043610610057576000357c0100000000000000000000000000000000000000000000000000000000900463ffffffff1680634716d27a1461005c57806360eaf1df146100975780639201de55146100ea575b600080fd5b34801561006857600080fd5b50610095600480360381019080803590602001909291908035600019169060200190929190505050610194565b005b3480156100a357600080fd5b506100d060048036038101908080359060200190929190803560001916906020019092919050505061020e565b604051808215151515815260200191505060405180910390f35b3480156100f657600080fd5b50610119600480360381019080803560001916906020019092919050505061024f565b6040518080602001828103825283818151815260200191508051906020019080838360005b8381101561015957808201518184015260208101905061013e565b50505050905090810190601f1680156101865780820380516001836020036101000a031916815260200191505b509250505060405180910390f35b806000191660008001838154811015156101aa57fe5b906000526020600020015460001916141561020a5760006001018190806001815401808255809150509060018203906000526020600020016000909192909190915090600019169055506000600201600081548092919060010191905055505b5050565b6000806000018381548110151561022157fe5b906000526020600020015460001916826000191614156102445760019050610249565b600090505b92915050565b606060006060600091505b60208260ff161080156102e5575060007f010000000000000000000000000000000000000000000000000000000000000002848360ff1660208110151561029d57fe5b1a7f0100000000000000000000000000000000000000000000000000000000000000027effffffffffffffffffffffffffffffffffffffffffffffffffffffffffffff191614155b156102f757818060010192505061025a565b8160ff166040519080825280601f01601f19166020018201604052801561032d5781602001602082028038833980820191505090505b509050600091505b60208260ff161080156103c0575060007f010000000000000000000000000000000000000000000000000000000000000002848360ff1660208110151561037857fe5b1a7f0100000000000000000000000000000000000000000000000000000000000000027effffffffffffffffffffffffffffffffffffffffffffffffffffffffffffff191614155b1561044757838260ff166020811015156103d657fe5b1a7f010000000000000000000000000000000000000000000000000000000000000002818360ff1681518110151561040a57fe5b9060200101907effffffffffffffffffffffffffffffffffffffffffffffffffffffffffffff1916908160001a9053508180600101925050610335565b80925050509190505600a165627a7a72305820d90d192c5c4166d644ab4e89ba4fcf6ae05527432b4eefe7cc97ccfec6c8752b0029",
					"opcodes": "PUSH1 0x80 PUSH1 0x40 MSTORE CALLVALUE DUP1 ISZERO PUSH2 0x10 JUMPI PUSH1 0x0 DUP1 REVERT JUMPDEST POP PUSH2 0x47D DUP1 PUSH2 0x20 PUSH1 0x0 CODECOPY PUSH1 0x0 RETURN STOP PUSH1 0x80 PUSH1 0x40 MSTORE PUSH1 0x4 CALLDATASIZE LT PUSH2 0x57 JUMPI PUSH1 0x0 CALLDATALOAD PUSH29 0x100000000000000000000000000000000000000000000000000000000 SWAP1 DIV PUSH4 0xFFFFFFFF AND DUP1 PUSH4 0x4716D27A EQ PUSH2 0x5C JUMPI DUP1 PUSH4 0x60EAF1DF EQ PUSH2 0x97 JUMPI DUP1 PUSH4 0x9201DE55 EQ PUSH2 0xEA JUMPI JUMPDEST PUSH1 0x0 DUP1 REVERT JUMPDEST CALLVALUE DUP1 ISZERO PUSH2 0x68 JUMPI PUSH1 0x0 DUP1 REVERT JUMPDEST POP PUSH2 0x95 PUSH1 0x4 DUP1 CALLDATASIZE SUB DUP2 ADD SWAP1 DUP1 DUP1 CALLDATALOAD SWAP1 PUSH1 0x20 ADD SWAP1 SWAP3 SWAP2 SWAP1 DUP1 CALLDATALOAD PUSH1 0x0 NOT AND SWAP1 PUSH1 0x20 ADD SWAP1 SWAP3 SWAP2 SWAP1 POP POP POP PUSH2 0x194 JUMP JUMPDEST STOP JUMPDEST CALLVALUE DUP1 ISZERO PUSH2 0xA3 JUMPI PUSH1 0x0 DUP1 REVERT JUMPDEST POP PUSH2 0xD0 PUSH1 0x4 DUP1 CALLDATASIZE SUB DUP2 ADD SWAP1 DUP1 DUP1 CALLDATALOAD SWAP1 PUSH1 0x20 ADD SWAP1 SWAP3 SWAP2 SWAP1 DUP1 CALLDATALOAD PUSH1 0x0 NOT AND SWAP1 PUSH1 0x20 ADD SWAP1 SWAP3 SWAP2 SWAP1 POP POP POP PUSH2 0x20E JUMP JUMPDEST PUSH1 0x40 MLOAD DUP1 DUP3 ISZERO ISZERO ISZERO ISZERO DUP2 MSTORE PUSH1 0x20 ADD SWAP2 POP POP PUSH1 0x40 MLOAD DUP1 SWAP2 SUB SWAP1 RETURN JUMPDEST CALLVALUE DUP1 ISZERO PUSH2 0xF6 JUMPI PUSH1 0x0 DUP1 REVERT JUMPDEST POP PUSH2 0x119 PUSH1 0x4 DUP1 CALLDATASIZE SUB DUP2 ADD SWAP1 DUP1 DUP1 CALLDATALOAD PUSH1 0x0 NOT AND SWAP1 PUSH1 0x20 ADD SWAP1 SWAP3 SWAP2 SWAP1 POP POP POP PUSH2 0x24F JUMP JUMPDEST PUSH1 0x40 MLOAD DUP1 DUP1 PUSH1 0x20 ADD DUP3 DUP2 SUB DUP3 MSTORE DUP4 DUP2 DUP2 MLOAD DUP2 MSTORE PUSH1 0x20 ADD SWAP2 POP DUP1 MLOAD SWAP1 PUSH1 0x20 ADD SWAP1 DUP1 DUP4 DUP4 PUSH1 0x0 JUMPDEST DUP4 DUP2 LT ISZERO PUSH2 0x159 JUMPI DUP1 DUP3 ADD MLOAD DUP2 DUP5 ADD MSTORE PUSH1 0x20 DUP2 ADD SWAP1 POP PUSH2 0x13E JUMP JUMPDEST POP POP POP POP SWAP1 POP SWAP1 DUP2 ADD SWAP1 PUSH1 0x1F AND DUP1 ISZERO PUSH2 0x186 JUMPI DUP1 DUP3 SUB DUP1 MLOAD PUSH1 0x1 DUP4 PUSH1 0x20 SUB PUSH2 0x100 EXP SUB NOT AND DUP2 MSTORE PUSH1 0x20 ADD SWAP2 POP JUMPDEST POP SWAP3 POP POP POP PUSH1 0x40 MLOAD DUP1 SWAP2 SUB SWAP1 RETURN JUMPDEST DUP1 PUSH1 0x0 NOT AND PUSH1 0x0 DUP1 ADD DUP4 DUP2 SLOAD DUP2 LT ISZERO ISZERO PUSH2 0x1AA JUMPI INVALID JUMPDEST SWAP1 PUSH1 0x0 MSTORE PUSH1 0x20 PUSH1 0x0 KECCAK256 ADD SLOAD PUSH1 0x0 NOT AND EQ ISZERO PUSH2 0x20A JUMPI PUSH1 0x0 PUSH1 0x1 ADD DUP2 SWAP1 DUP1 PUSH1 0x1 DUP2 SLOAD ADD DUP1 DUP3 SSTORE DUP1 SWAP2 POP POP SWAP1 PUSH1 0x1 DUP3 SUB SWAP1 PUSH1 0x0 MSTORE PUSH1 0x20 PUSH1 0x0 KECCAK256 ADD PUSH1 0x0 SWAP1 SWAP2 SWAP3 SWAP1 SWAP2 SWAP1 SWAP2 POP SWAP1 PUSH1 0x0 NOT AND SWAP1 SSTORE POP PUSH1 0x0 PUSH1 0x2 ADD PUSH1 0x0 DUP2 SLOAD DUP1 SWAP3 SWAP2 SWAP1 PUSH1 0x1 ADD SWAP2 SWAP1 POP SSTORE POP JUMPDEST POP POP JUMP JUMPDEST PUSH1 0x0 DUP1 PUSH1 0x0 ADD DUP4 DUP2 SLOAD DUP2 LT ISZERO ISZERO PUSH2 0x221 JUMPI INVALID JUMPDEST SWAP1 PUSH1 0x0 MSTORE PUSH1 0x20 PUSH1 0x0 KECCAK256 ADD SLOAD PUSH1 0x0 NOT AND DUP3 PUSH1 0x0 NOT AND EQ ISZERO PUSH2 0x244 JUMPI PUSH1 0x1 SWAP1 POP PUSH2 0x249 JUMP JUMPDEST PUSH1 0x0 SWAP1 POP JUMPDEST SWAP3 SWAP2 POP POP JUMP JUMPDEST PUSH1 0x60 PUSH1 0x0 PUSH1 0x60 PUSH1 0x0 SWAP2 POP JUMPDEST PUSH1 0x20 DUP3 PUSH1 0xFF AND LT DUP1 ISZERO PUSH2 0x2E5 JUMPI POP PUSH1 0x0 PUSH32 0x100000000000000000000000000000000000000000000000000000000000000 MUL DUP5 DUP4 PUSH1 0xFF AND PUSH1 0x20 DUP2 LT ISZERO ISZERO PUSH2 0x29D JUMPI INVALID JUMPDEST BYTE PUSH32 0x100000000000000000000000000000000000000000000000000000000000000 MUL PUSH31 0xFFFFFFFFFFFFFFFFFFFFFFFFFFFFFFFFFFFFFFFFFFFFFFFFFFFFFFFFFFFFFF NOT AND EQ ISZERO JUMPDEST ISZERO PUSH2 0x2F7 JUMPI DUP2 DUP1 PUSH1 0x1 ADD SWAP3 POP POP PUSH2 0x25A JUMP JUMPDEST DUP2 PUSH1 0xFF AND PUSH1 0x40 MLOAD SWAP1 DUP1 DUP3 MSTORE DUP1 PUSH1 0x1F ADD PUSH1 0x1F NOT AND PUSH1 0x20 ADD DUP3 ADD PUSH1 0x40 MSTORE DUP1 ISZERO PUSH2 0x32D JUMPI DUP2 PUSH1 0x20 ADD PUSH1 0x20 DUP3 MUL DUP1 CODESIZE DUP4 CODECOPY DUP1 DUP3 ADD SWAP2 POP POP SWAP1 POP JUMPDEST POP SWAP1 POP PUSH1 0x0 SWAP2 POP JUMPDEST PUSH1 0x20 DUP3 PUSH1 0xFF AND LT DUP1 ISZERO PUSH2 0x3C0 JUMPI POP PUSH1 0x0 PUSH32 0x100000000000000000000000000000000000000000000000000000000000000 MUL DUP5 DUP4 PUSH1 0xFF AND PUSH1 0x20 DUP2 LT ISZERO ISZERO PUSH2 0x378 JUMPI INVALID JUMPDEST BYTE PUSH32 0x100000000000000000000000000000000000000000000000000000000000000 MUL PUSH31 0xFFFFFFFFFFFFFFFFFFFFFFFFFFFFFFFFFFFFFFFFFFFFFFFFFFFFFFFFFFFFFF NOT AND EQ ISZERO JUMPDEST ISZERO PUSH2 0x447 JUMPI DUP4 DUP3 PUSH1 0xFF AND PUSH1 0x20 DUP2 LT ISZERO ISZERO PUSH2 0x3D6 JUMPI INVALID JUMPDEST BYTE PUSH32 0x100000000000000000000000000000000000000000000000000000000000000 MUL DUP2 DUP4 PUSH1 0xFF AND DUP2 MLOAD DUP2 LT ISZERO ISZERO PUSH2 0x40A JUMPI INVALID JUMPDEST SWAP1 PUSH1 0x20 ADD ADD SWAP1 PUSH31 0xFFFFFFFFFFFFFFFFFFFFFFFFFFFFFFFFFFFFFFFFFFFFFFFFFFFFFFFFFFFFFF NOT AND SWAP1 DUP2 PUSH1 0x0 BYTE SWAP1 MSTORE8 POP DUP2 DUP1 PUSH1 0x1 ADD SWAP3 POP POP PUSH2 0x335 JUMP JUMPDEST DUP1 SWAP3 POP POP POP SWAP2 SWAP1 POP JUMP STOP LOG1 PUSH6 0x627A7A723058 KECCAK256 0xd9 0xd NOT 0x2c 0x5c COINBASE PUSH7 0xD644AB4E89BA4F 0xcf PUSH11 0xE05527432B4EEFE7CC97CC INVALID 0xc6 0xc8 PUSH22 0x2B002900000000000000000000000000000000000000 "
				},
				"gasEstimates": {
					"creation": {
						"codeDepositCost": "229800",
						"executionCost": "269",
						"totalCost": "230069"
					},
					"external": {
						"bytes32ToString(bytes32)": "infinite",
						"checkSerial(uint256,bytes32)": "882",
						"regWarranty(uint256,bytes32)": "61360"
					},
					"internal": {
						"setProduct(string memory)": "infinite"
					}
				},
				"methodIdentifiers": {
					"bytes32ToString(bytes32)": "9201de55",
					"checkSerial(uint256,bytes32)": "60eaf1df",
					"regWarranty(uint256,bytes32)": "4716d27a"
				}
			},
			"userdoc": {
				"methods": {}
			}
		}
	}
}